:020000040800F2
:1000000000000820B91D0008851700088B1700089C
:1000100091170008971700089D17000800000000BE
:1000200000000000000000000000000051AF0008C8
:10003000A31700080000000061B10008C9B1000862
:10004000091E0008091E0008091E0008091E0008F4
:10005000091E0008091E0008091E0008091E0008E4
:10006000091E0008B1170008091E0008091E000833
:10007000091E0008091E0008091E0008091E0008C4
:10008000091E0008091E0008091E0008091E0008B4
:10009000091E0008091E0008091E0008091E0008A4
:1000A000091E0008C1170008091E0008091E0008E3
:1000B000091E0008091E0008091E0008091E000884
:1000C000091E0008091E0008091E0008091E000874
:1000D000091E0008D5170008091E0008091E00089F
:1000E000091E0008091E0008091E0008091E000854
:1000F000091E0008091E0008091E0008091E000844
:10010000091E0008091E0008091E0008091E000833
:10011000091E0008091E0008091E0008091E000823
:10012000091E0008091E0008E9170008091E00083A
:10013000091E0008FD170008091E0008091E000816
:10014000091E0008091E0008091E0008091E0008F3
:10015000091E0008091E000811180008091E0008E1
:10016000091E0008091E0008091E0008091E0008D3
:10017000091E0008091E0008091E000800000000F2
:10018000091E0008091E0008091E0008091E0008B3
:10019000091E0008091E0008091E0008091E0008A3
:1001A000091E0008091E0008091E0008091E000893
:1001B000091E0008091E0008091E0008091E000883
:1001C000091E0008091E000800000000091E0008A2
:1001D000091E0008091E0008091E0008091E000863
:1001E000091E0008091E0008091E0008091E000853
:0801F000091E0008091E0008A9
:1002000010B5054C237833B9044B13B10448AFF350
:1002100000800123237010BDD001002000000000E9
:10022000986A010808B5034B1BB103490348AFF3B3
:10023000008008BD00000000D4010020986A010879
:1002400001F0FF01102A2BDB10F0070F08D010F887
:10025000013B013A8B422DD010F0070F42B3F6D18B
:10026000F0B441EA012141EA014122F007047FF0A4
:1002700000070023F0E80256083C85EA010586EAFB
:10028000010685FA47F5A3FA87F586FA47F6A5FA37
:1002900087F68EB9EED1F0BC01F0FF0102F0070243
:1002A00032B110F8013B013A83EA010313B1F8D1EE
:1002B0000020704701387047002D06BF35460338CF
:1002C000073815F0010F07D1013015F4807F02BF08
:1002D000013015F4C03F0130F0BC0138704700BF59
:1002E00053B94AB9002908BF00281CBF4FF0FF319D
:1002F0004FF0FF3000F070B9ADF1080C6DE904CE9D
:1003000000F006F8DDF804E0DDE9022304B07047F0
:100310002DE9F047089E0D4604460F46002B4AD1B2
:100320008A42944665D9B2FA82F343B102FA03FCD9
:10033000C3F120029F4020FA02F217439C404FEA8B
:100340001C4E1FFA8CF5B7FBFEF1220C0EFB117749
:1003500042EA074201FB05F090420AD91CEB020277
:1003600001F1FF3780F01C81904240F2198102397F
:100370006244121AA4B2B2FBFEF00EFB102244EA51
:10038000024400FB05F5A5420AD91CEB040400F168
:10039000FF3280F00781A54240F2048164440238B4
:1003A00040EA0140641B00211EB1DC400023C6E985
:1003B0000043BDE8F0878B4208D9002E00F0ED80A5
:1003C0000021C6E900050846BDE8F087B3FA83F1CD
:1003D000002949D1AB4202D3824200F2F880841A4C
:1003E00065EB030201201746002EE2D0C6E9004764
:1003F000DFE702B9FFDEB2FA82F3002B40F0908013
:100400008A1A4FEA1C471FFA8CFE0121B2FBF7F54E
:1004100007FB1520220C42EA00420EFB05F0904239
:1004200008D91CEB020205F1FF3802D2904200F21B
:10043000CB804546121AA4B2B2FBF7F007FB10229C
:1004400044EA02440EFB00FEA64508D91CEB040456
:1004500000F1FF3202D2A64500F2BB801046A4EBA9
:100460000E0440EA05409FE7C1F120078B4022FAC5
:1004700007FC4CEA030C05FA01F420FA07F3FD40EF
:100480004FEA1C492343B5FBF9F81FFA8CFE09FB20
:1004900018551C0C44EA054408FB0EF5A54202FA67
:1004A00001F200FA01F00BD91CEB040408F1FF3A49
:1004B00080F08880A54240F28580A8F1020864445B
:1004C000641B9DB2B4FBF9F309FB134445EA0444F1
:1004D00003FB0EFEA64508D91CEB040403F1FF350F
:1004E0006CD2A6456AD9023B644443EA0843A3FBA5
:1004F0000295A4EB0E04AC42C846AE4656D353D088
:1005000056B1B0EB080264EB0E0404FA07F7CA40D8
:10051000CC401743C6E9007418460021BDE8F087B7
:10052000C3F1200102FA03FC20FA01F225FA01F1DD
:100530009D402A434FEA1C471FFA8CFEB1FBF7F09F
:1005400007FB1015110C41EA054100FB0EF58D4229
:1005500004FA03F408D91CEB010100F1FF382FD293
:100560008D422DD902386144491B92B2B1FBF7F597
:1005700007FB151142EA014205FB0EF1914208D931
:100580001CEB020205F1FF3816D2914214D9023D4C
:100590006244521A45EA004138E73146304608E7DE
:1005A0003946E6E61046FBE64845A9D2B9EB020813
:1005B00065EB0C0E013BA3E74546EAE72B4694E7C3
:1005C0004046D1E7D0467BE7023D624432E7084629
:1005D0000AE76444023842E7704700BF80B400AFC6
:1005E000084B094A1A60074B1B68084AA2FB032301
:1005F0009B099AB2064B1A8000BFBD465DF8047B8A
:10060000704700BFF001002040420F00D34D621040
:10061000EC01002080B489B000AF786000237B61DA
:100620000023FB6100233B610023BB610023FB60CF
:100630001B4B1B68DB6AFB601A4B1B881A467B68E6
:1006400002FB03F37B61164B1B685B6AFB61144B77
:100650001B685B6A3B613A69FB699A42F7D03A6969
:10066000FB699A4206D2FA693B69D31ABA69134404
:10067000BB6107E0FA683B69D21AFB691344BA69A7
:100680001344BB613B69FB61BA697B699A4200D242
:10069000DDE700BF00BF2437BD465DF8047B70472F
:1006A00010AB0020EC01002080B489B000AF78606E
:1006B00000237B610023FB6100233B610023BB61BE
:1006C0000023FB601B4B1B68DB6AFB601A4B1A683C
:1006D0007B6802FB03F37B61164B1B685B6AFB6163
:1006E000144B1B685B6A3B613A69FB699A42F7D01D
:1006F0003A69FB699A4206D2FA693B69D31ABA6928
:100700001344BB6107E0FA683B69D21AFB691344E2
:10071000BA691344BB613B69FB61BA697B699A4260
:1007200000D2DDE700BF00BF2437BD465DF8047B83
:10073000704700BF10AB0020F001002080B582B0F0
:1007400000AF104B1B6B0F4A43F4800313630D4B38
:100750001B6B03F480037B607B68002205213A2039
:1007600001F0CAFD3A2001F0E3FD002205214620F8
:1007700001F0C2FD462001F0DBFD00BF0837BD4699
:1007800080BD00BF0038024080B485B000AFF86083
:10079000B9607A60FB68074A1A60BB68064A1A604B
:1007A0007B684FF400621A6000BF1437BD465DF8E5
:1007B000047B704720820020C0820020B0B596B034
:1007C00000AF1D4B07F13C041D460FCD0FC495E84B
:1007D000070084E8070007F13C030021184607F0F2
:1007E00080FF0346154A1360154B07F120041D4690
:1007F0000FCD0FC495E8070084E8070007F1200338
:100800000021184607F06DFF03460E4A13600E4B99
:100810003C1D1D460FCD0FC495E8070084E8070076
:100820003B1D0021184607F05CFF0346074A136092
:1008300000BF5837BD46B0BD346B01081882002098
:100840005C6B01081C820020886B01081482002068
:1008500080B582B000AF786007F076F80C4815F0EC
:10086000B9F9012201210B4804F048F84FF4FA705D
:1008700007F08FFF00220121064804F03FF84FF4F3
:10088000FA7007F086FF044815F0A4F9E9E700BF05
:10089000A46B010800040240C86B010880B582B057
:1008A00000AF78604FF4FA6007F073FF034B1B78DA
:1008B000002BFBD0024800F0FBF9F7E71082002084
:1008C0000000040880B582B000AF786039603B68F2
:1008D0007A68134400221A707968034815F014F9F5
:1008E00000BF0837BD4680BDDC6B010880B584B011
:1008F00000AF7860396007F10C0310221946786860
:1009000015F036F802463B681A60FB687A689A422E
:1009100004D1084815F05EF9002306E03B681B6827
:100920001946054815F0F0F8012318461037BD4662
:1009300080BD00BFF46B01080C6C010880B483B06B
:1009400000AF78607B681B78002B08D17B6801338F
:100950001B78002B03D1144B01221A701DE07B6819
:100960001B78332B08D17B6801331B78342B03D1E0
:100970000D4B02221A7010E07B681B78332B08D1D4
:100980007B6801331B78362B03D1074B03221A7087
:1009900003E0054B00221A7000BF00BF0C37BD46B4
:1009A0005DF8047B704700BF0000002080B584B074
:1009B00000AF7860444B0022DA720023FB600D2206
:1009C0004149424805F086FD322007F0E2FE404BE7
:1009D00093F83530DBB219463E4815F095F83C4B9C
:1009E00093F83530DBB2012BF9D13B4B1B78002B50
:1009F0004BD00E213448FFF765FF374B00221A70A9
:100A00003148FFF79BFF354B1B78022B02D0032B9D
:100A100023D057E0324B08221946324815F09BFA92
:100A2000304B00221A7207F10C0319462D48FFF7CC
:100A30005DFF0346002B0AD00E220021224815F04C
:100A4000B9F904222049214805F044FD3AE00E227C
:100A500000211D4815F0AEF934E0234815F0BAF82E
:100A60000E220021184815F0A5F9204B01221A701A
:100A7000FB6819461E4815F047F8FB689BB21A46FA
:100A80001C49124805F026FD1CE0184B1B781A463D
:100A9000194B1B7883F00103DBB21340002B9ED06F
:100AA000164815F097F8FB681A461249144800F0EA
:100AB0002DF9144815F08EF80F4B01221A703220D0
:100AC00007F067FE8BE700BF0082002060AB0020CC
:100AD00048AC00202C6C01080E8200200000002091
:100AE00003820020F4810020446C01080F82002062
:100AF000606C0108F401002010820020706C010875
:100B000000000408886C010880B483B000AF7860EE
:100B10000A4B1B78002B07D0084B5B78002B03D0C7
:100B2000074B01221A7002E0054B00221A7000BF29
:100B30000C37BD465DF8047B704700BF0082002083
:100B40000E82002080B58CB000AF07F11C0300229C
:100B50001A605A609A60DA601A61404B1B6B3F4A18
:100B600043F0100313633D4B1B6B03F01003BB6199
:100B7000BB693A4B1B6B394A43F004031363374B91
:100B80001B6B03F004037B617B69344B1B6B334AA3
:100B900043F020031363314B1B6B03F020033B61D5
:100BA0003B692E4B1B6B2D4A43F0800313632B4B89
:100BB0001B6B03F08003FB60FB68284B1B6B274A11
:100BC00043F001031363254B1B6B03F00103BB6070
:100BD000BB68224B1B6B214A43F0020313631F4B7C
:100BE0001B6B03F002037B607B681C4B1B6B1B4A77
:100BF00043F040031363194B1B6B03F040033B604E
:100C00003B6801220321164803F078FE0823FB61AC
:100C10004FF404133B6201237B6207F11C03194666
:100C2000104803F0A7FC0323FB6101233B62002370
:100C30007B620023BB6207F11C031946084803F0DE
:100C400099FC00220521092001F056FB092001F042
:100C50006FFB00BF3037BD4680BD00BF003802408B
:100C600000040240001C024080B582B000AF034681
:100C7000FB80C820FFF718FDFB88082B03D1044830
:100C800014F0A8FF00E000BF00BF0837BD4680BDDC
:100C90009C6C010880B483B000AF786080F3088852
:100CA000704700BF0C37BD465DF8047B70470000FD
:100CB00080B584B000AF78607B681A68114B134030
:100CC000B3F1005F19D14FF0500372B683F311886E
:100CD000BFF36F8FBFF34F8F62B6FB6000BF7B68BF
:100CE00004331B681A46084B1A607B681B68184659
:100CF000FFF7D0FF044B1B68984700BF1037BD4675
:100D000080BD00BF0000F02FC0A2002080B58AB0D7
:100D100000AFF860B9607A6000237B84FB68FB61F8
:100D2000BB68BB6100237B6236E0BB6903331B7881
:100D30001B067B61BB6902331B781B047A69134372
:100D40007B61BB6901331B781B027A6913437B61AA
:100D5000BB691B781A467B6913437B61BB6904330B
:100D6000BB617B8C5A1C7A841946144A7B6942F811
:100D700021307B8CB3F5007F0BD100237B844FF4B3
:100D800000720E49F86900F0D9FDFB6903F50063B4
:100D9000FB617B6A04337B627A6A7B689A42C4D3C4
:100DA0007B8C002B05D07B8C1A460449F86900F037
:100DB000C5FD00BF2837BD4680BD00BFC4A20020CE
:100DC00080B400AFBFF34F8F00BFBFF36F8F00BF82
:100DD0000D4B0022C3F85022BFF34F8F00BFBFF36B
:100DE0006F8F00BF084B5B69074A43F400335361C0
:100DF000BFF34F8F00BFBFF36F8F00BF00BFBD4673
:100E00005DF8047B704700BF00ED00E080B485B062
:100E100000AF1F4B0022C3F88420BFF34F8F00BFE9
:100E20001B4BD3F880307B607B685B0BC3F30E03F6
:100E3000FB607B68DB08C3F30903BB60FB685A01F6
:100E400043F6E0731340BA68920711491343C1F89F
:100E50006032BB685A1EBA60002BEFD1FB685A1E85
:100E6000FA60002BE5D1BFF34F8F00BF084B5B69E1
:100E7000074A43F480335361BFF34F8F00BFBFF382
:100E80006F8F00BF00BF1437BD465DF8047B70470D
:100E900000ED00E080B500AFFFF792FFFFF7B6FF6F
:100EA00001F014F900F02AF8134BD3F89C32124ADF
:100EB00043F00403C2F89C32FFF790FBFFF742FEB9
:100EC000FFF73CFC00F07CFE00F0EAFA00F04CFA80
:100ED0000121072000F0B5FA6420FFF7E5FB0021AF
:100EE000072000F0AEFA6420FFF7DEFBFFF766FC98
:100EF00007F0E0FBFEE700BF00ED00E080B594B036
:100F000000AF07F11C0334220021184614F052FFF1
:100F100007F1080300221A605A609A60DA601A61C9
:100F200003F01EFD2B4B1B6C2A4A43F080531364C5
:100F3000284B1B6C03F080537B607B68264B1B683F
:100F4000254A43F440431360234B1B6803F440439A
:100F50003B603B680223FB610123BB621023FB6201
:100F600002237B630023BB630823FB63D8233B641A
:100F700002237B640223BB640223FB6407F11C038E
:100F8000184603F00FFE0346002B01D000F038F89E
:100F900003F0F6FC0346002B01D000F031F80F23DC
:100FA000BB600223FB6000233B614FF4A0537B61D5
:100FB0004FF48053BB6107F108030721184604F082
:100FC0009FF80346002B01D000F01AF800BF5037FD
:100FD000BD4680BD003802400070004080B582B040
:100FE00000AF78607B681B68044A934201D101F02E
:100FF0007BF800BF0837BD4680BD00BF00440140FC
:1010000080B400AF72B600BFFEE7000080B586B0C6
:1010100000AF134B1B6B124A43F080031363104B5A
:101020001B6B03F080033B603B6830237B60012334
:10103000BB600123FB6002233B613B1D194609484D
:1010400003F098FA01222021064803F057FC012200
:101050001021044803F052FC00BF1837BD4680BD84
:1010600000380240001C024080B500AF134B1B68E3
:10107000124A23F440631360104B1B680F4A43F479
:1010800080631360012220210C4803F037FC012209
:1010900010210A4803F032FC0420FFF7BBFA0022BB
:1010A0002021064803F02AFC0420FFF7B3FA0022AF
:1010B0001021024803F022FC00BF80BD001C02404A
:1010C00080B500AF134B1B68124A23F440631360D2
:1010D000104B1B680F4A43F48063136000221021F9
:1010E0000C4803F00BFC002220210A4803F006FC08
:1010F0000420FFF78FFA01221021064803F0FEFBBF
:101100000420FFF787FA01222021024803F0F6FBB2
:1011100000BF80BD001C024080B582B000AF00233C
:10112000FB711B4B1B681A4A23F440631360184B76
:10113000174A1B68136001222021154803F0DEFBCB
:101140000120FFF767FA01221021114803F0D6FBB6
:101150000120FFF75FFA09E0FB790133FB71FB79AE
:10116000FA2B03D9FFF7ACFF01230CE0202108483C
:1011700003F0ACFB0346002BEED100221021044803
:1011800003F0BCFB002318460837BD4680BD00BFF6
:10119000001C024080B500AF00221021124803F06D
:1011A000ADFB114B1B68104A23F4406313600E4BD8
:1011B0001B680D4A43F480631360002220210A4813
:1011C00003F09CFB0220FFF725FA012210210648BC
:1011D00003F094FB0220FFF71DFA002210210248C1
:1011E00003F08CFB00BF80BD001C024080B500AF47
:1011F00000221021124803F081FB114B1B68104A9A
:1012000023F4406313600E4B1B680D4A43F4806364
:101210001360012220210A4803F070FB0220FFF72F
:10122000F9F901221021064803F068FB0220FFF7BC
:10123000F1F900221021024803F060FB00BF80BDDD
:10124000001C024080B584B000AF0346FB71224B06
:101250001B68214A23F4406313601F4B1B681E4A1E
:1012600043F480631360002210211B4803F046FB07
:101270000023FB7327E097F90730002B05DA0122E2
:101280002021154803F03AFB04E0002220211248F7
:1012900003F034FBFB795B00FB710220FFF7BAF926
:1012A000012210210C4803F029FB0220FFF7B2F9BC
:1012B00000221021084803F021FB0220FFF7AAF9C1
:1012C000FB7B0133FB73FB7B072BD4D900BF00BF33
:1012D0001037BD4680BD00BF001C024080B584B001
:1012E00000AF0346FB710023BB731E4B1B681D4AF6
:1012F00023F4406313601B4B1A4A1B6813600023DE
:10130000FB731FE000221021164803F0F7FA0220B9
:10131000FFF780F901221021124803F0EFFABB7B9E
:101320005B00BB7320210F4803F0D0FA0346002B6B
:1013300002D0BB7B0133BB730120FFF76BF9FB7B52
:101340000133FB73FB7B072BDCD9FB79002B02D12C
:10135000FFF74CFF01E0FFF71DFFBB7B184610377E
:10136000BD4680BD001C024080B588B000AF0023A0
:10137000FB77184B1B6B174A43F002031363154BA3
:101380001B6B03F002037B607B684FF48053BB60F0
:101390000023FB6001233B6103237B6107F108030A
:1013A00019460D4803F0E6F8FFF730FEFFF75CFE44
:1013B0004020FFF747FFFFF7AFFE0346FB77FFF73D
:1013C0007FFEFF2000F022F8FB7F18462037BD4645
:1013D00080BD00BF003802400004024080B582B0EA
:1013E00000AF0023FB71FFF73FFE4120FFF72AFF0C
:1013F000FFF792FE0020FFF771FF0346FB71FFF736
:101400005FFEFB7918460837BD4680BD80B582B0C7
:1014100000AF0346FB71FFF727FE4020FFF712FFE6
:10142000FFF77AFEFB791846FFF70CFFFFF774FE13
:10143000FFF746FE0A20FFF737F900BF0837BD4621
:1014400080BD80B584B000AF03460A46FB711346E9
:10145000BB71FFF7C3FF0346FB73BB79002B0CD1B5
:10146000FB79012202FA03F35BB2DB435AB297F92C
:101470000F3013405BB2FB7309E0FB79012202FAE3
:1014800003F35AB297F90F3013435BB2FB73FB7B44
:101490001846FFF7BBFF00BF1037BD4680BD0000F8
:1014A00080B500AF124B134A1A60114B01225A60EB
:1014B0000F4B20229A600E4B1022DA600C4B182240
:1014C0001A610B4B4FF480625A61094B00229A61FA
:1014D000074B0022DA61064B00221A62044803F02F
:1014E0009FFA0346002B01D0FFF78AFD00BF80BDA5
:1014F000C4AA0020001000A080B58AB000AF7860B8
:1015000007F1140300221A605A609A60DA601A61C7
:101510007B681B68354A934264D1354B9B6B344AD8
:1015200043F002039363324B9B6B03F002033B6176
:101530003B692F4B1B6B2E4A43F0200313632C4B4C
:101540001B6B03F02003FB60FB68294B1B6B284AD5
:1015500043F002031363264B1B6B03F00203BB60D3
:10156000BB68C0237B610223BB610023FB610323B3
:101570003B6209237B6207F1140319461D4802F000
:10158000F9FF4FF440737B610223BB610023FB61D1
:1015900003233B620A237B6207F1140319461548B3
:1015A00002F0E8FF04237B610223BB610023FB619F
:1015B00003233B6209237B6207F1140319460E489B
:1015C00002F0D8FF40237B610223BB610023FB6153
:1015D00003233B620A237B6207F114031946064882
:1015E00002F0C8FF00BF2837BD4680BD001000A034
:1015F00000380240001402400004024080B485B06C
:1016000000AF78607B68DB6FFB60FB6818461437BF
:10161000BD465DF8047B704780B584B000AFF860CC
:10162000B9607A607B689BB21A46B968074804F0D3
:10163000D5FE00BF0548FFF7E1FF0346202BF9D197
:101640007B6818461037BD4680BD00BF60AB0020E8
:1016500080B582B000AF114B1B6C104A43F0805331
:1016600013640E4B1B6C03F080537B607B680B4B49
:101670005B6C0A4A43F480435364084B5B6C03F48D
:1016800080433B603B6800220F216FF0010000F0B7
:1016900033FE00BF0837BD4680BD00BF00380240A2
:1016A00080B58CB000AF78600023BB6200237B6202
:1016B0002F4B5B6C2E4A43F4003353642C4B5B6C12
:1016C00003F40033BB60BB6807F10C0207F11003A1
:1016D0001146184603F0FAFE03F0E4FE03465B00F1
:1016E000BB62BB6A234AA2FB03239B0C013B7B62C8
:1016F000214B224A1A60204B40F2E732DA601E4A40
:101700007B6A53601C4B00221A611B4B00229A60BB
:10171000194B00229A61184804F032FB034687F8FF
:101720002F3097F82F30002B1BD1134804F08AFB81
:10173000034687F82F3097F82F30002B11D119204E
:1017400000F0F6FD7B680F2B08D80022796819207D
:1017500000F0D2FD0A4A7B68136002E0012387F89B
:101760002F3097F82F3018463037BD4680BD00BF68
:101770000038024083DE1B4310AB002000440140D0
:101780000800002080B400AFFEE780B400AFFEE7A1
:1017900080B400AFFEE780B400AFFEE780B400AFD6
:1017A000FEE780B400AF00BFBD465DF8047B704724
:1017B00080B500AF082003F0BBF800BF80BD00007B
:1017C00080B500AF024804F0B5FB00BF80BD00BF8C
:1017D00010AB002080B500AF024804F0BFFE00BF90
:1017E00080BD00BF60AB002080B500AF024800F0B4
:1017F0004DFF00BF80BD00BF48AC002080B500AFEA
:10180000024801F027FD00BF80BD00BFA8F6002000
:1018100080B500AF024800F039FF00BF80BD00BFB7
:10182000E8AB002080B485B000AF1B4B0022C3F8AA
:101830008420BFF34F8F00BF174BD3F880307B60FD
:101840007B685B0BC3F30E03FB607B68DB08C3F3B1
:101850000903BB60FB685A0143F6E0731340BA68A2
:1018600092070D491343C1F87432BB685A1EBA601F
:10187000002BEFD1FB685A1EFA60002BE5D1BFF3B5
:101880004F8F00BFBFF36F8F00BF00BF1437BD463F
:101890005DF8047B704700BF00ED00E080B483B0CA
:1018A00000AF78607B681B6818460C37BD465DF852
:1018B000047B704780B483B000AF78607B68184ABF
:1018C000934201D2002324E07B68164A934201D858
:1018D00001231EE07B68144A934201D2022318E0E0
:1018E0007B68124A934201D8032312E07B68104AB6
:1018F000934201D804230CE07B680E4A934201D83E
:10190000052306E07B680C4A934201D8062300E0D9
:10191000072318460C37BD465DF8047B704700BFAF
:1019200000800008FFFF000800800108FFFF010899
:10193000FFFF0308FFFF0708FFFF0B08B0B58EB0DD
:1019400000AFF860B9607A60002387F83330002375
:101950007B6100237B630023FB62FB68B3F1006FB4
:1019600068D3FB6803F00303002B63D102F0A2FBF2
:10197000FB687B637B689B00FA681344FB627B6BAC
:101980002E4A93422DD826E0786BFFF787FF034657
:10199000B3F1FF3F18D00023BB61786BFFF78AFFDC
:1019A00003463B6201237B620223BB6207F1140200
:1019B00007F118031146184602F0DEFC0346002B1F
:1019C0000ED1FFF72FFF02E07B6B04337B634CF2F9
:1019D000503002F0A1FB7A6BFB6A9A42D4D300E04C
:1019E00000BF4CF2503002F097FB034687F83330CB
:1019F00097F83330002B1AD113E0BB681B68002224
:101A00001C46154622462B46F968022002F0F6FADB
:101A10000346002B0AD1FB680433FB60BB68043328
:101A2000BB60FA68FB6A9A42E7D300E000BF02F0AD
:101A300063FB00E000BF3837BD46B0BDFFFFEF1FBE
:101A400080B400AF01231846BD465DF8047B7047A3
:101A500080B483B000AF78603960054B16221A60FD
:101A60004FF0FF3318460C37BD465DF8047B7047D6
:101A7000FC52042080B582B000AF78604FF0FF3197
:101A80007868FFF7E5FFFEE780B586B000AFF86045
:101A9000B9607A6000237B610AE0AFF30080014601
:101AA000BB685A1CBA60CAB21A707B6901337B6189
:101AB0007A697B689A42F0DB7B6818461837BD4626
:101AC00080BD80B483B000AF78604FF0FF3318461C
:101AD0000C37BD465DF8047B704780B483B000AF1F
:101AE000786039603B684FF400525A600023184612
:101AF0000C37BD465DF8047B704780B483B000AFFF
:101B00007860012318460C37BD465DF8047B7047AA
:101B100080B485B000AFF860B9607A6000231846E1
:101B20001437BD465DF8047B7047000080B487B071
:101B300000AF7860144A154BD31A7B617B693B6117
:101B4000134B1B68002B02D1114B124A1A60104B29
:101B50001A687B6813443A699A4205D20E4B0C22EC
:101B60001A604FF0FF3309E0094B1B68FB60084B1C
:101B70001A687B681344064A1360FB6818461C37D2
:101B8000BD465DF8047B704700000820002000007F
:101B90005CAB002010530420FC52042080B400AF42
:101BA000064BD3F88830054A43F47003C2F88830F6
:101BB00000BFBD465DF8047B704700BF00ED00E04C
:101BC00080B500AF144B154A1A60134B4FF4E13245
:101BD0005A60114B00229A600F4B0022DA600E4BC4
:101BE00000221A610C4B0C225A610B4B00229A61A5
:101BF000094B0022DA61084B00221A62064B0022D0
:101C00005A62054804F09CFB0346002B01D0FFF705
:101C1000F7F900BF80BD00BF60AB0020001001409D
:101C200080B5AEB000AF786007F1A40300221A605F
:101C30005A609A60DA601A6107F114039022002159
:101C4000184614F0B7F87B681B68544A934240F07A
:101C5000A08040237B610123BB6507F11403184674
:101C600003F066FC0346002B01D0FFF7C9F94C4B8B
:101C70005B6C4B4A43F010035364494B5B6C03F0BD
:101C800010033B613B69464B1B6B454A43F0010324
:101C90001363434B1B6B03F00103FB60FB684FF4C2
:101CA000C063C7F8A4300223C7F8A8300023C7F8E0
:101CB000AC300323C7F8B0300723C7F8B43007F1BE
:101CC000A4031946374802F055FC374B374A1A60CF
:101CD000354B4FF000625A60334B40229A60324BD2
:101CE0000022DA60304B4FF480621A612E4B0022E2
:101CF0005A612D4B00229A612B4B0022DA612A4B4C
:101D000000221A62284B00225A62274800F01EFB6C
:101D10000346002B01D0FFF773F97B68224A1A674C
:101D2000214A7B689363224B224A1A60204B4FF072
:101D300000625A601E4B00229A601D4B0022DA603E
:101D40001B4B4FF480621A61194B00225A61184BE9
:101D500000229A61164B0022DA61154B00221A62AA
:101D6000134B00225A62124800F0F0FA0346002B8F
:101D700001D0FFF745F97B680D4A5A670C4A7B682A
:101D8000936300220521252000F0B6FA252000F0FB
:101D9000CFFA00BFB837BD4680BD00BF001001407C
:101DA0000038024000000240E8AB0020B864024066
:101DB00048AC002040640240DFF834D00D480E49A2
:101DC0000E4A002302E0D458C4500433C4188C4295
:101DD000F9D30B4A0B4C002301E013600432A242FA
:101DE000FBD3FFF7DBFE14F08FF8FFF753F87047D3
:101DF000000008200000002090000020489B0108FF
:101E0000D00100200C530420FEE780B483B000AF63
:101E1000786039607B68002B0BD03B68DB68002B57
:101E200007D03B689B68002B03D03B681B69002BE5
:101E300002D14FF0FF3314E03B681A687B689A6068
:101E40003B685A687B68DA603B68DA687B685A618D
:101E50003B689A687B681A613B681A697B689A617B
:101E6000002318460C37BD465DF8047B704780B5EB
:101E700086B000AF78600023FB600023BB600023C6
:101E80007B6100233B617B685B68002B7CD17B68B6
:101E90009B68002B02D07B689B6898477B68202258
:101EA0001A6000237B611CE07B685B6907F1080214
:101EB0001221786998470346002B03DA6FF0040378
:101EC0003B610BE0BB6803F01F037A699A4205D1BE
:101ED0007B687A691A6000233B6105E07B69013306
:101EE0007B617B691F2BDFD97B681B681F2B02D9A5
:101EF0006FF002033B613B69002B45D17B681B6996
:101F00007A6810684FF40042002198470346002B7E
:101F100037DB7B685B697A68106807F1080200218B
:101F200098470346002B28DB7B689B69984703464C
:101F3000FB601CE07B689B69984703461A46FB6878
:101F4000D31AB3F5FA7F0ED87B685B697A6810689C
:101F500007F10802002198470346002B07DA6FF0CB
:101F600004033B6110E06FF001033B610CE0BB68D0
:101F700003F40043002BDDD106E06FF004033B6166
:101F800002E06FF003033B613B69002B12D17B68D9
:101F90009B6998470346FB6000BF7B689B69984735
:101FA00003461A46FB68D31AB3F5FA6FF5D97B6876
:101FB00001225A603B6918461837BD4680BD80B57E
:101FC00084B000AF78600023FB607B685B697A684F
:101FD000106807F10C02012198470346002B02DA32
:101FE0006FF004036EE07B685B697A68106807F144
:101FF0000C02012198470346002B02DA6FF004031C
:1020000060E0FB6803F00403002B01D1012359E0D9
:102010007B685B697A68106807F10C0200219847B9
:102020000346002B02DA6FF004034BE0FB6803F475
:102030008053002B1BD1FB6803F40053002B06D008
:10204000FB6803F48073002B01D002233AE0FB68A5
:1020500003F40053002B01D0032333E0FB6803F4A7
:102060008073002B01D004232CE005232AE07B6839
:102070005B697A68106807F10C021F2198470346D4
:10208000002B02DA6FF004031CE0FB6803F48053BA
:10209000002B01D1062315E0FB6803F01C03182B6D
:1020A00001D102230EE0FB6803F01C03082B01D1D1
:1020B000032307E0FB6803F01C03142B01D1042366
:1020C00000E0052318461037BD4680BD80B500AF3F
:1020D000032000F006F90F20FFF7E2FAFFF7B8FA45
:1020E0000023184680BD000080B400AF064B1B786B
:1020F0001A46064B1B681344044A136000BFBD46D2
:102100005DF8047B704700BF0C000020A8AC0020E5
:1021100080B400AF034B1B681846BD465DF8047BD6
:10212000704700BFA8AC002080B584B000AF7860D5
:10213000FFF7EEFFB8607B68FB60FB68B3F1FF3F21
:1021400005D00A4B1B781A46FB681344FB6000BF9E
:10215000FFF7DEFF0246BB68D31AFA689A42F7D847
:1021600000BF00BF1037BD4680BD00BF0C0000207F
:1021700080B400AF034B1B681B0C1846BD465DF8CE
:10218000047B7047002004E080B485B000AF786025
:102190007B6803F00703FB600B4BDB68BB60BA682E
:1021A0004FF6FF031340BB60FB681A02BB681A437B
:1021B000064B1343BB60044ABB68D36000BF1437AF
:1021C000BD465DF8047B704700ED00E00000FA05B5
:1021D00080B400AF044BDB681B0A03F0070318460A
:1021E000BD465DF8047B704700ED00E080B483B02D
:1021F00000AF0346FB7197F90730002B0BDBFB792F
:1022000003F01F02074997F907305B09012000FA24
:1022100002F241F8232000BF0C37BD465DF8047B75
:10222000704700BF00E100E080B483B000AF034618
:102230003960FB7197F90730002B0ADB3B68DAB293
:102240000C4997F907301201D2B20B4483F80023EE
:102250000AE03B68DAB20849FB7903F00F03043B5C
:102260001201D2B20B441A7600BF0C37BD465DF89E
:10227000047B704700E100E000ED00E080B489B02D
:1022800000AFF860B9607A60FB6803F00703FB6198
:10229000FB69C3F10703042B28BF0423BB61FB695F
:1022A0000433062B02D9FB69033B00E000237B616A
:1022B0004FF0FF32BB6902FA03F3DA43BB681A40FE
:1022C0007B699A404FF0FF317B6901FA03F3D943F0
:1022D0007B680B40134318462437BD465DF8047BEA
:1022E000704780B582B000AF78607868FFF74CFF28
:1022F00000BF0837BD4680BD80B586B000AF03463D
:10230000B9607A60FB7300237B61FFF761FF78613E
:102310007A68B9687869FFF7B1FF024697F90F301C
:1023200011461846FFF780FF00BF1837BD4680BD35
:1023300080B582B000AF0346FB7197F907301846AD
:10234000FFF754FF00BF0837BD4680BD80B586B09B
:1023500000AF786000237B61FFF7DAFE38617B68AD
:10236000002B01D1012399E07B68022283F83520FC
:102370007B68002283F834207B681B681A687B68BE
:102380001B6822F001021A600FE0FFF7C1FE02464F
:102390003B69D31A052B08D97B6820225A657B68D4
:1023A000032283F83520032378E07B681B681B68D1
:1023B00003F00103002BE8D17B681B681B687B617D
:1023C0007A69384B13407B617B685A687B689B68ED
:1023D0001A437B68DB681A437B681B691A437B6876
:1023E0005B691A437B689B691A437B68DB691A4304
:1023F0007B681B6A13437A6913437B617B685B6A62
:10240000042B07D17B68DA6A7B681B6B13437A69FC
:1024100013437B617B681B687A691A607B681B6861
:102420005B697B617B6923F007037B617B685B6A87
:102430007A6913437B617B685B6A042B17D17B68E5
:102440009B6A7A6913437B617B68DB6A002B0ED041
:10245000786800F009FB0346002B08D07B68402217
:102460005A657B68012283F83520012316E07B68DA
:102470001B687A695A61786800F0C0FA0346FB600D
:102480007B68DB6D3F229A40FB689A607B68002284
:102490005A657B68012283F83520002318461837D7
:1024A000BD4680BD3F8010E080B586B000AFF860CB
:1024B000B9607A603B600023FB75FB689B6D3B61F4
:1024C000FB6893F83430012B01D1022348E0FB680C
:1024D000012283F83420FB6893F83530DBB2012BFE
:1024E00037D1FB68022283F83520FB6800225A6549
:1024F0003B687A68B968F86800F052FAFB68DB6DEF
:102500003F229A403B699A60FB681B681A68FB6827
:102510001B6842F016021A60FB681B685A69FB6868
:102520001B6842F080025A61FB681B6C002B07D0CD
:10253000FB681B681A68FB681B6842F008021A6097
:10254000FB681B681A68FB681B6842F001021A608E
:1025500005E0FB68002283F834200223FB75FB7D35
:1025600018461837BD4680BD80B584B000AF78608E
:102570007B689B6DFB60FFF7CBFDB8607B6893F8D1
:102580003530DBB2022B08D07B6880225A657B682D
:10259000002283F83420012352E07B681B681A680C
:1025A0007B681B6822F016021A607B681B685A69F8
:1025B0007B681B6822F080025A617B681B6C002BD1
:1025C00003D17B689B6C002B07D07B681B681A6863
:1025D0007B681B6822F008021A607B681B681A6817
:1025E0007B681B6822F001021A6013E0FFF790FD80
:1025F0000246BB68D31A052B0CD97B6820225A658A
:102600007B68032283F835207B68002283F834201E
:10261000032315E07B681B681B6803F00103002B94
:10262000E4D17B68DB6D3F229A40FB689A607B684F
:10263000012283F835207B68002283F834200023B0
:1026400018461037BD4680BD80B483B000AF7860B7
:102650007B6893F83530DBB2022B04D07B68802294
:102660005A6501230CE07B68052283F835207B68DE
:102670001B681A687B681B6822F001021A6000233D
:1026800018460C37BD465DF8047B704780B586B0B0
:1026900000AF78600023BB608E4B1B688E4AA2FBA4
:1026A00003239B0A7B617B689B6D3B613B691B68D5
:1026B000FB607B68DB6D08229A40FB681340002BAF
:1026C0001AD07B681B681B6803F00403002B13D02F
:1026D0007B681B681A687B681B6822F004021A601A
:1026E0007B68DB6D08229A403B699A607B685B6D72
:1026F00043F001027B685A657B68DB6D01229A40DA
:10270000FB681340002B12D07B681B685B6903F0E9
:102710008003002B0BD07B68DB6D01229A403B6964
:102720009A607B685B6D43F002027B685A657B6848
:10273000DB6D04229A40FB681340002B12D07B68AB
:102740001B681B6803F00203002B0BD07B68DB6D5A
:1027500004229A403B699A607B685B6D43F00402F7
:102760007B685A657B68DB6D10229A40FB681340DA
:10277000002B43D07B681B681B6803F00803002B09
:102780003CD07B68DB6D10229A403B699A607B6885
:102790001B681B6803F48023002B18D07B681B6820
:1027A0001B6803F40023002B08D17B681B6C002BF3
:1027B00024D07B681B6C786898471FE07B689B6C13
:1027C000002B1BD07B689B6C7868984716E07B6871
:1027D0001B681B6803F48073002B07D17B681B68A0
:1027E0001A687B681B6822F008021A607B681B6C01
:1027F000002B03D07B681B6C786898477B68DB6D87
:1028000020229A40FB681340002B00F08F807B68E9
:102810001B681B6803F01003002B00F087807B68A7
:10282000DB6D20229A403B699A607B6893F83530D3
:10283000DBB2052B36D17B681B681A687B681B6886
:1028400022F016021A607B681B685A697B681B6855
:1028500022F080025A617B681B6C002B03D17B68DD
:102860009B6C002B07D07B681B681A687B681B6811
:1028700022F008021A607B68DB6D3F229A403B69B8
:102880009A607B68012283F835207B68002283F8F8
:1028900034207B681B6D002B7ED07B681B6D7868B5
:1028A000984779E07B681B681B6803F48023002B42
:1028B0001DD07B681B681B6803F40023002B0DD11F
:1028C0007B685B6C002B31D07B685B6C78689847C9
:1028D0002CE000BF04000020B5814E1B7B68DB6B41
:1028E000002B23D07B68DB6B786898471EE07B6801
:1028F0001B681B6803F48073002B0FD17B681B6877
:102900001A687B681B6822F010021A607B6801223B
:1029100083F835207B68002283F834207B68DB6BEA
:10292000002B03D07B68DB6B786898477B685B6D16
:10293000002B32D07B685B6D03F00103002B22D0AB
:102940007B68052283F835207B681B681A687B68E2
:102950001B6822F001021A60BB680133BB607A6910
:102960009A4207D37B681B681B6803F00103002BA6
:10297000F2D100E000BF7B68012283F835207B683C
:10298000002283F834207B68DB6C002B05D07B6849
:10299000DB6C7868984700E000BF1837BD4680BD03
:1029A00080B485B000AFF860B9607A603B60FB68C6
:1029B0001B681A68FB681B6822F480221A60FB6897
:1029C0001B683A685A60FB689B68402B08D1FB681B
:1029D0001B687A689A60FB681B68BA68DA6007E06F
:1029E000FB681B68BA689A60FB681B687A68DA60E3
:1029F00000BF1437BD465DF8047B704780B485B0D6
:102A000000AF78607B681B68DBB2103B134AA2FB07
:102A100003231B09FB60124AFB6813441B781A4608
:102A20007B68DA65FB68032B08D97B681B681A464C
:102A30000C4B13401A1D7B689A6506E07B681B6887
:102A40001A46084B13407A6893657B689B6D18465D
:102A50001437BD465DF8047B704700BFABAAAAAA35
:102A60001898010800FCFFFF80B485B000AF7860C3
:102A70000023FB737B689B6ABB607B689B69002BB0
:102A80001FD1BB68032B56D801A252F823F000BF18
:102A9000A12A0008B32A0008A12A0008372B000841
:102AA0007B68DB6A03F08073002B46D00123FB7345
:102AB00043E07B68DB6AB3F1C07F40D10123FB7345
:102AC0003DE07B689B69B3F5005F21D1BB68032BB8
:102AD00037D801A252F823F0E92A0008EF2A0008AB
:102AE000E92A0008012B00080123FB7330E07B6812
:102AF000DB6A03F08073002B25D00123FB7322E0F7
:102B00007B68DB6AB3F1C07F1FD10123FB731CE03C
:102B1000BB68022B03D9BB68032B03D018E0012349
:102B2000FB7315E07B68DB6A03F08073002B0ED02B
:102B30000123FB730BE000BF0AE000BF08E000BF09
:102B400006E000BF04E000BF02E000BF00E000BFFD
:102B5000FB7B18461437BD465DF8047B704700BF09
:102B600080B584B000AF78607B68002B01D1012371
:102B70006AE07B68D3F88430002B06D17B6823227F
:102B8000C3F88420786805F01DFB314B5B6C304A3C
:102B900043F4804353642E4B5B6C03F48043BB606F
:102BA000BB682C4B5B682B4A23F400035360294B12
:102BB0005A687B689B68274913434B60254B5B68C9
:102BC0007B681B6803F580531B687A68126843F0C2
:102BD000010302F580521360FFF79AFAF86011E0E2
:102BE000FFF796FA0246FB68D31AB3F5FA7F09D9C4
:102BF0007B680422C3F888207B68E022C3F8842025
:102C0000012321E07B681B6803F580531B6803F0F8
:102C10000103002BE4D1786800F04CFF786800F0E5
:102C2000F3FF786801F049F87B685B681A46002179
:102C3000786800F0B1FF7B680022C3F888207B68C9
:102C40001022C3F88420002318461037BD4680BDEB
:102C5000003802400038014080B584B000AF786091
:102C60007B68D3F88430102B7BD17B682322C3F898
:102C700084207B6801229A657B681B68DA6B7B681D
:102C80001B6842F40272DA637B681B68D3F80C118C
:102C90007B681A68354B0B43C2F80C317B681B68A4
:102CA000D3F810217B681B6842F40312C3F810218B
:102CB0007B680422DA66786800F0FCF97B681B68A0
:102CC0001A687B681B6842F008021A607B681B6800
:102CD0001B68FB600120FFF727FA7B681B68FA6816
:102CE0001A607B681B681A687B681B6842F00402E4
:102CF0001A607B681B681B68FB600120FFF714FAF1
:102D00007B681B68FA681A60786800F074FD7B685D
:102D10001B6803F580539B697A68126843F400537B
:102D200002F5805293617B681B6803F580539B69B1
:102D30007A68126843F0020302F5805293617B685F
:102D40001B6803F58053D9697B681A68084B0B43ED
:102D500002F58052D3617B682322C3F884200023CC
:102D600000E0012318461037BD4680BD6000020018
:102D7000C1A0010080B586B000AF78607B68D3F851
:102D80008430232B6ED17B682322C3F884207B6898
:102D90001B6803F58053D9697B681A68344B0B4074
:102DA00002F58052D3617B681B6803F580539B69F1
:102DB0007A68126823F4005302F5805293617B68AD
:102DC0001B6803F580539B697A68126823F002033D
:102DD00002F5805293617B681B681A687B681B68E8
:102DE00022F004021A607B681B681B683B610120AB
:102DF000FFF79AF97B681B683A691A60786800F0F7
:102E0000FAFC7B681B681A687B681B6822F0080262
:102E10001A607B681B681B683B610120FFF784F91F
:102E20007B681B683A691A6000237B610EE07B684F
:102E30007A69123253F82230FB60FB685B6843F01A
:102E40000042FB685A607B6901337B617B69032B1D
:102E5000EDD97B6800229A657B681022C3F8842034
:102E6000002300E0012318461837BD4680BD00BF8F
:102E70003E5FFEFF80B582B000AF786039603B688E
:102E8000002B09D17B68D3F8883043F001027B68BE
:102E9000C3F88820012345E07B68D3F88430232BD6
:102EA0003FD13B685A6B7B68DA63012239687868E6
:102EB00000F070FF0346002B09D07B68D3F8883000
:102EC00043F002027B68C3F8882001232AE0BFF3A5
:102ED0004F8F00BF7B689B6A5A1C7B689A627B6835
:102EE0009B6A032B04D97B689B6A1A1F7B689A62D2
:102EF0007B681B6803F580535B6903F00403002BB8
:102F00000DD07B681B6803F580531A460423536178
:102F10007B681B6803F580531A4600235360002327
:102F200000E0012318460837BD4680BD80B588B053
:102F300000AF7860396000237B610023FB733B683E
:102F4000002B09D17B68D3F8883043F001027B68FD
:102F5000C3F888200123A8E07B68D3F88430232BB2
:102F600001D00123A1E07B68DB6DFB617B68FA691E
:102F7000123253F82230BB617B68DB6EC3F104036D
:102F8000BB606AE0BB691B6803F48073002B07D049
:102F9000BB699A697B689A67BB69DA697B685A671B
:102FA000BB691B6803F40073002B03D17B68DB6FE4
:102FB000002B40D0BB691B6803F40073002B05D0C5
:102FC0007B6800221A667B6800225A667B685B6910
:102FD0003B61BB691B6803F48073002B0CD0BB6999
:102FE0001B681B0CC3F30D03043B3B61BB691A68F0
:102FF0007B681A670123FB73BB699A68BB691A6215
:103000007B6803F17C007B6803F18001BB691B6A6C
:103010001A463B699BB205F0A1FA7B681B6E5A1CED
:103020007B681A667B685A6E3B691A447B685A66ED
:10303000BB6900221A62FB690133FB61FB69032B48
:1030400002D9FB69043BFB617B68FA69123253F8D1
:103050002230BB617B6901337B61BB691B68002B3C
:1030600006DB7A69BB689A4202D2FB7B002B89D0CF
:103070007B68DA6E7B691A447B68DA667B68DB6E94
:10308000002B02D0786800F015F87B68FA69DA65E1
:10309000FB7B012B08D17B68DA6F3B681A607B6889
:1030A0000022DA67002300E0012318462037BD46DE
:1030B00080BD000080B588B000AF78600023FB6061
:1030C0000123FB747B689B6EFB617B68FA6912329B
:1030D00053F822307B617B68DB6EBB6140E07B692B
:1030E0001B6A002B12D107F10C03184605F006FAF3
:1030F000FB68002B02D10023FB7407E0FB681A4633
:103100007B691A62FB681A467B699A60FB7C002B1C
:1031100026D07B689B6D002B03D17B691E4A5A60C9
:1031200003E07B694FF48C425A60BFF35F8F00BFAE
:103130007B691B6843F000427B691A60FB690133BD
:10314000FB61FB69032B02D9FB69043BFB617B68D4
:10315000FA69123253F822307B61BB69013BBB61D3
:10316000BB69002B02D0FB7C002BB8D17B68DB6EE7
:10317000BA699A420CD07B681B6803F580531A46E3
:10318000002393607B68FA699A667B68BA69DA669D
:1031900000BF2037BD4680BD0046008080B586B0A8
:1031A00000AF78607B681833BB60BB689B6A7B614B
:1031B000BB68DB6A3B610123FB733FE00123BB7308
:1031C0007B69013B7B61BA683B6904339B00134414
:1031D0005B68002B06D13B69013303F003033B61BD
:1031E0000023BB73BB7B002B28D07B68D9683A696E
:1031F00013469B001344DB000B441B68002B1BDBB6
:10320000BA683B6904339B0013445B68184605F0B9
:10321000E7F9BA683B6904339B00134400225A6003
:103220003B69013303F003033B61BB687A699A622F
:10323000BB683A69DA6201E00023FB737B69002B0B
:1032400002D0FB7B002BB9D1002318461837BD46AE
:1032500080BD000080B582B000AF78607B681B68DD
:1032600003F580535B6903F04003402B12D17B6868
:103270001B6803F58053DB6903F04003402B09D141
:103280007B681B6803F580531A46504B536178687E
:1032900004F0C8FC7B681B6803F580535B6903F08E
:1032A0000103012B13D17B681B6803F58053DB6995
:1032B00003F00103012B0AD17B681B6803F58053DF
:1032C0001A464FF001135361786804F0BBFC7B6829
:1032D0001B6803F580535B6903F40043B3F5004FAB
:1032E0004CD17B681B6803F58053DB6903F4004312
:1032F000B3F5004F42D17B68D3F8883043F0080221
:103300007B68C3F888207B681B6803F580535B6982
:1033100003F40053B3F5005F1AD17B681B6803F513
:1033200080535A692A4B13407A68C2F88C307B6804
:103330001B6803F58053DB697A68126823F4C03395
:1033400002F58052D3617B68E022C3F8842012E04A
:103350007B681B6803F580535A6948F28063134009
:103360007A68C2F88C307B681B6803F580531A4674
:1033700048F280635361786804F074FC7B681B68D2
:103380009B6B03F00803082B0ED17B681B68DB6A7C
:1033900003F060027B68C3F89420786800F01CF8A2
:1033A0007B680022C3F894200A4B5B6903F4002376
:1033B000002B06D0074B4FF400225A61786800F0CA
:1033C00015F800BF0837BD4680BD00BF40000100B2
:1033D00000207E00003C014080B483B000AF7860E4
:1033E00000BF0C37BD465DF8047B704780B483B0E6
:1033F00000AF786000BF0C37BD465DF8047B7047B6
:1034000080B586B000AFF860B9607A603B60FB6859
:103410001B681B697B617B6903F01C037B61BB68D4
:10342000DB029BB27A6913437B617B689B0103F4E7
:10343000F8637A6913437B617B6923F002037B6144
:103440007B6943F001037B61FB681B687A691A6141
:10345000FEF75EFE38610DE0FEF75AFE02463B695C
:10346000D31AB3F5803F01D3012310E0FB681B683A
:103470001B697B617B6903F00103002BECD1FB68C6
:103480001B685B699BB21A463B681A6000231846AA
:103490001837BD4680BD80B586B000AFF860B96012
:1034A0007A603B60FB681B681B697B617B6903F08A
:1034B0001C037B61BB68DB029BB27A6913437B61AF
:1034C0007B689B0103F4F8637A6913437B617B6932
:1034D00043F002037B617B6943F001037B613B683E
:1034E0009AB2FB681B685A61FB681B687A691A61AB
:1034F000FEF70EFE38610DE0FEF70AFE02463B695C
:10350000D31AB3F5803F01D3012309E0FB681B68A0
:103510001B697B617B6903F00103002BECD1002365
:1035200018461837BD4680BD80B483B000AF7860C0
:1035300039603B68002B01D10123D9E07B681B680F
:103540001B6803F01003002B14BF01230023DBB220
:103550001A463B6883F828207B681B681B6803F0C9
:1035600060023B685A627B681B681B6803F4007347
:10357000002B0CBF01230023DBB21A463B6883F803
:1035800020207B681B681B6803F48033002B14BF6A
:1035900001230023DBB21A463B68DA777B681B689D
:1035A0001B6803F40053002B0CBF01230023DBB284
:1035B0001A463B689A777B681B681B6803F4805344
:1035C000002B14BF01230023DBB21A463B681A7795
:1035D0007B681B681B6803F400623B689A617B6828
:1035E0001B681B6803F480423B685A617B681B6858
:1035F0001B6803F48003002B0CBF01230023DBB204
:103600001A463B685A747B681B681B6803F4000306
:10361000002B0CBF01230023DBB21A463B681A744F
:103620007B681B681B6803F08003002B14BF012319
:103630000023DBB21A463B68DA737B681B681B68A1
:1036400003F460223B689A607B681B681B6803F484
:103650008063002B14BF01230023DBB21A463B68B2
:103660001A717B681B689B6903F00203002B14BF6F
:1036700001230023DBB21A463B6883F854207B68A1
:103680001B689B6903F08003002B0CBF0123002300
:10369000DBB21A463B6883F84C207B681B689B6949
:1036A00003F030023B681A657B681B689B691B0C42
:1036B0009AB23B689A647B681B689B6903F00403B9
:1036C000002B14BF01230023DBB21A463B6883F8AA
:1036D00056207B681B689B6903F00803002B14BF0E
:1036E00001230023DBB21A463B6883F855200023F0
:1036F00018460C37BD465DF8047B704780B582B034
:1037000000AF786039603B68002B01D101230BE0EA
:103710007B68D3F88430102B05D13968786800F0C5
:103720008FF8002300E0012318460837BD4680BD0E
:1037300080B584B000AF78607B681B681B69FB6054
:10374000FB6823F01C03FB6001F08CFEB860BB68D3
:103750001D4A934208D9BB681C4A934204D8FB68AF
:1037600043F00803FB6027E0BB68184A934208D97E
:10377000BB68174A934204D2FB6843F00C03FB601A
:103780001AE0BB68124A934203D3BB68114A9342C2
:1037900011D9BB680F4A934208D9BB680E4A9342BD
:1037A00004D8FB6843F00403FB6005E0FB6843F0CA
:1037B0001003FB6000E000BF7B681B68FA681A61B9
:1037C00000BF1037BD4680BDFF2C3101BF0E160271
:1037D00000879303FFE0F5057FD1F00880B483B044
:1037E00000AF78607B68D3F88C3018460C37BD4644
:1037F0005DF8047B704780B584B000AF786000232B
:10380000FB607B681B6803F580539B697A681268CC
:1038100043F4801302F5805293617B681B6803F5C3
:1038200080539B69FB600120FEF77EFC7B681A6871
:10383000FB6802F58052936100BF1037BD4680BD22
:1038400080B584B000AF786039607B681B681B6806
:10385000FB60FA68514B1340FB603B681B7C002BFC
:1038600002D14FF4000200E000223B685B7C002B99
:1038700002D14FF4800300E000231A433B689B68A9
:103880001A433B68DB7F1B041A433B685B691343A5
:103890003A68927F002A02D14FF4005200E00022E1
:1038A0001A433B681B7F1B031A433B689B691A43FF
:1038B0003B681B799B0213433A6892F82020002A48
:1038C00002D14FF4007200E000221A433B68DB7B18
:1038D000DB011A433B685B6A1A433B6893F8283064
:1038E0001B011343FA681343FB607B681B68FA688B
:1038F0001A607B681B681B68FB600120FEF714FCE4
:103900007B681B68FA681A607B681B689B69FB60B0
:10391000FA684FF641731340FB603B689B6C1B04D5
:103920003A6892F84C20002A01D1802200E000225F
:103930001A433B681B6D13433A6892F85520012ADD
:1039400001D1082200E0002213433A6892F8562081
:10395000012A01D1042200E0002213433A6892F8C0
:103960005420012A01D1022200E000221343FA6808
:103970001343FB607B681B68FA689A617B681B686D
:103980009B69FB600120FEF7CFFB7B681B68FA6830
:103990009A6100BF1037BD4680BD00BF0F8120FF78
:1039A00080B584B000AF786039607B681B6803F530
:1039B00080539B69FB60FA683D4B1340FB603B689A
:1039C0001B7B002B02D14FF0806200E000223B689D
:1039D0005B7B5B0613433A68527F002A02D14FF4A7
:1039E000801200E000221A433B689B7B5B051A4370
:1039F0003B685B691A433B681B7FDB011A433B68EA
:103A00009B7F9B011A433B681B6A1A433B6893F8F0
:103A100024309B001343FA681343FB607B681B68E8
:103A200003F580531A46FB6893617B681B6803F5B6
:103A300080539B69FB600120FEF776FB7B681B6867
:103A400003F580531A46FB6893613B681B795A065D
:103A50003B689B681A433B689B691A433B681B6938
:103A60001A433B6893F82530DB011A433B689B6A95
:103A70009B001A433B681B6813437A68126843F43F
:103A8000000302F5805213607B681B6803F58053C6
:103A90001B68FB600120FEF747FB7B681B6803F592
:103AA00080531A46FB68136000BF1037BD4680BDC7
:103AB000233FDEF880B5A6B000AF7860012387F819
:103AC0004430012387F845300023FB63002387F847
:103AD0005330012387F85230002387F850300123F8
:103AE00087F83830002387F85430002387F84330B4
:103AF0000023BB65002387F85C300023FB670023AD
:103B000087F880300023C7F88430002387F88A3094
:103B1000002387F888304FF48043BB644FF4006380
:103B2000FB64002387F8893007F13403194678686D
:103B3000FFF786FE01233B7501237B75012387F880
:103B400025300123BB750023FB61002387F8243057
:103B5000002387F826300023BB62012387F82C302E
:103B600001233B734FF480333B614FF480033B628E
:103B70004FF40053BB61012387F82D3000233B63D2
:103B80000023BB6007F1080319467868FFF708FFB8
:103B900000BF9837BD4680BD80B487B000AFF860E5
:103BA000B9607A607B6805331B781B027A6804323F
:103BB000127813437B61BA68114B13441A467B6930
:103BC00013607B6803331B781A067B6802331B780B
:103BD0001B041A437B6801331B781B0213437A686A
:103BE000127813437B61BA68064B13441A467B690B
:103BF000136000BF1C37BD465DF8047B704700BFF3
:103C0000408002404480024080B485B000AF7860BC
:103C10000023FB603EE07B68D968FA6813469B008E
:103C20001344DB000B44BB60BB6800221A60BB6816
:103C300000225A60BB6800229A60BB680022DA60EA
:103C4000B9687B68FA68063243F82210BB681B68C3
:103C500043F48012BB681A60FB68022B0CD87B68A7
:103C6000D968FB685A1C13469B001344DB000B44C5
:103C70001A46BB68DA6004E07B68DB681A46BB68FA
:103C8000DA60BB681B6843F44002BB681A60FB68DB
:103C90000133FB60FB68032BBDD97B6800229A626D
:103CA0007B68DA687B681B6803F580531A6100BF84
:103CB0001437BD465DF8047B704780B485B000AF13
:103CC00078600023FB6046E07B681969FA68134658
:103CD0009B001344DB000B44BB60BB6800221A60EE
:103CE000BB6800225A60BB6800229A60BB68002251
:103CF000DA60BB6800221A62BB6800225A62BB68A5
:103D00004FF000421A60BB684FF48C425A60BB68A7
:103D10005B6823F00042BB685A60B9687B68FA6848
:103D2000123243F82210FB68022B0CD87B68196909
:103D3000FB685A1C13469B001344DB000B441A46D5
:103D4000BB68DA6004E07B681B691A46BB68DA600E
:103D5000FB680133FB60FB68032BB5D97B6800224D
:103D6000DA657B6800221A667B6800229A667B68A7
:103D70000022DA667B6800229A657B681A697B6894
:103D80001B6803F58053DA6000BF1437BD465DF849
:103D9000047B704780B48DB000AFF860B9607A6082
:103DA000FB6818337B617B691B69FB627B691B695C
:103DB0003B6100237B627B69FA6A53F822303B62E5
:103DC000BB689B68FB610023BB613B6A1B6803F017
:103DD0000043B3F1004F07D07A69FB6A04339B00BC
:103DE00013445B68002B01D00223FFE07B6A0133A0
:103DF0007B62FB691B681A463B6A9A603B6A5A6899
:103E00007D4B1340FA6952681A433B6A5A60BB689B
:103E10001B6803F00103002B08D03B6A1B6823F4E6
:103E20004002BB685B691A433B6A1A60BB681B6847
:103E300003F02003002B08D03B6A1B6823F040628C
:103E4000BB681B691A433B6A1A60BB681B6803F0B6
:103E50000403002B05D03B6A1B6843F080023B6AD9
:103E60001A603B6A1B6843F080523B6A1A60BFF3DA
:103E70005F8F00BF3B6A1B6843F000423B6A1A60D9
:103E800082E03B6A1B6823F000523B6A1A607B6841
:103E9000002B06D03B6A1B6843F080423B6A1A60E5
:103EA00005E03B6A1B6823F080423B6A1A60FB6AAC
:103EB0000133FB62FB6A032B02D9FB6A043BFB6202
:103EC0007B69FA6A53F822303B623B6A1B6823F035
:103ED00080523B6A1A603B6A1B6803F00043B3F1EF
:103EE000004F07D07A69FB6A04339B0013445B6878
:103EF000002B29D03B69FB627B69FA6A53F82230B8
:103F00003B620023BB6219E0BFF35F8F00BF3B6AD7
:103F10001B6823F000423B6A1A60FB6A0133FB62B4
:103F2000FB6A032B02D9FB6A043BFB627B69FA6ADA
:103F300053F822303B62BB6A0133BB62BA6A7B6AC8
:103F40009A42E1D3022351E07B6A01337B62FB6931
:103F50009B68FB61FB691B681A463B6A9A603B6A77
:103F60005A68254B1340FA6952681A433B6A5A60F3
:103F7000BB690133BB61BFF35F8F00BF3B6A1B6846
:103F800043F000423B6A1A60FB699B68002B7FF498
:103F900078AF7B68002B06D03B6A1B6843F08042F9
:103FA0003B6A1A6005E03B6A1B6823F080423B6A6B
:103FB0001A603B6A1B6843F000523B6A1A607B69D7
:103FC0005A6A7969FB6A04339B000B445A607B6927
:103FD000FA6A1A6172B600BF7B699A6ABB691344B8
:103FE0005A1C7B699A6262B600BF002318463437B8
:103FF000BD465DF8047B704700E0FFFF80B586B0EA
:1040000000AFF860B960C7E900230123FB75274BB7
:104010001B7D012B01D1022343E0244B01221A75A1
:104020004CF2503000F078F80346FB75FB7D002B16
:1040300033D1FB68032B23D801A252F823F000BF31
:10404000514000085D4000086940000875400008C4
:104050003B781946B86800F021F912E03B88194610
:10406000B86800F0F5F80CE03B681946B86800F055
:10407000C9F806E0D7E90023B86800F08DF800E041
:1040800000BF4CF2503000F047F80346FB75084B78
:104090001B69074A23F001031361044B00221A75C0
:1040A000FB7D18461837BD4680BD00BFACAC002074
:1040B000003C024080B483B000AF0023FB710B4B87
:1040C0001B69002B0BDA094B094A5A60074B094A56
:1040D0005A60064B1B69002B01DA0123FB71FB7947
:1040E00018460C37BD465DF8047B7047003C024023
:1040F00023016745AB89EFCD80B400AF054B1B6949
:10410000044A43F00043136100231846BD465DF89E
:10411000047B7047003C024080B584B000AF7860FB
:104120000023FB601A4B00229A61FDF7F1FFF86053
:1041300010E07B68B3F1FF3F0CD07B68002B07D009
:10414000FDF7E6FF0246FB68D31A7A689A4201D26D
:10415000032319E00F4BDB6803F48033002BE8D115
:104160000C4BDB6803F0F203002B03D000F0BAF82D
:10417000012309E0074BDB6803F00103002B02D0A9
:10418000044B0122DA60002318461037BD4680BD7B
:10419000ACAC0020003C024080B485B000AFF860B9
:1041A000C7E90023164B1B69154A23F440731361BA
:1041B000134B1B69124A43F440731361104B1B6984
:1041C0000F4A43F001031361FB683A681A60BFF3BA
:1041D0006F8F00BFD7E900014FF000024FF00003DE
:1041E0000A000023F968043113460B60BFF34F8FB8
:1041F00000BF00BF1437BD465DF8047B704700BFA9
:10420000003C024080B483B000AF786039600F4B4F
:104210001B690E4A23F4407313610C4B1B690B4A54
:1042200043F400731361094B1B69084A43F001030F
:1042300013617B683A681A60BFF34F8F00BF00BFFD
:104240000C37BD465DF8047B704700BF003C024060
:1042500080B483B000AF78600B467B800E4B1B6947
:104260000D4A23F4407313610B4B1B690A4A43F454
:1042700080731361084B1B69074A43F00103136104
:104280007B687A881A80BFF34F8F00BF00BF0C375E
:10429000BD465DF8047B7047003C024080B483B0AB
:1042A00000AF78600B46FB700D4B1B690C4A23F482
:1042B000407313610A4B0A4A1B691361084B1B695F
:1042C000074A43F0010313617B68FA781A70BFF361
:1042D0004F8F00BF00BF0C37BD465DF8047B7047B1
:1042E000003C024080B400AF214BDB6803F00203C6
:1042F000002B05D01F4B9B6943F020031D4A93619F
:104300001B4BDB6803F01003002B05D0194B9B6996
:1043100043F01003174A9361154BDB6803F0200349
:10432000002B05D0134B9B6943F00803114A93619E
:104330000F4BDB6803F04003002B05D00D4B9B694E
:1043400043F004030B4A9361094BDB6803F08003DD
:10435000002B05D0074B9B6943F00203054A93618C
:10436000034BF222DA6000BFBD465DF8047B704764
:10437000003C0240ACAC002080B584B000AF786057
:1043800039600123FB730023BB60304B1B7D012B85
:1043900001D1022356E02D4B01221A754CF2503008
:1043A000FFF7BAFE0346FB73FB7B002B46D13B684D
:1043B0004FF0FF321A607B681B68012B15D17B68B8
:1043C0001B69DAB27B685B681946104600F044F856
:1043D0004CF25030FFF7A0FE0346FB731C4B1A69EA
:1043E0001B491C4B13400B6128E07B689B68BB603A
:1043F0001CE07B681B69DBB21946B86800F068F8FE
:104400004CF25030FFF788FE0346FB73104B1B69DC
:104410000F4A23F0FA031361FB7B002B03D03B68A8
:10442000BA681A600AE0BB680133BB607B68DA686F
:104430007B689B681344BA689A42DAD3034B002224
:104440001A75FB7B18461037BD4680BDACAC00200A
:10445000003C0240FB7FFFFF80B483B000AF034607
:104460003960FB71194B1B69184A23F440731361BF
:104470003B68032B07D1154B1A69144948F2040312
:1044800013430B610FE03B68022B06D10F4B1B69F6
:104490000E4A43F40043136105E00C4B1B690B4AC1
:1044A00043F004031361094B1A69FB791B021343A0
:1044B000064A43F480331361BFF34F8F00BF00BF40
:1044C0000C37BD465DF8047B704700BF003C0240DE
:1044D00080B485B000AF78600B46FB700023FB60B2
:1044E000FB78002B02D10023FB6010E0FB78012B4E
:1044F00003D14FF48073FB6009E0FB78022B03D1FA
:104500004FF40073FB6002E04FF44073FB607B6884
:104510000B2B02D97B6804337B60154B1B69144A53
:1045200023F440731361124B1A691149FB6813435A
:104530000B610F4B1B690E4A23F0F80313610C4B00
:104540001A697B68DB001343094A43F002031361D5
:10455000074B1B69064A43F480331361BFF34F8F47
:1045600000BF00BF1437BD465DF8047B704700BF35
:10457000003C024080B489B000AF7860396000230D
:10458000FB6100237B6100233B610023BB610023AF
:10459000FB6175E10122FB6902FA03F37B613B6871
:1045A0001B687A6913403B613A697B699A4240F023
:1045B00064813B685B6803F00303012B05D03B6813
:1045C0005B6803F00303022B30D17B689B68BB61FF
:1045D000FB695B00032202FA03F3DB43BA69134071
:1045E000BB613B68DA68FB695B0002FA03F3BA69F6
:1045F0001343BB617B68BA699A607B685B68BB6187
:104600000122FB6902FA03F3DB43BA691340BB6181
:104610003B685B681B0903F00102FB6902FA03F3C4
:10462000BA691343BB617B68BA695A603B685B68CF
:1046300003F00303032B17D07B68DB68BB61FB69C6
:104640005B00032202FA03F3DB43BA691340BB6148
:104650003B689A68FB695B0002FA03F3BA6913438B
:10466000BB617B68BA69DA603B685B6803F003038F
:10467000022B23D1FB69DA087B68083253F8223019
:10468000BB61FB6903F007039B000F2202FA03F3EF
:10469000DB43BA691340BB613B681A69FB6903F0ED
:1046A00007039B0002FA03F3BA691343BB61FB697A
:1046B000DA087B680832B96943F822107B681B6806
:1046C000BB61FB695B00032202FA03F3DB43BA69B7
:1046D0001340BB613B685B6803F00302FB695B004E
:1046E00002FA03F3BA691343BB617B68BA691A60C3
:1046F0003B685B6803F44033002B00F0BE80664BE0
:104700005B6C654A43F480435364634B5B6C03F416
:104710008043FB60FB68614AFB699B08023352F8E7
:104720002330BB61FB6903F003039B000F2202FAF5
:1047300003F3DB43BA691340BB617B68584A934279
:1047400037D07B68574A934231D07B68564A9342B0
:104750002BD07B68554A934225D07B68544A9342BC
:104760001FD07B68534A934219D07B68524A9342C8
:1047700013D07B68514A93420DD07B68504A9342D4
:1047800007D07B684F4A934201D1092312E00A23E4
:1047900010E008230EE007230CE006230AE00523BF
:1047A00008E0042306E0032304E0022302E00123DF
:1047B00000E00023FA6902F0030292009340BA6914
:1047C0001343BB613549FB699B080233BA6941F861
:1047D00023203D4B9B68BB613B69DB43BA691340B7
:1047E000BB613B685B6803F48013002B03D0BA699C
:1047F0003B691343BB61344ABB699360324BDB684E
:10480000BB613B69DB43BA691340BB613B685B68D2
:1048100003F40013002B03D0BA693B691343BB6157
:10482000294ABB69D360284B5B68BB613B69DB43AA
:10483000BA691340BB613B685B6803F40033002B2B
:1048400003D0BA693B691343BB611F4ABB6953601C
:104850001D4B1B68BB613B69DB43BA691340BB61FD
:104860003B685B6803F48033002B03D0BA693B6973
:104870001343BB61144ABB691360FB690133FB61DD
:10488000FB690F2B7FF686AE00BF00BF2437BD4605
:104890005DF8047B704700BF0038024000380140DB
:1048A000000002400004024000080240000C0240E8
:1048B000001002400014024000180240001C024098
:1048C0000020024000240240003C014080B485B03A
:1048D00000AF78600B467B807B681A697B88134049
:1048E000002B02D00123FB7301E00023FB73FB7B51
:1048F00018461437BD465DF8047B704780B483B01A
:1049000000AF78600B467B8013467B707B78002B72
:1049100003D07A887B689A6103E07B881A047B68FD
:104920009A6100BF0C37BD465DF8047B70470000FC
:1049300080B582B000AF0346FB80084B5A69FB8804
:104940001340002B06D0054AFB885361FB881846AC
:10495000FCF78AF900BF0837BD4680BD003C014026
:1049600080B400AF054B1B68044A43F480731360A6
:1049700000BFBD465DF8047B704700BF007000407B
:1049800080B582B000AF00237B60234B1B6C224AB2
:1049900043F080531364204B1B6C03F080533B6047
:1049A0003B681E4B1B681D4A43F480331360FDF7C0
:1049B000AFFB786009E0FDF7ABFB02467B68D31ADA
:1049C000B3F57A7F01D9032322E0144B5B6803F42B
:1049D0008033B3F5803FEED1104B1B680F4A43F490
:1049E00000331360FDF794FB786009E0FDF790FB5E
:1049F00002467B68D31AB3F57A7F01D9032307E017
:104A0000064B5B6803F40033B3F5003FEED100239F
:104A100018460837BD4680BD00380240007000408F
:104A200080B586B002AF7860FDF772FBF8607B68F6
:104A3000002B01D1012367E07B6893F84130DBB2A2
:104A4000002B0BD17B68002283F840207868FCF7AC
:104A500053FD41F28831786800F05EF87B681B688E
:104A60001B6823F4F8517B689B68013B1A027B6842
:104A70001B680A431A607B689B6C0093FB680022EA
:104A80002021786800F056F80346FB72FB7A002B71
:104A900035D17B681B681A681D4B13407A685268D1
:104AA00011067A68D26811437A68D26911437A682C
:104AB000126A11437A6812680B4313607B681B68A3
:104AC0005A68144B13407A68126911047A68526963
:104AD00011437A68926911437A6812680B435360F4
:104AE0007B681B681A687B681B6842F001021A60C9
:104AF0007B6800225A647B68012283F841207B682E
:104B0000002283F84020FB7A18461037BD4680BD4E
:104B10002FFFFF00FEF8E0FF80B483B000AF7860A5
:104B200039607B683A689A6400BF0C37BD465DF80F
:104B3000047B704780B584B000AFF860B9603B601B
:104B40001346FB711AE0BB69B3F1FF3F16D0FDF7C6
:104B5000DFFA02463B68D31ABA699A4202D3BB69AC
:104B6000002B0BD1FB68042283F84120FB685B6CAF
:104B700043F00102FB685A6401230EE0FB681B68E6
:104B80009A68BB681340002B14BF01230023DBB2DB
:104B90001A46FB799A42D6D1002318461037BD46F3
:104BA00080BD000080B586B000AF78600023FB7543
:104BB0007B68002B01D101239BE27B681B6803F01B
:104BC0000103002B00F08780964B9B6803F00C03D9
:104BD000042B0CD0934B9B6803F00C03082B12D1D1
:104BE000904B5B6803F48003B3F5800F0BD18D4BC2
:104BF0001B6803F40033002B6CD07B685B68002BD0
:104C000068D1012375E27B685B68B3F5803F06D10C
:104C1000844B1B68834A43F4803313602EE07B6827
:104C20005B68002B0CD17F4B1B687E4A23F48033DA
:104C300013607C4B1B687B4A23F4802313601DE0C8
:104C40007B685B68B3F5A02F0CD1764B1B68754A67
:104C500043F480231360734B1B68724A43F4803320
:104C600013600BE06F4B1B686E4A23F480331360B4
:104C70006C4B1B686B4A23F4802313607B685B6872
:104C8000002B13D0FDF744FA386108E0FDF740FA35
:104C900002463B69D31A642B01D9032329E2614BF5
:104CA0001B6803F40033002BF0D014E0FDF730FA5A
:104CB000386108E0FDF72CFA02463B69D31A642BF1
:104CC00001D9032315E2574B1B6803F40033002B73
:104CD000F0D100E000BF7B681B6803F00203002BEB
:104CE00069D0504B9B6803F00C03002B0BD04D4B4D
:104CF0009B6803F00C03082B1CD14A4B5B6803F440
:104D00008003002B16D1474B1B6803F00203002BD6
:104D100005D07B68DB68012B01D00123E9E1414B21
:104D20001B6823F0F8027B681B69DB003D491343D5
:104D30000B6040E07B68DB68002B23D0394B1B689D
:104D4000384A43F001031360FDF7E2F9386108E0E7
:104D5000FDF7DEF902463B69D31A022B01D9032382
:104D6000C7E1304B1B6803F00203002BF0D02D4B42
:104D70001B6823F0F8027B681B69DB002949134399
:104D80000B6018E0274B1B68264A23F001031360D1
:104D9000FDF7BEF9386108E0FDF7BAF902463B6954
:104DA000D31A022B01D90323A3E11E4B1B6803F086
:104DB0000203002BF0D17B681B6803F00803002B73
:104DC00038D07B685B69002B19D0164B5B6F154A96
:104DD00043F001035367FDF79BF9386108E0FDF7E5
:104DE00097F902463B69D31A022B01D9032380E1CC
:104DF0000C4B5B6F03F00203002BF0D01AE0094B61
:104E00005B6F084A23F001035367FDF781F93861AE
:104E10000AE0FDF77DF902463B69D31A022B03D95C
:104E2000032366E100380240924B5B6F03F00203FC
:104E3000002BEED17B681B6803F00403002B00F00D
:104E4000A4808C4B1B6C03F08053002B0DD1894B3D
:104E50001B6C884A43F080531364864B1B6C03F031
:104E60008053BB60BB680123FB75834B1B6803F455
:104E70008073002B18D1804B1B687F4A43F48073EA
:104E80001360FDF745F9386108E0FDF741F9024686
:104E90003B69D31A642B01D903232AE1764B1B68A3
:104EA00003F48073002BF0D07B689B68012B06D144
:104EB000704B1B6F6F4A43F0010313672DE07B6853
:104EC0009B68002B0CD16B4B1B6F6A4A23F00103CC
:104ED0001367684B1B6F674A23F0040313671CE0DA
:104EE0007B689B68052B0CD1624B1B6F614A43F0BA
:104EF000040313675F4B1B6F5E4A43F001031367A4
:104F00000BE05C4B1B6F5B4A23F001031367594BAB
:104F10001B6F584A23F0040313677B689B68002BC0
:104F200015D0FDF7F5F838610AE0FDF7F1F8024613
:104F30003B69D31A41F28832934201D90323D8E066
:104F40004C4B1B6F03F00203002BEED014E0FDF777
:104F5000DFF838610AE0FDF7DBF802463B69D31A57
:104F600041F28832934201D90323C2E0414B1B6FC7
:104F700003F00203002BEED1FB7D012B05D13D4B4D
:104F80001B6C3C4A23F0805313647B689B69002BA5
:104F900000F0AE80374B9B6803F00C03082B6DD0FC
:104FA0007B689B69022B4BD1324B1B68314A23F043
:104FB00080731360FDF7ACF8386108E0FDF7A8F8DE
:104FC00002463B69D31A022B01D9032391E0294BF6
:104FD0001B6803F00073002BF0D17B68DA697B68F3
:104FE0001B6A1A437B685B6A9B011A437B689B6A56
:104FF0005B08013B1B041A437B68DB6A1B061A43F0
:105000007B681B6B1B071B4913434B60194B1B68C9
:10501000184A43F080731360FDF77AF8386108E0AE
:10502000FDF776F802463B69D31A022B01D9032318
:105030005FE0104B1B6803F00073002BF0D057E0CB
:105040000C4B1B680B4A23F080731360FDF760F86C
:10505000386108E0FDF75CF802463B69D31A022B81
:1050600001D9032345E0034B1B6803F00073002BB9
:10507000F0D13DE000380240007000401F4B5B68FB
:10508000FB607B689B69012B30D0FB6803F48002D6
:105090007B68DB699A4229D1FB6803F03F027B6899
:1050A0001B6A9A4222D1FA6847F6C07313407A68A5
:1050B000526A9201934219D1FB6803F440327B6833
:1050C0009B6A5B08013B1B049A420FD1FB6803F00B
:1050D00070627B68DB6A1B069A4207D1FB6803F0AB
:1050E000E0427B681B6B1B079A4201D0012300E062
:1050F000002318461837BD4680BD00BF0038024067
:1051000080B584B000AF786039600023FB607B68B5
:10511000002B01D10123D0E06A4B1B6803F00F0381
:105120003A689A4210D9674B1B6823F00F02654911
:105130003B6813430B60634B1B6803F00F033A6833
:105140009A4201D00123B8E07B681B6803F0020398
:10515000002B20D07B681B6803F00403002B05D0D4
:10516000594B9B68584A43F4E05393607B681B6833
:1051700003F00803002B05D0534B9B68524A43F4BD
:1051800060439360504B9B6823F0F0027B689B6800
:105190004D4913438B607B681B6803F00103002BB0
:1051A00040D07B685B68012B07D1474B1B6803F439
:1051B0000033002B15D101237FE07B685B68022B55
:1051C00007D1414B1B6803F00073002B09D1012369
:1051D00073E03D4B1B6803F00203002B01D1012358
:1051E0006BE0394B9B6823F003027B685B683649B0
:1051F00013438B60FCF78CFFF8600AE0FCF788FF34
:105200000246FB68D31A41F28832934201D9032344
:1052100053E02D4B9B6803F00C027B685B689B009E
:105220009A42EBD1274B1B6803F00F033A689A426E
:1052300010D2244B1B6823F00F0222493B68134312
:105240000B60204B1B6803F00F033A689A4201D0B1
:10525000012332E07B681B6803F00403002B08D0B5
:10526000194B9B6823F4E0527B68DB6816491343B3
:105270008B607B681B6803F00803002B09D0124B7E
:105280009B6823F460427B681B69DB000E49134373
:105290008B6000F021F802460B4B9B681B0903F062
:1052A0000F030A49CB5C22FA03F3094A1360094B46
:1052B0001B681846FCF7F4F9002318461037BD4662
:1052C00080BD00BF003C0240003802400098010849
:1052D00004000020080000202DE9B04F90B000AF7E
:1052E00000237B630023FB6300233B630023BB633A
:1052F000594B9B6803F00C03082B0DD0082B00F2D0
:10530000A180002B02D0042B03D09BE0534BBB6346
:105310009BE0534BBB6398E04F4B5B6803F03F034C
:105320007B634D4B5B6803F48003002B28D04A4B12
:105330005B689B0900223B627A623B6AC3F3080008
:105340000021474B03FB01F2002300FB03F313444E
:10535000434AA0FB0212FA620A46BA62FA6A13448E
:10536000FB627B6B0022BB61FA61D7E90623D7E9B8
:105370000A01FAF7B5FF02460B461346FB6353E0FA
:10538000354B5B689B0900223B617A613B69C3F343
:10539000080A4FF0000B52465B464FF000004FF0FA
:1053A0000001590141EAD261500102460B46B2EBBD
:1053B0000A0863EB0B094FF000024FF000034FEABD
:1053C000891343EA98634FEA8812B2EB080463EB4F
:1053D00009054FF000024FF00003EB0043EA54735D
:1053E000E20014461D4614EB0A033B6045EB0B0339
:1053F0007B604FF000024FF00003D7E900452946DB
:105400008B02214643EA915321468A0210461946EF
:105410007B6B0022BB60FA60D7E90223FAF760FFDA
:1054200002460B461346FB630B4B5B681B0C03F0F9
:10543000030301335B003B63FA6B3B6BB2FBF3F39B
:10544000BB6302E0054BBB6300BFBB6B1846403734
:10545000BD46BDE8B08F00BF003802400024F40014
:1054600040787D0180B400AF034B1B681846BD46F1
:105470005DF8047B704700BF0400002080B500AFDA
:10548000FFF7F0FF0246054B9B689B0A03F00703FA
:105490000349CB5C22FA03F3184680BD0038024072
:1054A0001098010880B500AFFFF7DCFF0246054BFE
:1054B0009B685B0B03F007030349CB5C22FA03F301
:1054C000184680BD003802401098010880B483B0AF
:1054D00000AF786039607B680F221A60124B9B68BE
:1054E00003F003027B685A600F4B9B6803F0F002E5
:1054F0007B689A600C4B9B6803F4E0527B68DA602F
:10550000094B9B68DB0803F4E0527B681A61074B88
:105510001B6803F00F023B681A6000BF0C37BD46E2
:105520005DF8047B704700BF00380240003C024039
:1055300080B588B000AF786000237B6100233B61B9
:105540000023FB600023FB610023BB617B681B68B9
:1055500003F00103002B12D0694B9B68684A23F4C7
:1055600000039360664B9A687B685B6B64491343E6
:105570008B607B685B6B002B01D10123FB617B6837
:105580001B6803F40023002B17D05D4BD3F88C303D
:1055900023F440127B68DB6B59491343C1F88C300C
:1055A0007B68DB6BB3F5801F01D10123FB617B6856
:1055B000DB6B002B01D10123BB617B681B6803F40B
:1055C0008013002B17D04E4BD3F88C3023F44002BD
:1055D0007B681B6C4A491343C1F88C307B681B6C99
:1055E000B3F5800F01D10123FB617B681B6C002B9D
:1055F00001D10123BB617B681B6803F08073002B22
:1056000001D00123FB617B681B6803F02003002BA2
:1056100000F08B803A4B1B6C394A43F08053136483
:10562000374B1B6C03F08053BB60BB68354B1B686A
:10563000344A43F480731360FCF76AFD786108E034
:10564000FCF766FD02467B69D31A642B01D903235C
:105650008FE32C4B1B6803F48073002BF0D0284B96
:105660001B6F03F440733B613B69002B35D07B68B3
:105670001B6B03F440733A699A422ED0204B1B6F88
:1056800023F440733B611E4B1B6F1D4A43F4803370
:1056900013671B4B1B6F1A4A23F480331367184A96
:1056A0003B691367164B1B6F03F00103012B14D1E9
:1056B000FCF72EFD78610AE0FCF72AFD02467B69C3
:1056C000D31A41F28832934201D9032351E30C4BA0
:1056D0001B6F03F00203002BEED07B681B6B03F4FF
:1056E0004073B3F5407F11D1054B9B6823F4F8124A
:1056F0007B68196B044B0B40014913438B600BE033
:105700000038024000700040FFFCFF0FAC4B9B686C
:10571000AB4A23F4F8139360A94B1A6F7B681B6B99
:10572000C3F30B03A64913430B677B681B6803F0A5
:105730001003002B10D0A24BD3F88C30A04A23F0DA
:105740008073C2F88C309E4BD3F88C207B689B6BA7
:105750009B491343C1F88C307B681B6803F480437A
:10576000002B0AD0964BD3F8903023F440327B685C
:105770005B6E93491343C1F890307B681B6803F458
:105780000043002B0AD08E4BD3F8903023F44022F4
:105790007B689B6E8A491343C1F890307B681B6815
:1057A00003F48033002B0AD0854BD3F8903023F4D8
:1057B00040127B68DB6E82491343C1F890307B68EE
:1057C0001B6803F40033002B0AD07D4BD3F89030D4
:1057D00023F440027B681B6F79491343C1F8903072
:1057E0007B681B6803F04003002B0AD0744BD3F88E
:1057F000903023F003027B685B6C71491343C1F85E
:1058000090307B681B6803F08003002B0AD06C4B40
:10581000D3F8903023F00C027B689B6C68491343EB
:10582000C1F890307B681B6803F48073002B0AD0AA
:10583000634BD3F8903023F030027B68DB6C604917
:105840001343C1F890307B681B6803F40073002B8E
:105850000AD05B4BD3F8903023F0C0027B681B6DFD
:1058600057491343C1F890307B681B6803F4806389
:10587000002B0AD0524BD3F8903023F440727B684F
:105880005B6D4F491343C1F890307B681B6803F48C
:105890000063002B0AD04A4BD3F8903023F44062C7
:1058A0007B689B6D46491343C1F890307B681B6849
:1058B00003F48053002B0AD0414BD3F8903023F4EB
:1058C00040527B68DB6D3E491343C1F890307B68E2
:1058D0001B6803F40053002B0AD0394BD3F89030E7
:1058E00023F440427B681B6E35491343C1F8903066
:1058F0007B681B6803F48003002B0AD0304BD3F87D
:10590000903023F080627B689B6F2D491343C1F870
:1059100090307B681B6803F40013002B11D0284BD8
:10592000D3F8903023F000627B68DB6F2449134387
:10593000C1F890307B68DB6FB3F1006F01D10123B8
:10594000BB617B681B6803F00803002B01D00123B7
:10595000BB617B681B6803F48023002B0AD0184BC3
:10596000D3F8903023F040727B685B6F1449134387
:10597000C1F890307B681B6803F40003002B0BD048
:105980000F4BD3F8903023F080527B68D3F88030EF
:105990000B491343C1F890307B681B6803F08063A8
:1059A000002B0FD0064BD3F8903023F000527B68C9
:1059B000D3F8843002491343C1F8903002E000BFAD
:1059C000003802407B681B6803F00063002B0BD09B
:1059D0008A4BD3F88C3023F000727B68D3F8883080
:1059E00086491343C1F88C307B681B6803F08053F1
:1059F000002B0BD0814BD3F88C3023F080627B6876
:105A0000D3F88C307D491343C1F88C30FB69012BEE
:105A100006D07B681B6803F00073002B00F0D68073
:105A2000764B1B68754A23F080631360FCF770FBAC
:105A3000786108E0FCF76CFB02467B69D31A642BA3
:105A400001D9032395E16D4B1B6803F00063002B24
:105A5000F0D17B681B6803F00103002B21D07B6829
:105A60005B6B002B1DD1654BD3F884301B0C03F00E
:105A700003033B61614BD3F884301B0E03F00F032B
:105A8000FB607B685B689A013B691B041A43FB68F7
:105A90001B061A437B689B681B0758491343C1F8D0
:105AA00084307B681B6803F40023002B04D07B68E0
:105AB000DB6BB3F5801F0AD07B681B6803F480138F
:105AC000002B2ED07B681B6CB3F5800F29D14B4B7C
:105AD000D3F884301B0C03F003033B61474BD3F82E
