:020000040804EE
:100000000000082051160408391204083F120408A1
:10001000451204084B1204085112040800000000A5
:10002000000000000000000000000000A19D040886
:100030005712040800000000B19F040819A004082A
:10004000A1160408A1160408A1160408A1160408A4
:10005000A1160408A1160408A1160408A116040894
:10006000A116040865120408A1160408A1160408C4
:10007000A1160408A1160408A1160408A116040874
:10008000A1160408A1160408A1160408A116040864
:10009000A1160408A1160408A1160408A116040854
:1000A000A116040875120408A1160408A116040874
:1000B000A1160408A1160408A1160408A116040834
:1000C000A1160408A1160408A1160408A116040824
:1000D000A116040889120408A1160408A116040830
:1000E000A1160408A1160408A1160408A116040804
:1000F000A1160408A1160408A1160408A1160408F4
:10010000A1160408A1160408A1160408A1160408E3
:10011000A1160408A1160408A1160408A1160408D3
:10012000A1160408A11604089D120408A1160408CB
:10013000A1160408B1120408A1160408A1160408A7
:10014000A1160408A1160408A1160408A1160408A3
:10015000A1160408A1160408C5120408A116040873
:10016000A1160408A1160408A1160408A116040883
:10017000A1160408A1160408A11604080000000036
:10018000A1160408A1160408A1160408A116040863
:10019000A1160408A1160408A1160408A116040853
:1001A000A1160408A1160408A1160408A116040843
:1001B000A1160408A1160408A1160408A116040833
:1001C000A1160408A116040800000000A1160408E6
:1001D000A1160408A1160408A1160408A116040813
:1001E000A1160408A1160408A1160408A116040803
:0801F000A1160408A116040881
:1002000010B5054C237833B9044B13B10448AFF350
:1002100000800123237010BDCC01002000000000ED
:10022000C457050808B5034B1BB103490348AFF396
:10023000008008BD00000000D0010020C457050860
:1002400001F0FF01102A2BDB10F0070F08D010F887
:10025000013B013A8B422DD010F0070F42B3F6D18B
:10026000F0B441EA012141EA014122F007047FF0A4
:1002700000070023F0E80256083C85EA010586EAFB
:10028000010685FA47F5A3FA87F586FA47F6A5FA37
:1002900087F68EB9EED1F0BC01F0FF0102F0070243
:1002A00032B110F8013B013A83EA010313B1F8D1EE
:1002B0000020704701387047002D06BF35460338CF
:1002C000073815F0010F07D1013015F4807F02BF08
:1002D000013015F4C03F0130F0BC0138704700BF59
:1002E00053B94AB9002908BF00281CBF4FF0FF319D
:1002F0004FF0FF3000F070B9ADF1080C6DE904CE9D
:1003000000F006F8DDF804E0DDE9022304B07047F0
:100310002DE9F047089E0D4604460F46002B4AD1B2
:100320008A42944665D9B2FA82F343B102FA03FCD9
:10033000C3F120029F4020FA02F217439C404FEA8B
:100340001C4E1FFA8CF5B7FBFEF1220C0EFB117749
:1003500042EA074201FB05F090420AD91CEB020277
:1003600001F1FF3780F01C81904240F2198102397F
:100370006244121AA4B2B2FBFEF00EFB102244EA51
:10038000024400FB05F5A5420AD91CEB040400F168
:10039000FF3280F00781A54240F2048164440238B4
:1003A00040EA0140641B00211EB1DC400023C6E985
:1003B0000043BDE8F0878B4208D9002E00F0ED80A5
:1003C0000021C6E900050846BDE8F087B3FA83F1CD
:1003D000002949D1AB4202D3824200F2F880841A4C
:1003E00065EB030201201746002EE2D0C6E9004764
:1003F000DFE702B9FFDEB2FA82F3002B40F0908013
:100400008A1A4FEA1C471FFA8CFE0121B2FBF7F54E
:1004100007FB1520220C42EA00420EFB05F0904239
:1004200008D91CEB020205F1FF3802D2904200F21B
:10043000CB804546121AA4B2B2FBF7F007FB10229C
:1004400044EA02440EFB00FEA64508D91CEB040456
:1004500000F1FF3202D2A64500F2BB801046A4EBA9
:100460000E0440EA05409FE7C1F120078B4022FAC5
:1004700007FC4CEA030C05FA01F420FA07F3FD40EF
:100480004FEA1C492343B5FBF9F81FFA8CFE09FB20
:1004900018551C0C44EA054408FB0EF5A54202FA67
:1004A00001F200FA01F00BD91CEB040408F1FF3A49
:1004B00080F08880A54240F28580A8F1020864445B
:1004C000641B9DB2B4FBF9F309FB134445EA0444F1
:1004D00003FB0EFEA64508D91CEB040403F1FF350F
:1004E0006CD2A6456AD9023B644443EA0843A3FBA5
:1004F0000295A4EB0E04AC42C846AE4656D353D088
:1005000056B1B0EB080264EB0E0404FA07F7CA40D8
:10051000CC401743C6E9007418460021BDE8F087B7
:10052000C3F1200102FA03FC20FA01F225FA01F1DD
:100530009D402A434FEA1C471FFA8CFEB1FBF7F09F
:1005400007FB1015110C41EA054100FB0EF58D4229
:1005500004FA03F408D91CEB010100F1FF382FD293
:100560008D422DD902386144491B92B2B1FBF7F597
:1005700007FB151142EA014205FB0EF1914208D931
:100580001CEB020205F1FF3816D2914214D9023D4C
:100590006244521A45EA004138E73146304608E7DE
:1005A0003946E6E61046FBE64845A9D2B9EB020813
:1005B00065EB0C0E013BA3E74546EAE72B4694E7C3
:1005C0004046D1E7D0467BE7023D624432E7084629
:1005D0000AE76444023842E7704700BF80B400AFC6
:1005E000084B094A1A60074B1B68084AA2FB032301
:1005F0009B099AB2064B1A8000BFBD465DF8047B8A
:10060000704700BFEC01002040420F00D34D621044
:10061000E801002080B489B000AF786000237B61DE
:100620000023FB6100233B610023BB610023FB60CF
:100630001B4B1B68DB6AFB601A4B1B881A467B68E6
:1006400002FB03F37B61164B1B685B6AFB61144B77
:100650001B685B6A3B613A69FB699A42F7D03A6969
:10066000FB699A4206D2FA693B69D31ABA69134404
:10067000BB6107E0FA683B69D21AFB691344BA69A7
:100680001344BB613B69FB61BA697B699A4200D242
:10069000DDE700BF00BF2437BD465DF8047B70472F
:1006A00098220020E801002080B489B000AF786073
:1006B00000237B610023FB6100233B610023BB61BE
:1006C0000023FB601B4B1B68DB6AFB601A4B1A683C
:1006D0007B6802FB03F37B61164B1B685B6AFB6163
:1006E000144B1B685B6A3B613A69FB699A42F7D01D
:1006F0003A69FB699A4206D2FA693B69D31ABA6928
:100700001344BB6107E0FA683B69D21AFB691344E2
:10071000BA691344BB613B69FB61BA697B699A4260
:1007200000D2DDE700BF00BF2437BD465DF8047B83
:10073000704700BF98220020EC01002080B582B0F5
:1007400000AF104B1B6B0F4A43F4800313630D4B38
:100750001B6B03F480037B607B68002205213A2039
:1007600001F016FA3A2001F02FFA00220521462066
:1007700001F00EFA462001F027FA00BF0837BD4607
:1007800080BD00BF0038024080B485B000AFF86083
:10079000B9607A60FB68074A1A60BB68064A1A604B
:1007A0007B684FF400621A6000BF1437BD465DF8E5
:1007B000047B7047F801002098020020B0B58EB08D
:1007C00000AF144B07F11C041D460FCD0FC495E874
:1007D000070084E8070007F11C030021184606F013
:1007E000ACFE03460C4A13600C4B3C461D460FCD35
:1007F0000FC495E8070084E807003B46002118462F
:1008000006F09BFE0346064A136000BF3837BD461C
:10081000B0BD00BF60580508F001002088580508E9
:10082000F401002080B582B000AF786005F0B8FF19
:100830000C4814F06BF8012202210B4803F0EEF98A
:100840004FF4FA7006F0D1FE00220221064803F0B0
:10085000E5F94FF4FA7006F0C8FE044814F056F8B3
:10086000E9E700BFA458050800040240C85805087D
:1008700080B483B000AF7860FEE7000080B58CB034
:1008800000AF07F11C0300221A605A609A60DA6018
:100890001A61404B1B6B3F4A43F0100313633D4BFF
:1008A0001B6B03F01003BB61BB693A4B1B6B394AEE
:1008B00043F004031363374B1B6B03F004037B61AA
:1008C0007B69344B1B6B334A43F020031363314B7A
:1008D0001B6B03F020033B613B692E4B1B6B2D4AC6
:1008E00043F0800313632B4B1B6B03F08003FB600F
:1008F000FB68284B1B6B274A43F001031363254B0E
:100900001B6B03F00103BB60BB68224B1B6B214ACE
:1009100043F0020313631F4B1B6B03F002037B6066
:100920007B681C4B1B6B1B4A43F040031363194B42
:100930001B6B03F040033B603B6801220321164818
:1009400003F06CF90823FB614FF404133B620123AD
:100950007B6207F11C031946104802F09BFF03233A
:10096000FB6101233B6200237B620023BB6207F132
:100970001C031946084802F08DFF002205210920BA
:1009800001F006F9092001F01FF900BF3037BD461C
:1009900080BD00BF0038024000040240001C02403D
:1009A00080B582B000AF0346FB80C820FFF77CFE15
:1009B000FB88082B03D1044813F0A8FF00E000BF18
:1009C00000BF0837BD4680BDD858050880B400AFC9
:1009D000BFF34F8F00BFBFF36F8F00BF0D4B0022DF
:1009E000C3F85022BFF34F8F00BFBFF36F8F00BF1C
:1009F000084B5B69074A43F400335361BFF34F8FE1
:100A000000BFBFF36F8F00BF00BFBD465DF8047B22
:100A1000704700BF00ED00E080B485B000AF1F4B11
:100A20000022C3F88420BFF34F8F00BF1B4BD3F8C5
:100A300080307B607B685B0BC3F30E03FB607B68DD
:100A4000DB08C3F30903BB60FB685A0143F6E0739C
:100A50001340BA68920711491343C1F86032BB686A
:100A60005A1EBA60002BEFD1FB685A1EFA60002BA9
:100A7000E5D1BFF34F8F00BF084B5B69074A43F4D2
:100A800080335361BFF34F8F00BFBFF36F8F00BF41
:100A900000BF1437BD465DF8047B704700ED00E0F1
:100AA00080B500AF174B184A9A60FFF78FFFFFF72A
:100AB000B3FF00F057FF00F029F8124BD3F89C3237
:100AC000104A43F00403C2F89C32FFF787FDFFF79A
:100AD000D5FEFFF733FE00F0BFFC00F04DFA012118
:100AE000072000F0B6FA6420FFF7DEFD00210720A2
:100AF00000F0AFFA6420FFF7D7FDFFF75FFE06F0C6
:100B000005FDFEE700ED00E00000040880B594B0AC
:100B100000AF07F11C0334220021184613F0E6FF52
:100B200007F1080300221A605A609A60DA601A61BD
:100B300003F0A6F82B4B1B6C2A4A43F08053136436
:100B4000284B1B6C03F080537B607B68264B1B6833
:100B5000254A43F440431360234B1B6803F440438E
:100B60003B603B680223FB610123BB621023FB62F5
:100B700002237B630023BB630823FB63D8233B640E
:100B800002237B640223BB640223FB6407F11C0382
:100B9000184603F0D5F80346002B01D000F038F8D2
:100BA00003F07EF80346002B01D000F031F80F234C
:100BB000BB600223FB6000233B614FF4A0537B61C9
:100BC0004FF48053BB6107F108030721184603F077
:100BD00065FB0346002B01D000F01AF800BF503728
:100BE000BD4680BD003802400070004080B582B034
:100BF00000AF78607B681B68044A934201D100F023
:100C0000BFFE00BF0837BD4680BD00BF00440140A5
:100C100080B400AF72B600BFFEE7000080B586B0BA
:100C200000AF134B1B6B124A43F080031363104B4E
:100C30001B6B03F080033B603B6830237B60012328
:100C4000BB600123FB6002233B613B1D1946094841
:100C500002F020FE01222021064802F0DFFF0122DF
:100C60001021044802F0DAFF00BF1837BD4680BDEE
:100C700000380240001C024080B500AF134B1B68D7
:100C8000124A23F440631360104B1B680F4A43F46D
:100C900080631360012220210C4802F0BFFF012273
:100CA00010210A4802F0BAFF0420FFF7B3FC00222B
:100CB0002021064802F0B2FF0420FFF7ABFC00221F
:100CC0001021024802F0AAFF00BF80BD001C0240B4
:100CD00080B500AF134B1B68124A23F440631360C6
:100CE000104B1B680F4A43F48063136000221021ED
:100CF0000C4802F093FF002220210A4802F08EFFE8
:100D00000420FFF787FC01221021064802F086FF2D
:100D100001222021034802F081FF0420FFF77AFC22
:100D200000BF80BD001C024080B582B000AF002330
:100D3000FB711B4B1B681A4A23F440631360184B6A
:100D4000174A1B68136001222021154802F066FF34
:100D50000120FFF75FFC01221021114802F05EFF25
:100D60000120FFF757FC09E0FB790133FB71FB79A8
:100D7000FA2B03D9FFF7ACFF01230CE02021084830
:100D800002F034FF0346002BEED10022102104486C
:100D900002F044FF002318460837BD4680BD00BF5F
:100DA000001C024080B500AF00221021124802F062
:100DB00035FF114B1B68104A23F4406313600E4B40
:100DC0001B680D4A43F480631360002220210A4807
:100DD00002F024FF0220FFF71DFC0122102106482B
:100DE00002F01CFF0220FFF715FC00221021024830
:100DF00002F014FF00BF80BD001C024080B500AFB0
:100E000000221021124802F009FF114B1B68104A02
:100E100023F4406313600E4B1B680D4A43F4806358
:100E20001360012220210A4802F0F8FE0220FFF799
:100E3000F1FB01221021064802F0F0FE0220FFF72C
:100E4000E9FB00221021024802F0E8FE00BF80BD4D
:100E5000001C024080B584B000AF0346FB71224BFA
:100E60001B68214A23F4406313601F4B1B681E4A12
:100E700043F480631360002210211B4802F0CEFE71
:100E80000023FB7327E097F90730002B05DA0122D6
:100E90002021154802F0C2FE04E000222021124861
:100EA00002F0BCFEFB795B00FB710220FFF7B2FB96
:100EB000012210210C4802F0B1FE0220FFF7AAFB2C
:100EC00000221021084802F0A9FE0220FFF7A2FB31
:100ED000FB7B0133FB73FB7B072BD4D900BF00BF27
:100EE0001037BD4680BD00BF001C024080B584B0F5
:100EF00000AF0346FB710023BB731E4B1B681D4AEA
:100F000023F4406313601B4B1A4A1B6813600023D1
:100F1000FB731FE000221021164802F07FFE022022
:100F2000FFF778FB01221021124802F077FEBB7B0D
:100F30005B00BB7320210F4802F058FE0346002BD4
:100F400002D0BB7B0133BB730120FFF763FBFB7B4C
:100F50000133FB73FB7B072BDCD9FB79002B02D120
:100F6000FFF74CFF01E0FFF71DFFBB7B1846103772
:100F7000BD4680BD001C024080B588B000AF002394
:100F8000FB77184B1B6B174A43F002031363154B97
:100F90001B6B03F002037B607B684FF48053BB60E4
:100FA0000023FB6001233B6103237B6107F10803FE
:100FB00019460D4802F06EFCFFF730FEFFF75CFEAD
:100FC0004020FFF747FFFFF7AFFE0346FB77FFF731
:100FD0007FFEFF2000F022F8FB7F18462037BD4639
:100FE00080BD00BF003802400004024080B582B0DE
:100FF00000AF0023FB71FFF73FFE4120FFF72AFF00
:10100000FFF792FE0020FFF771FF0346FB71FFF729
:101010005FFEFB7918460837BD4680BD80B582B0BB
:1010200000AF0346FB71FFF727FE4020FFF712FFDA
:10103000FFF77AFEFB791846FFF70CFFFFF774FE07
:10104000FFF746FE0A20FFF72FFB00BF0837BD461B
:1010500080BD80B584B000AF03460A46FB711346DD
:10106000BB71FFF7C3FF0346FB73BB79002B0CD1A9
:10107000FB79012202FA03F35BB2DB435AB297F920
:101080000F3013405BB2FB7309E0FB79012202FAD7
:1010900003F35AB297F90F3013435BB2FB73FB7B38
:1010A0001846FFF7BBFF00BF1037BD4680BD80B4B8
:1010B00085B000AF78607B68DB6FFB60FB6818462B
:1010C0001437BD465DF8047B7047000080B584B0DE
:1010D00000AFF860B9607A607B689BB21A46B96865
:1010E000074804F049FA00BF0548FFF7E0FF034650
:1010F000202BF9D17B6818461037BD4680BD00BF54
:10110000E822002080B582B000AF114B1B6C104A62
:1011100043F0805313640E4B1B6C03F080537B60D1
:101120007B680B4B5B6C0A4A43F480435364084B67
:101130005B6C03F480433B603B6800220F216FF03F
:10114000010000F025FD00BF0837BD4680BD00BF8F
:101150000038024080B58CB000AF78600023BB62DD
:1011600000237B622F4B5B6C2E4A43F400335364A5
:101170002C4B5B6C03F40033BB60BB6807F10C02C3
:1011800007F110031146184603F06EFA03F058FAFF
:1011900003465B00BB62BB6A234AA2FB03239B0C92
:1011A000013B7B62214B224A1A60204B40F2E7321E
:1011B000DA601E4A7B6A53601C4B00221A611B4B8B
:1011C00000229A60194B00229A61184803F0A6FE8B
:1011D000034687F82F3097F82F30002B1BD1134888
:1011E00003F0FEFE034687F82F3097F82F30002BD0
:1011F00011D1192000F0E8FC7B680F2B08D80022E1
:101200007968192000F0C4FC0A4A7B68136002E088
:10121000012387F82F3097F82F3018463037BD4616
:1012200080BD00BF0038024083DE1B4398220020AF
:10123000004401400400002080B400AFFEE780B409
:1012400000AFFEE780B400AFFEE780B400AFFEE77A
:1012500080B400AFFEE780B400AF00BFBD465DF8CC
:10126000047B704780B500AF082002F0F1FC00BF9E
:1012700080BD000080B500AF024803F029FF00BF29
:1012800080BD00BF9822002080B500AF024804F066
:10129000EFF900BF80BD00BFE822002080B500AF9D
:1012A000024800F03FFE00BF80BD00BFD0230020F9
:1012B00080B500AF024801F019FC00BF80BD00BF3F
:1012C000146E002080B500AF024800F02BFE00BF76
:1012D00080BD00BF7023002080B400AF01231846FA
:1012E000BD465DF8047B704780B483B000AF786082
:1012F0003960054B16221A604FF0FF3318460C3741
:10130000BD465DF8047B7047683A022080B582B024
:1013100000AF78604FF0FF317868FFF7E5FFFEE738
:1013200080B586B000AFF860B9607A6000237B6159
:101330000AE0AFF300800146BB685A1CBA60CAB22B
:101340001A707B6901337B617A697B689A42F0DBB2
:101350007B6818461837BD4680BD80B483B000AFA7
:1013600078604FF0FF3318460C37BD465DF8047BBC
:10137000704780B483B000AF786039603B684FF449
:1013800000525A60002318460C37BD465DF8047BB6
:10139000704780B483B000AF7860012318460C37E3
:1013A000BD465DF8047B704780B485B000AFF8603F
:1013B000B9607A60002318461437BD465DF8047B97
:1013C0007047000080B487B000AF7860144A154BB6
:1013D000D31A7B617B693B61134B1B68002B02D1E5
:1013E000114B124A1A60104B1A687B6813443A6911
:1013F0009A4205D20E4B0C221A604FF0FF3309E0DF
:10140000094B1B68FB60084B1A687B681344064A4B
:101410001360FB6818461C37BD465DF8047B7047B7
:101420000000082000200000E4220020783A02207A
:10143000683A022080B400AF064BD3F88830054AE2
:1014400043F47003C2F8883000BFBD465DF8047BEA
:10145000704700BF00ED00E080B500AF144B154AA7
:101460001A60134B4FF4E1325A60114B00229A601C
:101470000F4B0022DA600E4B00221A610C4B0C223B
:101480005A610B4B00229A61094B0022DA61084B2A
:1014900000221A62064B00225A62054804F01EF828
:1014A0000346002B01D0FFF7B3FB00BF80BD00BF98
:1014B000E82200200010014080B5AEB000AF786097
:1014C00007F1A40300221A605A609A60DA601A6178
:1014D00007F1140390220021184613F007FB7B68E4
:1014E0001B68544A934240F0A08040237B61012353
:1014F000BB6507F11403184603F0E8F80346002B18
:1015000001D0FFF785FB4C4B5B6C4B4A43F010035B
:101510005364494B5B6C03F010033B613B69464BE2
:101520001B6B454A43F001031363434B1B6B03F0F2
:101530000103FB60FB684FF4C063C7F8A4300223CB
:10154000C7F8A8300023C7F8AC300323C7F8B03081
:101550000723C7F8B43007F1A4031946374802F04F
:1015600099F9374B374A1A60354B4FF000625A6091
:10157000334B40229A60324B0022DA60304B4FF4FA
:1015800080621A612E4B00225A612D4B00229A6113
:101590002B4B0022DA612A4B00221A62284B0022D0
:1015A0005A62274800F01EFB0346002B01D0FFF7CC
:1015B0002FFB7B68224A1A67214A7B689363224B80
:1015C000224A1A60204B4FF000625A601E4B0022E4
:1015D0009A601D4B0022DA601B4B4FF480621A6147
:1015E000194B00225A61184B00229A61164B0022B7
:1015F000DA61154B00221A62134B00225A6212481C
:1016000000F0F0FA0346002B01D0FFF701FB7B68E6
:101610000D4A5A670C4A7B689363002205212520F6
:1016200000F0B6FA252000F0CFFA00BFB837BD466B
:1016300080BD00BF001001400038024000000240A1
:1016400070230020B8640240D02300204064024090
:10165000DFF834D00D480E490E4A002302E0D4587A
:10166000C4500433C4188C42F9D30B4A0B4C0023EA
:1016700001E013600432A242FBD3FFF7DBFE13F05C
:10168000D9FAFFF70DFA704700000820000000208B
:101690008C00002084860508CC010020783A0220C6
:1016A000FEE780B483B000AF786039607B68002BC0
:1016B0000BD03B68DB68002B07D03B689B68002B96
:1016C00003D03B681B69002B02D14FF0FF3314E0BD
:1016D0003B681A687B689A603B685A687B68DA6086
:1016E0003B68DA687B685A613B689A687B681A6174
:1016F0003B681A697B689A61002318460C37BD461F
:101700005DF8047B704780B586B000AF7860002339
:10171000FB600023BB6000237B6100233B617B688F
:101720005B68002B7CD17B689B68002B02D07B68B8
:101730009B6898477B6820221A6000237B611CE02D
:101740007B685B6907F108021221786998470346B4
:10175000002B03DA6FF004033B610BE0BB6803F07E
:101760001F037A699A4205D17B687A691A6000235F
:101770003B6105E07B6901337B617B691F2BDFD90E
:101780007B681B681F2B02D96FF002033B613B692A
:10179000002B45D17B681B697A6810684FF40042C2
:1017A000002198470346002B37DB7B685B697A682A
:1017B000106807F10802002198470346002B28DB38
:1017C0007B689B6998470346FB601CE07B689B69CC
:1017D000984703461A46FB68D31AB3F5FA7F0ED82A
:1017E0007B685B697A68106807F1080200219847F6
:1017F0000346002B07DA6FF004033B6110E06FF043
:1018000001033B610CE0BB6803F40043002BDDD116
:1018100006E06FF004033B6102E06FF003033B61FD
:101820003B69002B12D17B689B6998470346FB609C
:1018300000BF7B689B69984703461A46FB68D31A2A
:10184000B3F5FA6FF5D97B6801225A603B691846F7
:101850001837BD4680BD80B584B000AF78600023E6
:10186000FB607B685B697A68106807F10C020121F4
:1018700098470346002B02DA6FF004036EE07B68A2
:101880005B697A68106807F10C02012198470346EA
:10189000002B02DA6FF0040360E0FB6803F004033E
:1018A000002B01D1012359E07B685B697A681068DD
:1018B00007F10C02002198470346002B02DA6FF073
:1018C00004034BE0FB6803F48053002B1BD1FB683F
:1018D00003F40053002B06D0FB6803F48073002B45
:1018E00001D002233AE0FB6803F40053002B01D03F
:1018F000032333E0FB6803F48073002B01D004233F
:101900002CE005232AE07B685B697A68106807F1A0
:101910000C021F2198470346002B02DA6FF00403E4
:101920001CE0FB6803F48053002B01D1062315E073
:10193000FB6803F01C03182B01D102230EE0FB68A7
:1019400003F01C03082B01D1032307E0FB6803F01D
:101950001C03142B01D1042300E005231846103783
:10196000BD4680BD80B500AF032000F006F90F2012
:10197000FFF7F0FBFFF7C6FB0023184680BD000011
:1019800080B400AF064B1B781A46064B1B68134405
:10199000044A136000BFBD465DF8047B704700BF7A
:1019A000080000203024002080B400AF034B1B68E7
:1019B0001846BD465DF8047B704700BF3024002008
:1019C00080B584B000AF7860FFF7EEFFB8607B6849
:1019D000FB60FB68B3F1FF3F05D00A4B1B781A464A
:1019E000FB681344FB6000BFFFF7DEFF0246BB68E5
:1019F000D31AFA689A42F7D800BF00BF1037BD4625
:101A000080BD00BF0800002080B400AF034B1B68FE
:101A10001B0C1846BD465DF8047B7047002004E0AF
:101A200080B485B000AF78607B6803F00703FB608B
:101A30000B4BDB68BB60BA684FF6FF031340BB601B
:101A4000FB681A02BB681A43064B1343BB60044A87
:101A5000BB68D36000BF1437BD465DF8047B704798
:101A600000ED00E00000FA0580B400AF044BDB6835
:101A70001B0A03F007031846BD465DF8047B704758
:101A800000ED00E080B483B000AF0346FB7197F92E
:101A90000730002B0BDBFB7903F01F02074997F996
:101AA00007305B09012000FA02F241F8232000BF51
:101AB0000C37BD465DF8047B704700BF00E100E0D5
:101AC00080B483B000AF03463960FB7197F90730EB
:101AD000002B0ADB3B68DAB20C4997F90730120198
:101AE000D2B20B4483F800230AE03B68DAB208491B
:101AF000FB7903F00F03043B1201D2B20B441A76B8
:101B000000BF0C37BD465DF8047B704700E100E084
:101B100000ED00E080B489B000AFF860B9607A6091
:101B2000FB6803F00703FB61FB69C3F10703042BA8
:101B300028BF0423BB61FB690433062B02D9FB6970
:101B4000033B00E000237B614FF0FF32BB6902FAE8
:101B500003F3DA43BB681A407B699A404FF0FF31C8
:101B60007B6901FA03F3D9437B680B4013431846A2
:101B70002437BD465DF8047B704780B582B000AF66
:101B800078607868FFF74CFF00BF0837BD4680BD1E
:101B900080B586B000AF0346B9607A60FB7300235E
:101BA0007B61FFF761FF78617A68B9687869FFF750
:101BB000B1FF024697F90F3011461846FFF780FF34
:101BC00000BF1837BD4680BD80B582B000AF034668
:101BD000FB7197F907301846FFF754FF00BF08372D
:101BE000BD4680BD80B586B000AF786000237B61C4
:101BF000FFF7DAFE38617B68002B01D1012399E001
:101C00007B68022283F835207B68002283F8342029
:101C10007B681B681A687B681B6822F001021A60E7
:101C20000FE0FFF7C1FE02463B69D31A052B08D926
:101C30007B6820225A657B68032283F835200323C2
:101C400078E07B681B681B6803F00103002BE8D178
:101C50007B681B681B687B617A69384B13407B612A
:101C60007B685A687B689B681A437B68DB681A4309
:101C70007B681B691A437B685B691A437B689B69B5
:101C80001A437B68DB691A437B681B6A13437A69D2
:101C900013437B617B685B6A042B07D17B68DA6A3C
:101CA0007B681B6B13437A6913437B617B681B68FA
:101CB0007A691A607B681B685B697B617B6923F0CA
:101CC00007037B617B685B6A7A6913437B617B688E
:101CD0005B6A042B17D17B689B6A7A6913437B612B
:101CE0007B68DB6A002B0ED0786800F009FB0346A6
:101CF000002B08D07B6840225A657B68012283F85C
:101D00003520012316E07B681B687A695A61786880
:101D100000F0C0FA0346FB607B68DB6D3F229A400F
:101D2000FB689A607B6800225A657B68012283F811
:101D30003520002318461837BD4680BD3F8010E08F
:101D400080B586B000AFF860B9607A603B60002370
:101D5000FB75FB689B6D3B61FB6893F83430012B8E
:101D600001D1022348E0FB68012283F83420FB689C
:101D700093F83530DBB2012B37D1FB68022283F8B0
:101D80003520FB6800225A653B687A68B968F868B4
:101D900000F052FAFB68DB6D3F229A403B699A6083
:101DA000FB681B681A68FB681B6842F016021A6021
:101DB000FB681B685A69FB681B6842F080025A6125
:101DC000FB681B6C002B07D0FB681B681A68FB685C
:101DD0001B6842F008021A60FB681B681A68FB68FF
:101DE0001B6842F001021A6005E0FB68002283F8DC
:101DF00034200223FB75FB7D18461837BD4680BD95
:101E000080B584B000AF78607B689B6DFB60FFF7A6
:101E1000CBFDB8607B6893F83530DBB2022B08D07D
:101E20007B6880225A657B68002283F83420012376
:101E300052E07B681B681A687B681B6822F01602F8
:101E40001A607B681B685A697B681B6822F08002F5
:101E50005A617B681B6C002B03D17B689B6C002B49
:101E600007D07B681B681A687B681B6822F0080231
:101E70001A607B681B681A687B681B6822F0010285
:101E80001A6013E0FFF790FD0246BB68D31A052BDA
:101E90000CD97B6820225A657B68032283F83520A1
:101EA0007B68002283F83420032315E07B681B68DD
:101EB0001B6803F00103002BE4D17B68DB6D3F223C
:101EC0009A40FB689A607B68012283F835207B6822
:101ED000002283F83420002318461037BD4680BD09
:101EE00080B483B000AF78607B6893F83530DBB2A4
:101EF000022B04D07B6880225A6501230CE07B68AA
:101F0000052283F835207B681B681A687B681B688C
:101F100022F001021A60002318460C37BD465DF816
:101F2000047B704780B586B000AF78600023BB604B
:101F30008E4B1B688E4AA2FB03239B0A7B617B6846
:101F40009B6D3B613B691B68FB607B68DB6D082216
:101F50009A40FB681340002B1AD07B681B681B68F3
:101F600003F00403002B13D07B681B681A687B689E
:101F70001B6822F004021A607B68DB6D08229A401D
:101F80003B699A607B685B6D43F001027B685A6530
:101F90007B68DB6D01229A40FB681340002B12D056
:101FA0007B681B685B6903F08003002B0BD07B68A8
:101FB000DB6D01229A403B699A607B685B6D43F060
:101FC00002027B685A657B68DB6D04229A40FB68DD
:101FD0001340002B12D07B681B681B6803F00203C0
:101FE000002B0BD07B68DB6D04229A403B699A6022
:101FF0007B685B6D43F004027B685A657B68DB6D30
:1020000010229A40FB681340002B43D07B681B686A
:102010001B6803F00803002B3CD07B68DB6D1022AB
:102020009A403B699A607B681B681B6803F48023B5
:10203000002B18D07B681B681B6803F40023002B5F
:1020400008D17B681B6C002B24D07B681B6C7868E4
:1020500098471FE07B689B6C002B1BD07B689B6CB8
:102060007868984716E07B681B681B6803F48073E8
:10207000002B07D17B681B681A687B681B6822F0FD
:1020800008021A607B681B6C002B03D07B681B6CFA
:10209000786898477B68DB6D20229A40FB68134084
:1020A000002B00F08F807B681B681B6803F0100317
:1020B000002B00F087807B68DB6D20229A403B6913
:1020C0009A607B6893F83530DBB2052B36D17B689C
:1020D0001B681A687B681B6822F016021A607B680E
:1020E0001B685A697B681B6822F080025A617B6812
:1020F0001B6C002B03D17B689B6C002B07D07B688B
:102100001B681A687B681B6822F008021A607B68EB
:10211000DB6D3F229A403B699A607B68012283F81D
:1021200035207B68002283F834207B681B6D002BF0
:102130007ED07B681B6D7868984779E07B681B6868
:102140001B6803F48023002B1DD07B681B681B6871
:1021500003F40023002B0DD17B685B6C002B31D086
:102160007B685B6C786898472CE000BF000000201B
:10217000B5814E1B7B68DB6B002B23D07B68DB6B50
:10218000786898471EE07B681B681B6803F48073BF
:10219000002B0FD17B681B681A687B681B6822F0D4
:1021A00010021A607B68012283F835207B680022C8
:1021B00083F834207B68DB6B002B03D07B68DB6B00
:1021C000786898477B685B6D002B32D07B685B6DCD
:1021D00003F00103002B22D07B68052283F8352011
:1021E0007B681B681A687B681B6822F001021A6012
:1021F000BB680133BB607A699A4207D37B681B686E
:102200001B6803F00103002BF2D100E000BF7B68E4
:10221000012283F835207B68002283F834207B6814
:10222000DB6C002B05D07B68DB6C7868984700E09E
:1022300000BF1837BD4680BD80B485B000AFF860E0
:10224000B9607A603B60FB681B681A68FB681B68B2
:1022500022F480221A60FB681B683A685A60FB68A7
:102260009B68402B08D1FB681B687A689A60FB6802
:102270001B68BA68DA6007E0FB681B68BA689A6096
:10228000FB681B687A68DA6000BF1437BD465DF8EA
:10229000047B704780B485B000AF78607B681B68B2
:1022A000DBB2103B134AA2FB03231B09FB60124A5B
:1022B000FB6813441B781A467B68DA65FB68032BBE
:1022C00008D97B681B681A460C4B13401A1D7B68A3
:1022D0009A6506E07B681B681A46084B13407A68CB
:1022E00093657B689B6D18461437BD465DF8047B8B
:1022F000704700BFABAAAAAA5484050800FCFFFFE0
:1023000080B485B000AF78600023FB737B689B6A64
:10231000BB607B689B69002B1FD1BB68032B56D821
:1023200001A252F823F000BF392304084B2304080C
:1023300039230408CF2304087B68DB6A03F0807329
:10234000002B46D00123FB7343E07B68DB6AB3F1CB
:10235000C07F40D10123FB733DE07B689B69B3F5EF
:10236000005F21D1BB68032B37D801A252F823F0BC
:10237000812304088723040881230408992304087F
:102380000123FB7330E07B68DB6A03F08073002B72
:1023900025D00123FB7322E07B68DB6AB3F1C07FA9
:1023A0001FD10123FB731CE0BB68022B03D9BB6860
:1023B000032B03D018E00123FB7315E07B68DB6A75
:1023C00003F08073002B0ED00123FB730BE000BFE2
:1023D0000AE000BF08E000BF06E000BF04E000BF65
:1023E00002E000BF00E000BFFB7B18461437BD468B
:1023F0005DF8047B704700BF80B584B000AF7860A3
:102400007B68002B01D101236AE07B68D3F884301C
:10241000002B06D17B682322C3F88420786804F05F
:10242000FDFD314B5B6C304A43F4804353642E4BCB
:102430005B6C03F48043BB60BB682C4B5B682B4A2E
:1024400023F400035360294B5A687B689B68274933
:1024500013434B60254B5B687B681B6803F5805317
:102460001B687A68126843F0010302F5805213601A
:10247000FFF79AFAF86011E0FFF796FA0246FB6858
:10248000D31AB3F5FA7F09D97B680422C3F88820F0
:102490007B68E022C3F88420012321E07B681B686D
:1024A00003F580531B6803F00103002BE4D1786827
:1024B00000F04CFF786800F0F3FF786801F049F80D
:1024C0007B685B681A460021786800F0B1FF7B6882
:1024D0000022C3F888207B681022C3F884200023E0
:1024E00018461037BD4680BD003802400038014014
:1024F00080B584B000AF78607B68D3F88430102B4F
:102500007BD17B682322C3F884207B6801229A65F3
:102510007B681B68DA6B7B681B6842F40272DA63C3
:102520007B681B68D3F80C117B681A68354B0B432A
:10253000C2F80C317B681B68D3F810217B681B68DC
:1025400042F40312C3F810217B680422DA6678682B
:1025500000F0FCF97B681B681A687B681B6842F016
:1025600008021A607B681B681B68FB600120FFF78C
:1025700027FA7B681B68FA681A607B681B681A6810
:102580007B681B6842F004021A607B681B681B684A
:10259000FB600120FFF714FA7B681B68FA681A6079
:1025A000786800F074FD7B681B6803F580539B69B5
:1025B0007A68126843F4005302F5805293617B6895
:1025C0001B6803F580539B697A68126843F0020325
:1025D00002F5805293617B681B6803F58053D969CB
:1025E0007B681A68084B0B4302F58052D3617B6805
:1025F0002322C3F88420002300E00123184610376B
:10260000BD4680BD60000200C1A0010080B586B05B
:1026100000AF78607B68D3F88430232B6ED17B6861
:102620002322C3F884207B681B6803F58053D96993
:102630007B681A68344B0B4002F58052D3617B688B
:102640001B6803F580539B697A68126823F4005372
:1026500002F5805293617B681B6803F580539B6988
:102660007A68126823F0020302F5805293617B6856
:102670001B681A687B681B6822F004021A607B687A
:102680001B681B683B610120FFF79AF97B681B6898
:102690003A691A60786800F0FAFC7B681B681A686F
:1026A0007B681B6822F008021A607B681B681B6845
:1026B0003B610120FFF784F97B681B683A691A6067
:1026C00000237B610EE07B687A69123253F8223076
:1026D000FB60FB685B6843F00042FB685A607B6903
:1026E00001337B617B69032BEDD97B6800229A65FE
:1026F0007B681022C3F88420002300E001231846E1
:102700001837BD4680BD00BF3E5FFEFF80B582B07A
:1027100000AF786039603B68002B09D17B68D3F843
:10272000883043F001027B68C3F88820012345E02C
:102730007B68D3F88430232B3FD13B685A6B7B688E
:10274000DA6301223968786800F070FF0346002BD5
:1027500009D07B68D3F8883043F002027B68C3F865
:10276000882001232AE0BFF34F8F00BF7B689B6A5C
:102770005A1C7B689A627B689B6A032B04D97B682E
:102780009B6A1A1F7B689A627B681B6803F58053FB
:102790005B6903F00403002B0DD07B681B6803F515
:1027A00080531A46042353617B681B6803F58053EA
:1027B0001A4600235360002300E00123184608371F
:1027C000BD4680BD80B588B000AF78603960002319
:1027D0007B610023FB733B68002B09D17B68D3F836
:1027E000883043F001027B68C3F888200123A8E009
:1027F0007B68D3F88430232B01D00123A1E07B68D0
:10280000DB6DFB617B68FA69123253F82230BB61E1
:102810007B68DB6EC3F10403BB606AE0BB691B68C5
:1028200003F48073002B07D0BB699A697B689A67B1
:10283000BB69DA697B685A67BB691B6803F400737C
:10284000002B03D17B68DB6F002B40D0BB691B687A
:1028500003F40073002B05D07B6800221A667B68A6
:1028600000225A667B685B693B61BB691B6803F4A5
:102870008073002B0CD0BB691B681B0CC3F30D03CA
:10288000043B3B61BB691A687B681A670123FB73D1
:10289000BB699A68BB691A627B6803F17C007B683C
:1028A00003F18001BB691B6A1A463B699BB204F0C5
:1028B00081FD7B681B6E5A1C7B681A667B685A6EAA
:1028C0003B691A447B685A66BB6900221A62FB693D
:1028D0000133FB61FB69032B02D9FB69043BFB61FC
:1028E0007B68FA69123253F82230BB617B6901338D
:1028F0007B61BB691B68002B06DB7A69BB689A4267
:1029000002D2FB7B002B89D07B68DA6E7B691A448C
:102910007B68DA667B68DB6E002B02D0786800F09B
:1029200015F87B68FA69DA65FB7B012B08D17B68B7
:10293000DA6F3B681A607B680022DA67002300E0E8
:10294000012318462037BD4680BD000080B588B001
:1029500000AF78600023FB600123FB747B689B6EF3
:10296000FB617B68FA69123253F822307B617B6825
:10297000DB6EBB6140E07B691B6A002B12D107F163
:102980000C03184604F0E6FCFB68002B02D1002380
:10299000FB7407E0FB681A467B691A62FB681A46FB
:1029A0007B699A60FB7C002B26D07B689B6D002B9B
:1029B00003D17B691E4A5A6003E07B694FF48C4265
:1029C0005A60BFF35F8F00BF7B691B6843F0004212
:1029D0007B691A60FB690133FB61FB69032B02D938
:1029E000FB69043BFB617B68FA69123253F82230C1
:1029F0007B61BB69013BBB61BB69002B02D0FB7CE7
:102A0000002BB8D17B68DB6EBA699A420CD07B6828
:102A10001B6803F580531A46002393607B68FA69AC
:102A20009A667B68BA69DA6600BF2037BD4680BD0A
:102A30000046008080B586B000AF78607B681833B0
:102A4000BB60BB689B6A7B61BB68DB6A3B6101233F
:102A5000FB733FE00123BB737B69013B7B61BA6879
:102A60003B6904339B0013445B68002B06D13B6930
:102A7000013303F003033B610023BB73BB7B002BDB
:102A800028D07B68D9683A6913469B001344DB0061
:102A90000B441B68002B1BDBBA683B6904339B00AB
:102AA00013445B68184604F0C7FCBA683B690433FA
:102AB0009B00134400225A603B69013303F0030377
:102AC0003B61BB687A699A62BB683A69DA6201E085
:102AD0000023FB737B69002B02D0FB7B002BB9D159
:102AE000002318461837BD4680BD000080B582B06F
:102AF00000AF78607B681B6803F580535B6903F067
:102B00004003402B12D17B681B6803F58053DB69BF
:102B100003F04003402B09D17B681B6803F5805309
:102B20001A46504B5361786803F0A8FF7B681B6816
:102B300003F580535B6903F00103012B13D17B681C
:102B40001B6803F58053DB6903F00103012B0AD1F5
:102B50007B681B6803F580531A464FF001135361DD
:102B6000786803F09BFF7B681B6803F580535B6903
:102B700003F40043B3F5004F4CD17B681B6803F5A9
:102B80008053DB6903F40043B3F5004F42D17B6807
:102B9000D3F8883043F008027B68C3F888207B684C
:102BA0001B6803F580535B6903F40053B3F5005FC2
:102BB0001AD17B681B6803F580535A692A4B13406E
:102BC0007A68C2F88C307B681B6803F58053DB6938
:102BD0007A68126823F4C03302F58052D3617B68AF
:102BE000E022C3F8842012E07B681B6803F5805361
:102BF0005A6948F2806313407A68C2F88C307B6867
:102C00001B6803F580531A4648F280635361786865
:102C100003F054FF7B681B689B6B03F00803082BD1
:102C20000ED17B681B68DB6A03F060027B68C3F827
:102C30009420786800F01CF87B680022C3F8942088
:102C40000A4B5B6903F40023002B06D0074B4FF4BB
:102C500000225A61786800F015F800BF0837BD46B9
:102C600080BD00BF4000010000207E00003C01400C
:102C700080B483B000AF786000BF0C37BD465DF80C
:102C8000047B704780B483B000AF786000BF0C371E
:102C9000BD465DF8047B704780B586B000AFF86034
:102CA000B9607A603B60FB681B681B697B617B696C
:102CB00003F01C037B61BB68DB029BB27A691343A0
:102CC0007B617B689B0103F4F8637A6913437B6142
:102CD0007B6923F002037B617B6943F001037B6125
:102CE000FB681B687A691A61FEF75EFE38610DE0C9
:102CF000FEF75AFE02463B69D31AB3F5803F01D373
:102D0000012310E0FB681B681B697B617B6903F092
:102D10000103002BECD1FB681B685B699BB21A4670
:102D20003B681A60002318461837BD4680BD80B541
:102D300086B000AFF860B9607A603B60FB681B68E2
:102D40001B697B617B6903F01C037B61BB68DB0251
:102D50009BB27A6913437B617B689B0103F4F86340
:102D60007A6913437B617B6943F002037B617B6972
:102D700043F001037B613B689AB2FB681B685A61B0
:102D8000FB681B687A691A61FEF70EFE38610DE078
:102D9000FEF70AFE02463B69D31AB3F5803F01D322
:102DA000012309E0FB681B681B697B617B6903F0F9
:102DB0000103002BECD1002318461837BD4680BD17
:102DC00080B483B000AF786039603B68002B01D1DC
:102DD0000123D9E07B681B681B6803F01003002BFC
:102DE00014BF01230023DBB21A463B6883F8282076
:102DF0007B681B681B6803F060023B685A627B6853
:102E00001B681B6803F40073002B0CBF0123002315
:102E1000DBB21A463B6883F820207B681B681B687E
:102E200003F48033002B14BF01230023DBB21A46C6
:102E30003B68DA777B681B681B6803F40053002B40
:102E40000CBF01230023DBB21A463B689A777B68EC
:102E50001B681B6803F48053002B14BF012300235D
:102E6000DBB21A463B681A777B681B681B6803F461
:102E700000623B689A617B681B681B6803F48042B0
:102E80003B685A617B681B681B6803F48003002B56
:102E90000CBF01230023DBB21A463B685A747B68DF
:102EA0001B681B6803F40003002B0CBF01230023E5
:102EB000DBB21A463B681A747B681B681B6803F018
:102EC0008003002B14BF01230023DBB21A463B68AA
:102ED000DA737B681B681B6803F460223B689A60A6
:102EE0007B681B681B6803F48063002B14BF0123FD
:102EF0000023DBB21A463B681A717B681B689B692A
:102F000003F00203002B14BF01230023DBB21A4697
:102F10003B6883F854207B681B689B6903F080033F
:102F2000002B0CBF01230023DBB21A463B6883F859
:102F30004C207B681B689B6903F030023B681A6574
:102F40007B681B689B691B0C9AB23B689A647B6820
:102F50001B689B6903F00403002B14BF01230023AB
:102F6000DBB21A463B6883F856207B681B689B6976
:102F700003F00803002B14BF01230023DBB21A4621
:102F80003B6883F85520002318460C37BD465DF892
:102F9000047B704780B582B000AF786039603B68D1
:102FA000002B01D101230BE07B68D3F88430102B78
:102FB00005D13968786800F08FF8002300E001231C
:102FC00018460837BD4680BD80B584B000AF786034
:102FD0007B681B681B69FB60FB6823F01C03FB60BC
:102FE00001F00EFBB860BB681D4A934208D9BB686C
:102FF0001C4A934204D8FB6843F00803FB6027E0B7
:10300000BB68184A934208D9BB68174A934204D256
:10301000FB6843F00C03FB601AE0BB68124A934262
:1030200003D3BB68114A934211D9BB680F4A93423C
:1030300008D9BB680E4A934204D8FB6843F00403E6
:10304000FB6005E0FB6843F01003FB6000E000BF9D
:103050007B681B68FA681A6100BF1037BD4680BDE7
:10306000FF2C3101BF0E160200879303FFE0F50528
:103070007FD1F00880B483B000AF78607B68D3F86C
:103080008C3018460C37BD465DF8047B704780B520
:1030900084B000AF78600023FB607B681B6803F599
:1030A00080539B697A68126843F4801302F580525A
:1030B00093617B681B6803F580539B69FB6001206B
:1030C000FEF77EFC7B681A68FB6802F5805293610C
:1030D00000BF1037BD4680BD80B584B000AF7860BA
:1030E00039607B681B681B68FB60FA68514B1340B2
:1030F000FB603B681B7C002B02D14FF4000200E018
:1031000000223B685B7C002B02D14FF4800300E07F
:1031100000231A433B689B681A433B68DB7F1B0410
:103120001A433B685B6913433A68927F002A02D1D5
:103130004FF4005200E000221A433B681B7F1B0340
:103140001A433B689B691A433B681B799B021343F4
:103150003A6892F82020002A02D14FF4007200E071
:1031600000221A433B68DB7BDB011A433B685B6A46
:103170001A433B6893F828301B011343FA68134342
:10318000FB607B681B68FA681A607B681B681B68B9
:10319000FB600120FEF714FC7B681B68FA681A606C
:1031A0007B681B689B69FB60FA684FF641731340AC
:1031B000FB603B689B6C1B043A6892F84C20002A29
:1031C00001D1802200E000221A433B681B6D1343AB
:1031D0003A6892F85520012A01D1082200E0002225
:1031E00013433A6892F85620012A01D1042200E0E4
:1031F000002213433A6892F85420012A01D1022296
:1032000000E000221343FA681343FB607B681B68ED
:10321000FA689A617B681B689B69FB600120FEF776
:10322000CFFB7B681B68FA689A6100BF1037BD4608
:1032300080BD00BF0F8120FF80B584B000AF7860F3
:1032400039607B681B6803F580539B69FB60FA68F3
:103250003D4B1340FB603B681B7B002B02D14FF0C2
:10326000806200E000223B685B7B5B0613433A68A8
:10327000527F002A02D14FF4801200E000221A434C
:103280003B689B7B5B051A433B685B691A433B6861
:103290001B7FDB011A433B689B7F9B011A433B6802
:1032A0001B6A1A433B6893F824309B001343FA6867
:1032B0001343FB607B681B6803F580531A46FB6869
:1032C00093617B681B6803F580539B69FB60012059
:1032D000FEF776FB7B681B6803F580531A46FB6894
:1032E00093613B681B795A063B689B681A433B68AD
:1032F0009B691A433B681B691A433B6893F8253066
:10330000DB011A433B689B6A9B001A433B681B68BE
:1033100013437A68126843F4000302F58052136085
:103320007B681B6803F580531B68FB600120FEF778
:1033300047FB7B681B6803F580531A46FB681360E4
:1033400000BF1037BD4680BD233FDEF880B5A6B074
:1033500000AF7860012387F84430012387F84530B7
:103360000023FB63002387F85330012387F8523092
:10337000002387F85030012387F83830002387F87E
:103380005430002387F843300023BB65002387F8BF
:103390005C300023FB67002387F880300023C7F8E8
:1033A0008430002387F88A30002387F888304FF470
:1033B0008043BB644FF40063FB64002387F88930CB
:1033C00007F1340319467868FFF786FE01233B7541
:1033D00001237B75012387F825300123BB7500236A
:1033E000FB61002387F82430002387F82630002370
:1033F000BB62012387F82C3001233B734FF48033E9
:103400003B614FF480033B624FF40053BB610123E7
:1034100087F82D3000233B630023BB6007F10803CE
:1034200019467868FFF708FF00BF9837BD4680BD92
:1034300080B487B000AFF860B9607A607B6805330C
:103440001B781B027A680432127813437B61BA68D6
:10345000114B13441A467B6913607B6803331B7856
:103460001A067B6802331B781B041A437B680133FE
:103470001B781B0213437A68127813437B61BA6886
:10348000064B13441A467B69136000BF1C37BD46C8
:103490005DF8047B704700BF4080024044800240DA
:1034A00080B485B000AF78600023FB603EE07B68AD
:1034B000D968FA6813469B001344DB000B44BB60D9
:1034C000BB6800221A60BB6800225A60BB680022F9
:1034D0009A60BB680022DA60B9687B68FA680632D5
:1034E00043F82210BB681B6843F48012BB681A6063
:1034F000FB68022B0CD87B68D968FB685A1C134602
:103500009B001344DB000B441A46BB68DA6004E0FE
:103510007B68DB681A46BB68DA60BB681B6843F4EB
:103520004002BB681A60FB680133FB60FB68032B39
:10353000BDD97B6800229A627B68DA687B681B6869
:1035400003F580531A6100BF1437BD465DF8047B54
:10355000704780B485B000AF78600023FB6046E020
:103560007B681969FA6813469B001344DB000B441F
:10357000BB60BB6800221A60BB6800225A60BB684F
:1035800000229A60BB680022DA60BB6800221A62DF
:10359000BB6800225A62BB684FF000421A60BB68E9
:1035A0004FF48C425A60BB685B6823F00042BB68F2
:1035B0005A60B9687B68FA68123243F82210FB68D7
:1035C000022B0CD87B681969FB685A1C13469B00B8
:1035D0001344DB000B441A46BB68DA6004E07B68E6
:1035E0001B691A46BB68DA60FB680133FB60FB6845
:1035F000032BB5D97B680022DA657B6800221A6646
:103600007B6800229A667B680022DA667B6800226B
:103610009A657B681A697B681B6803F58053DA60DA
:1036200000BF1437BD465DF8047B704780B48DB091
:1036300000AFF860B9607A60FB6818337B617B6922
:103640001B69FB627B691B693B6100237B627B69B1
:10365000FA6A53F822303B62BB689B68FB61002327
:10366000BB613B6A1B6803F00043B3F1004F07D016
:103670007A69FB6A04339B0013445B68002B01D01A
:103680000223FFE07B6A01337B62FB691B681A46F9
:103690003B6A9A603B6A5A687D4B1340FA695268EC
:1036A0001A433B6A5A60BB681B6803F00103002B96
:1036B00008D03B6A1B6823F44002BB685B691A436D
:1036C0003B6A1A60BB681B6803F02003002B08D01C
:1036D0003B6A1B6823F04062BB681B691A433B6A64
:1036E0001A60BB681B6803F00403002B05D03B6A1B
:1036F0001B6843F080023B6A1A603B6A1B6843F018
:1037000080523B6A1A60BFF35F8F00BF3B6A1B6841
:1037100043F000423B6A1A6082E03B6A1B6823F078
:1037200000523B6A1A607B68002B06D03B6A1B681C
:1037300043F080423B6A1A6005E03B6A1B6823F055
:1037400080423B6A1A60FB6A0133FB62FB6A032B0F
:1037500002D9FB6A043BFB627B69FA6A53F82230A8
:103760003B623B6A1B6823F080523B6A1A603B6AEB
:103770001B6803F00043B3F1004F07D07A69FB6A7E
:1037800004339B0013445B68002B29D03B69FB6228
:103790007B69FA6A53F822303B620023BB6219E06E
:1037A000BFF35F8F00BF3B6A1B6823F000423B6A98
:1037B0001A60FB6A0133FB62FB6A032B02D9FB6AC6
:1037C000043BFB627B69FA6A53F822303B62BB6AB6
:1037D0000133BB62BA6A7B6A9A42E1D3022351E0A9
:1037E0007B6A01337B62FB699B68FB61FB691B6839
:1037F0001A463B6A9A603B6A5A68254B1340FA693D
:1038000052681A433B6A5A60BB690133BB61BFF31C
:103810005F8F00BF3B6A1B6843F000423B6A1A603F
:10382000FB699B68002B7FF478AF7B68002B06D088
:103830003B6A1B6843F080423B6A1A6005E03B6AC2
:103840001B6823F080423B6A1A603B6A1B6843F0A6
:1038500000523B6A1A607B695A6A7969FB6A0433D1
:103860009B000B445A607B69FA6A1A6172B600BF0A
:103870007B699A6ABB6913445A1C7B699A6262B677
:1038800000BF002318463437BD465DF8047B7047FF
:1038900000E0FFFF80B489B000AF7860396000239A
:1038A000FB6100237B6100233B610023BB6100239C
:1038B000FB6175E10122FB6902FA03F37B613B685E
:1038C0001B687A6913403B613A697B699A4240F010
:1038D00064813B685B6803F00303012B05D03B6800
:1038E0005B6803F00303022B30D17B689B68BB61EC
:1038F000FB695B00032202FA03F3DB43BA6913405E
:10390000BB613B68DA68FB695B0002FA03F3BA69E2
:103910001343BB617B68BA699A607B685B68BB6173
:103920000122FB6902FA03F3DB43BA691340BB616E
:103930003B685B681B0903F00102FB6902FA03F3B1
:10394000BA691343BB617B68BA695A603B685B68BC
:1039500003F00303032B17D07B68DB68BB61FB69B3
:103960005B00032202FA03F3DB43BA691340BB6135
:103970003B689A68FB695B0002FA03F3BA69134378
:10398000BB617B68BA69DA603B685B6803F003037C
:10399000022B23D1FB69DA087B68083253F8223006
:1039A000BB61FB6903F007039B000F2202FA03F3DC
:1039B000DB43BA691340BB613B681A69FB6903F0DA
:1039C00007039B0002FA03F3BA691343BB61FB6967
:1039D000DA087B680832B96943F822107B681B68F3
:1039E000BB61FB695B00032202FA03F3DB43BA69A4
:1039F0001340BB613B685B6803F00302FB695B003B
:103A000002FA03F3BA691343BB617B68BA691A60AF
:103A10003B685B6803F44033002B00F0BE80664BCC
:103A20005B6C654A43F480435364634B5B6C03F403
:103A30008043FB60FB68614AFB699B08023352F8D4
:103A40002330BB61FB6903F003039B000F2202FAE2
:103A500003F3DB43BA691340BB617B68584A934266
:103A600037D07B68574A934231D07B68564A93429D
:103A70002BD07B68554A934225D07B68544A9342A9
:103A80001FD07B68534A934219D07B68524A9342B5
:103A900013D07B68514A93420DD07B68504A9342C1
:103AA00007D07B684F4A934201D1092312E00A23D1
:103AB00010E008230EE007230CE006230AE00523AC
:103AC00008E0042306E0032304E0022302E00123CC
:103AD00000E00023FA6902F0030292009340BA6901
:103AE0001343BB613549FB699B080233BA6941F84E
:103AF00023203D4B9B68BB613B69DB43BA691340A4
:103B0000BB613B685B6803F48013002B03D0BA6988
:103B10003B691343BB61344ABB699360324BDB683A
:103B2000BB613B69DB43BA691340BB613B685B68BF
:103B300003F40013002B03D0BA693B691343BB6144
:103B4000294ABB69D360284B5B68BB613B69DB4397
:103B5000BA691340BB613B685B6803F40033002B18
:103B600003D0BA693B691343BB611F4ABB69536009
:103B70001D4B1B68BB613B69DB43BA691340BB61EA
:103B80003B685B6803F48033002B03D0BA693B6960
:103B90001343BB61144ABB691360FB690133FB61CA
:103BA000FB690F2B7FF686AE00BF00BF2437BD46F2
:103BB0005DF8047B704700BF0038024000380140C8
:103BC000000002400004024000080240000C0240D5
:103BD000001002400014024000180240001C024085
:103BE0000020024000240240003C014080B485B027
:103BF00000AF78600B467B807B681A697B88134036
:103C0000002B02D00123FB7301E00023FB73FB7B3D
:103C100018461437BD465DF8047B704780B483B006
:103C200000AF78600B467B8013467B707B78002B5F
:103C300003D07A887B689A6103E07B881A047B68EA
:103C40009A6100BF0C37BD465DF8047B70470000E9
:103C500080B582B000AF0346FB80084B5A69FB88F1
:103C60001340002B06D0054AFB885361FB88184699
:103C7000FCF796FE00BF0837BD4680BD003C014002
:103C800080B400AF054B1B68044A43F48073136093
:103C900000BFBD465DF8047B704700BF0070004068
:103CA00080B582B000AF00237B60234B1B6C224A9F
:103CB00043F080531364204B1B6C03F080533B6034
:103CC0003B681E4B1B681D4A43F480331360FDF7AD
:103CD0006BFE786009E0FDF767FE02467B68D31A49
:103CE000B3F57A7F01D9032322E0144B5B6803F418
:103CF0008033B3F5803FEED1104B1B680F4A43F47D
:103D000000331360FDF750FE786009E0FDF74CFECC
:103D100002467B68D31AB3F57A7F01D9032307E003
:103D2000064B5B6803F40033B3F5003FEED100238C
:103D300018460837BD4680BD00380240007000407C
:103D400080B586B000AF78600023FB757B68002BE0
:103D500001D101239BE27B681B6803F00103002B68
:103D600000F08780964B9B6803F00C03042B0CD06B
:103D7000934B9B6803F00C03082B12D1904B5B68AC
:103D800003F48003B3F5800F0BD18D4B1B6803F454
:103D90000033002B6CD07B685B68002B68D101235B
:103DA00075E27B685B68B3F5803F06D1844B1B6886
:103DB000834A43F4803313602EE07B685B68002BFA
:103DC0000CD17F4B1B687E4A23F4803313607C4BFD
:103DD0001B687B4A23F4802313601DE07B685B68CB
:103DE000B3F5A02F0CD1764B1B68754A43F48023A2
:103DF0001360734B1B68724A43F4803313600BE00B
:103E00006F4B1B686E4A23F4803313606C4B1B6846
:103E10006B4A23F4802313607B685B68002B13D00C
:103E2000FDF7C2FD386108E0FDF7BEFD02463B69C3
:103E3000D31A642B01D9032329E2614B1B6803F4D5
:103E40000033002BF0D014E0FDF7AEFD386108E040
:103E5000FDF7AAFD02463B69D31A642B01D903235F
:103E600015E2574B1B6803F40033002BF0D100E040
:103E700000BF7B681B6803F00203002B69D0504B26
:103E80009B6803F00C03002B0BD04D4B9B6803F099
:103E90000C03082B1CD14A4B5B6803F48003002BF6
:103EA00016D1474B1B6803F00203002B05D07B683B
:103EB000DB68012B01D00123E9E1414B1B6823F0B2
:103EC000F8027B681B69DB003D4913430B6040E04F
:103ED0007B68DB68002B23D0394B1B68384A43F0E2
:103EE00001031360FDF760FD386108E0FDF75CFD3C
:103EF00002463B69D31A022B01D90323C7E1304B99
:103F00001B6803F00203002BF0D02D4B1B6823F03D
:103F1000F8027B681B69DB00294913430B6018E03A
:103F2000274B1B68264A23F001031360FDF73CFD75
:103F3000386108E0FDF738FD02463B69D31A022BD1
:103F400001D90323A3E11E4B1B6803F00203002BDE
:103F5000F0D17B681B6803F00803002B38D07B6826
:103F60005B69002B19D0164B5B6F154A43F00103B8
:103F70005367FDF719FD386108E0FDF715FD0246AE
:103F80003B69D31A022B01D9032380E10C4B5B6FF1
:103F900003F00203002BF0D01AE0094B5B6F084AD4
:103FA00023F001035367FDF7FFFC38610AE0FDF7DA
:103FB000FBFC02463B69D31A022B03D9032366E1BB
:103FC00000380240924B5B6F03F00203002BEED1EE
:103FD0007B681B6803F00403002B00F0A4808C4B6B
:103FE0001B6C03F08053002B0DD1894B1B6C884A4E
:103FF00043F080531364864B1B6C03F08053BB600B
:10400000BB680123FB75834B1B6803F48073002B93
:1040100018D1804B1B687F4A43F480731360FDF70F
:10402000C3FC386108E0FDF7BFFC02463B69D31AC8
:10403000642B01D903232AE1764B1B6803F48073B8
:10404000002BF0D07B689B68012B06D1704B1B6F57
:104050006F4A43F0010313672DE07B689B68002BD8
:104060000CD16B4B1B6F6A4A23F001031367684B3B
:104070001B6F674A23F0040313671CE07B689B688F
:10408000052B0CD1624B1B6F614A43F0040313678D
:104090005F4B1B6F5E4A43F0010313670BE05C4B01
:1040A0001B6F5B4A23F001031367594B1B6F584A80
:1040B00023F0040313677B689B68002B15D0FDF782
:1040C00073FC38610AE0FDF76FFC02463B69D31AC6
:1040D00041F28832934201D90323D8E04C4B1B6F45
:1040E00003F00203002BEED014E0FDF75DFC386115
:1040F0000AE0FDF759FC02463B69D31A41F28832C7
:10410000934201D90323C2E0414B1B6F03F002032A
:10411000002BEED1FB7D012B05D13D4B1B6C3C4AA6
:1041200023F0805313647B689B69002B00F0AE8002
:10413000374B9B6803F00C03082B6DD07B689B69A1
:10414000022B4BD1324B1B68314A23F08073136032
:10415000FDF72AFC386108E0FDF726FC02463B69C2
:10416000D31A022B01D9032391E0294B1B6803F0DA
:104170000073002BF0D17B68DA697B681B6A1A43F5
:104180007B685B6A9B011A437B689B6A5B08013B07
:104190001B041A437B68DB6A1B061A437B681B6B94
:1041A0001B071B4913434B60194B1B68184A43F00C
:1041B00080731360FDF7F8FB386108E0FDF7F4FB4E
:1041C00002463B69D31A022B01D903235FE0104B4F
:1041D0001B6803F00073002BF0D057E00C4B1B68FA
:1041E0000B4A23F080731360FDF7DEFB386108E0B3
:1041F000FDF7DAFB02463B69D31A022B01D90323F0
:1042000045E0034B1B6803F00073002BF0D13DE049
:1042100000380240007000401F4B5B68FB607B6809
:104220009B69012B30D0FB6803F480027B68DB695B
:104230009A4229D1FB6803F03F027B681B6A9A42CD
:1042400022D1FA6847F6C07313407A68526A920125
:10425000934219D1FB6803F440327B689B6A5B0888
:10426000013B1B049A420FD1FB6803F070627B682C
:10427000DB6A1B069A4207D1FB6803F0E0427B68C9
:104280001B6B1B079A4201D0012300E00023184654
:104290001837BD4680BD00BF0038024080B584B0ED
:1042A00000AF786039600023FB607B68002B01D190
:1042B0000123D0E06A4B1B6803F00F033A689A426F
:1042C00010D9674B1B6823F00F0265493B68134305
:1042D0000B60634B1B6803F00F033A689A4201D0EE
:1042E0000123B8E07B681B6803F00203002B20D099
:1042F0007B681B6803F00403002B05D0594B9B68B7
:10430000584A43F4E05393607B681B6803F008034A
:10431000002B05D0534B9B68524A43F46043936093
:10432000504B9B6823F0F0027B689B684D49134318
:104330008B607B681B6803F00103002B40D07B6817
:104340005B68012B07D1474B1B6803F40033002B3C
:1043500015D101237FE07B685B68022B07D1414BBD
:104360001B6803F00073002B09D1012373E03D4B60
:104370001B6803F00203002B01D101236BE0394BD2
:104380009B6823F003027B685B68364913438B60AC
:10439000FDF70AFBF8600AE0FDF706FB0246FB6842
:1043A000D31A41F28832934201D9032353E02D4BB3
:1043B0009B6803F00C027B685B689B009A42EBD120
:1043C000274B1B6803F00F033A689A4210D2244B24
:1043D0001B6823F00F0222493B6813430B60204BFC
:1043E0001B6803F00F033A689A4201D0012332E0C0
:1043F0007B681B6803F00403002B08D0194B9B68F3
:1044000023F4E0527B68DB68164913438B607B68BA
:104410001B6803F00803002B09D0124B9B6823F4A0
:1044200060427B681B69DB000E4913438B6000F020
:1044300021F802460B4B9B681B0903F00F030A4946
:10444000CB5C22FA03F3094A1360094B1B68184638
:10445000FCF780FE002318461037BD4680BD00BF24
:10446000003C0240003802403C8405080000002067
:10447000040000202DE9B04F90B000AF00237B6313
:104480000023FB6300233B630023BB63594B9B6802
:1044900003F00C03082B0DD0082B00F2A180002B99
:1044A00002D0042B03D09BE0534BBB639BE0534BE8
:1044B000BB6398E04F4B5B6803F03F037B634D4B5E
:1044C0005B6803F48003002B28D04A4B5B689B0990
:1044D00000223B627A623B6AC3F308000021474B2B
:1044E00003FB01F2002300FB03F31344434AA0FB48
:1044F0000212FA620A46BA62FA6A1344FB627B6BE2
:104500000022BB61FA61D7E90623D7E90A01FBF76C
:10451000E7FE02460B461346FB6353E0354B5B68F0
:104520009B0900223B617A613B69C3F3080A4FF0A3
:10453000000B52465B464FF000004FF0000159015E
:1045400041EAD261500102460B46B2EB0A0863EB26
:104550000B094FF000024FF000034FEA891343EAC2
:1045600098634FEA8812B2EB080463EB09054FF039
:1045700000024FF00003EB0043EA5473E2001446DC
:104580001D4614EB0A033B6045EB0B037B604FF0C9
:1045900000024FF00003D7E9004529468B0221466F
:1045A00043EA915321468A02104619467B6B00224A
:1045B000BB60FA60D7E90223FBF792FE02460B4686
:1045C0001346FB630B4B5B681B0C03F003030133C7
:1045D0005B003B63FA6B3B6BB2FBF3F3BB6302E044
:1045E000054BBB6300BFBB6B18464037BD46BDE8FB
:1045F000B08F00BF003802400024F40040787D01F5
:1046000080B400AF034B1B681846BD465DF8047BC1
:10461000704700BF0000002080B500AFFFF7F0FF3B
:104620000246054B9B689B0A03F007030349CB5CDA
:1046300022FA03F3184680BD003802404C84050876
:1046400080B500AFFFF7DCFF0246054B9B685B0BB4
:1046500003F007030349CB5C22FA03F3184680BD3D
:10466000003802404C84050880B483B000AF786005
:1046700039607B680F221A60124B9B6803F00302BB
:104680007B685A600F4B9B6803F0F0027B689A606E
:104690000C4B9B6803F4E0527B68DA60094B9B6823
:1046A000DB0803F4E0527B681A61074B1B6803F0D8
:1046B0000F023B681A6000BF0C37BD465DF8047BF3
:1046C000704700BF00380240003C024080B588B00F
:1046D00000AF786000237B6100233B610023FB6017
:1046E0000023FB610023BB617B681B6803F00103AF
:1046F000002B12D0694B9B68684A23F40003936037
:10470000664B9A687B685B6B644913438B607B687C
:104710005B6B002B01D10123FB617B681B6803F4F9
:104720000023002B17D05D4BD3F88C3023F44012BC
:104730007B68DB6B59491343C1F88C307B68DB6BBA
:10474000B3F5801F01D10123FB617B68DB6B002B7C
:1047500001D10123BB617B681B6803F48013002B2C
:1047600017D04E4BD3F88C3023F440027B681B6C7F
:104770004A491343C1F88C307B681B6CB3F5800F3A
:1047800001D10123FB617B681B6C002B01D101234C
:10479000BB617B681B6803F08073002B01D0012391
:1047A000FB617B681B6803F02003002B00F08B800B
:1047B0003A4B1B6C394A43F080531364374B1B6CE4
:1047C00003F08053BB60BB68354B1B68344A43F42D
:1047D00080731360FDF7E8F8786108E0FDF7E4F80E
:1047E00002467B69D31A642B01D903238FE32C4B38
:1047F0001B6803F48073002BF0D0284B1B6F03F46D
:1048000040733B613B69002B35D07B681B6B03F425
:1048100040733A699A422ED0204B1B6F23F44073A9
:104820003B611E4B1B6F1D4A43F4803313671B4BC8
:104830001B6F1A4A23F480331367184A3B691367C6
:10484000164B1B6F03F00103012B14D1FDF7ACF8DD
:1048500078610AE0FDF7A8F802467B69D31A41F2B5
:104860008832934201D9032351E30C4B1B6F03F0B1
:104870000203002BEED07B681B6B03F44073B3F58F
:10488000407F11D1054B9B6823F4F8127B68196BAC
:10489000044B0B40014913438B600BE0003802408E
:1048A00000700040FFFCFF0FAC4B9B68AB4A23F449
:1048B000F8139360A94B1A6F7B681B6BC3F30B0350
:1048C000A64913430B677B681B6803F01003002B9A
:1048D00010D0A24BD3F88C30A04A23F08073C2F8DA
:1048E0008C309E4BD3F88C207B689B6B9B49134389
:1048F000C1F88C307B681B6803F48043002B0AD01E
:10490000964BD3F8903023F440327B685B6E93492A
:104910001343C1F890307B681B6803F40043002BFD
:104920000AD08E4BD3F8903023F440227B689B6EE4
:104930008A491343C1F890307B681B6803F48033C5
:10494000002B0AD0854BD3F8903023F440127B68BB
:10495000DB6E82491343C1F890307B681B6803F417
:104960000033002B0AD07D4BD3F8903023F4400263
:104970007B681B6F79491343C1F890307B681B68D3
:1049800003F04003002B0AD0744BD3F8903023F08F
:1049900003027B685B6C71491343C1F890307B68FC
:1049A0001B6803F08003002B0AD06C4BD3F89030C7
:1049B00023F00C027B689B6C68491343C1F890306C
:1049C0007B681B6803F48073002B0AD0634BD3F819
:1049D000903023F030027B68DB6C60491343C1F8F0
:1049E00090307B681B6803F40073002B0AD05B4B8C
:1049F000D3F8903023F0C0027B681B6D57491343F6
:104A0000C1F890307B681B6803F48063002B0AD0E8
:104A1000524BD3F8903023F440727B685B6D4F4962
:104A20001343C1F890307B681B6803F40063002BCC
:104A30000AD04A4BD3F8903023F440627B689B6DD8
:104A400046491343C1F890307B681B6803F48053D8
:104A5000002B0AD0414BD3F8903023F440527B68AE
:104A6000DB6D3E491343C1F890307B681B6803F44B
:104A70000053002B0AD0394BD3F8903023F4404236
:104A80007B681B6E35491343C1F890307B681B6807
:104A900003F48003002B0AD0304BD3F8903023F07E
:104AA00080627B689B6F2D491343C1F890307B680F
:104AB0001B6803F40013002B11D0284BD3F890305F
:104AC00023F000627B68DB6F24491343C1F8903008
:104AD0007B68DB6FB3F1006F01D10123BB617B68A1
:104AE0001B6803F00803002B01D00123BB617B6826
:104AF0001B6803F48023002B0AD0184BD3F89030A6
:104B000023F040727B685B6F14491343C1F8903007
:104B10007B681B6803F40003002B0BD00F4BD3F80A
:104B2000903023F080527B68D3F880300B491343D8
:104B3000C1F890307B681B6803F08063002B0FD0B6
:104B4000064BD3F8903023F000527B68D3F88430C2
:104B500002491343C1F8903002E000BF0038024020
:104B60007B681B6803F00063002B0BD08A4BD3F8E3
:104B70008C3023F000727B68D3F888308649134369
:104B8000C1F88C307B681B6803F08053002B0BD07E
:104B9000814BD3F88C3023F080627B68D3F88C3063
:104BA0007D491343C1F88C30FB69012B06D07B682B
:104BB0001B6803F00073002B00F0D680764B1B6857
:104BC000754A23F080631360FCF7EEFE786108E01D
:104BD000FCF7EAFE02467B69D31A642B01D9032352
:104BE00095E16D4B1B6803F00063002BF0D17B68EF
:104BF0001B6803F00103002B21D07B685B6B002B4B
:104C00001DD1654BD3F884301B0C03F003033B61CB
:104C1000614BD3F884301B0E03F00F03FB607B68FD
:104C20005B689A013B691B041A43FB681B061A4325
:104C30007B689B681B0758491343C1F884307B6825
:104C40001B6803F40023002B04D07B68DB6BB3F5F7
:104C5000801F0AD07B681B6803F48013002B2ED0C2
:104C60007B681B6CB3F5800F29D14B4BD3F8843094
:104C70001B0C03F003033B61474BD3F884301B0F3D
:104C800003F00703FB607B685B689A013B691B04C8
:104C90001A437B68DB681B061A43FB681B073E4907
:104CA0001343C1F884303C4BD3F88C3023F01F02FF
:104CB0007B685B6A013B38491343C1F88C307B68E1
:104CC0001B6803F08073002B1DD0334BD3F8843066
:104CD0001B0E03F00F033B612F4BD3F884301B0FE7
:104CE00003F00703FB607B685B689A017B681B69C4
:104CF0001B041A433B691B061A43FB681B07264922
:104D00001343C1F884307B681B6803F00073002BE9
:104D100011D07B685B689A017B681B691B041A438E
:104D20007B68DB681B061A437B689B681B071A4974
:104D30001343C1F88430184B1B68174A43F0806353
:104D40001360FCF731FE786108E0FCF72DFE0246A7
:104D50007B69D31A642B01D90323D8E00E4B1B685F
:104D600003F00063002BF0D0BB69012B40F0CE8034
:104D7000094B1B68084A23F080531360FCF714FEAC
:104D800078610BE0FCF710FE02467B69D31A642BB6
:104D900004D90323BBE000BF003802405E4B1B6810
:104DA00003F00053B3F1005FECD07B681B6803F4A1
:104DB0000023002B03D07B68DB6B002B09D07B68C2
:104DC0001B6803F48013002B2ED07B681B6C002B18
:104DD0002AD1514BD3F888301B0C03F003033B61FD
:104DE0004D4BD3F888301B0F03F00703FB607B6843
:104DF0005B699A013B691B041A437B689B691B062C
:104E00001A43FB681B0744491343C1F88830424BDF
:104E1000D3F88C3023F4F8527B689B6A013B1B0269
:104E20003D491343C1F88C307B681B6803F40013C1
:104E3000002B22D07B68DB6FB3F1006F1DD1364BA6
:104E4000D3F888301B0E03F00F033B61324BD3F8CD
:104E500088301B0F03F00703FB607B685B699A01D6
:104E60007B681B6A1B041A433B691B061A43FB68D9
:104E70001B0729491343C1F888307B681B6803F07E
:104E80000803002B28D0244BD3F888301B0E03F0E6
:104E90000F033B61204BD3F888301B0C03F0030356
:104EA000FB607B685B699A01FB681B041A433B69E2
:104EB0001B061A437B68DB691B0717491343C1F8BC
:104EC0008830154BD3F88C3023F440327B68DB6A92
:104ED00011491343C1F88C300F4B1B680E4A43F045
:104EE00080531360FCF760FD786108E0FCF75CFD1F
:104EF00002467B69D31A642B01D9032307E0064BD2
:104F00001B6803F00053B3F1005FEFD10023184694
:104F10002037BD4680BD00BF0038024080B582B05A
:104F200000AF78607B68002B01D1012349E07B68EA
:104F300093F83D30DBB2002B06D17B68002283F86A
:104F40003C20786800F041F87B68022283F83D201D
:104F50007B681A687B6804331946104600F000FA33
:104F60007B68012283F848207B68012283F83E2079
:104F70007B68012283F83F207B68012283F8402070
:104F80007B68012283F841207B68012283F842205C
:104F90007B68012283F843207B68012283F8442048
:104FA0007B68012283F845207B68012283F8462034
:104FB0007B68012283F847207B68012283F83D202B
:104FC000002318460837BD4680BD80B483B000AFCB
:104FD000786000BF0C37BD465DF8047B7047000069
:104FE00080B485B000AF78607B6893F83D30DBB269
:104FF000012B01D0012354E07B68022283F83D207D
:105000007B681B68DA687B681B6842F00102DA6023
:105010007B681B68264A934222D07B681B68B3F1E9
:10502000804F1DD07B681B68224A934218D07B6852
:105030001B68214A934213D07B681B681F4A934226
:105040000ED07B681B681E4A934209D07B681B68A0
:105050001C4A934204D07B681B681B4A934215D1BB
:105060007B681B689A68194B1340FB60FB68062B32
:1050700015D0FB68B3F5803F11D07B681B681A68B8
:105080007B681B6842F001021A6008E07B681B68BD
:105090001A687B681B6842F001021A6000E000BFDA
:1050A000002318461437BD465DF8047B704700BFE7
:1050B000000001400004004000080040000C0040D7
:1050C00000040140004001400018004007000100BA
:1050D00080B582B000AF78607B681B681B6903F005
:1050E0000203022B22D17B681B68DB6803F00203FA
:1050F000022B1BD17B681B686FF002021A617B6870
:1051000001221A777B681B689B6903F00303002B5D
:1051100003D0786800F005F905E0786800F0F7F84A
:10512000786800F008F97B6800221A777B681B68B2
:105130001B6903F00403042B22D17B681B68DB6826
:1051400003F00403042B1BD17B681B686FF004027F
:105150001A617B6802221A777B681B689B6903F4DB
:105160004073002B03D0786800F0DBF805E0786826
:1051700000F0CDF8786800F0DEF87B6800221A773E
:105180007B681B681B6903F00803082B22D17B682E
:105190001B68DB6803F00803082B1BD17B681B68C6
:1051A0006FF008021A617B6804221A777B681B681B
:1051B000DB6903F00303002B03D0786800F0B1F83B
:1051C00005E0786800F0A3F8786800F0B4F87B6830
:1051D00000221A777B681B681B6903F01003102BF1
:1051E00022D17B681B68DB6803F01003102B1BD1F6
:1051F0007B681B686FF010021A617B6808221A77BF
:105200007B681B68DB6903F44073002B03D078686C
:1052100000F087F805E0786800F079F8786800F029
:105220008AF87B6800221A777B681B681B6903F089
:105230000103012B0ED17B681B68DB6803F00103BF
:10524000012B07D17B681B686FF001021A61786837
:10525000FBF7CCFC7B681B681B6903F08003802B89
:105260000ED17B681B68DB6803F08003802B07D1BD
:105270007B681B686FF080021A61786800F01AF989
:105280007B681B681B6903F48073B3F5807F0ED1C4
:105290007B681B68DB6803F08003802B07D17B6889
:1052A0001B686FF480721A61786800F00DF97B68F2
:1052B0001B681B6903F04003402B0ED17B681B6801
:1052C000DB6803F04003402B07D17B681B686FF05D
:1052D00040021A61786800F038F87B681B681B6927
:1052E00003F02003202B0ED17B681B68DB6803F0E2
:1052F0002003202B07D17B681B686FF020021A6106
:10530000786800F0CDF800BF0837BD4680BD80B496
:1053100083B000AF786000BF0C37BD465DF8047BFA
:10532000704780B483B000AF786000BF0C37BD46D3
:105330005DF8047B704780B483B000AF786000BF35
:105340000C37BD465DF8047B704780B483B000AF76
:10535000786000BF0C37BD465DF8047B70470000E5
:1053600080B485B000AF786039607B681B68FB60F3
:105370007B68404A934213D07B68B3F1804F0FD0D3
:105380007B683D4A93420BD07B683C4A934207D0EE
:105390007B683B4A934203D07B683A4A934208D1E8
:1053A000FB6823F07003FB603B685B68FA6813439B
:1053B000FB607B682F4A93422BD07B68B3F1804F10
:1053C00027D07B682C4A934223D07B682B4A934298
:1053D0001FD07B682A4A93421BD07B68294A93429C
:1053E00017D07B68284A934213D07B68274A9342A0
:1053F0000FD07B68264A93420BD07B68254A9342A4
:1054000007D07B68244A934203D07B68234A9342A7
:1054100008D1FB6823F44073FB603B68DB68FA68E3
:105420001343FB60FB6823F080023B685B69134316
:10543000FB607B68FA681A603B689A687B68DA628E
:105440003B681A687B689A627B680A4A934203D079
:105450007B680C4A934203D13B681A697B681A63E4
:105460007B6801225A6100BF1437BD465DF8047B9A
:10547000704700BF000001400004004000080040E9
:10548000000C004000040140004001400044014085
:105490000048014000180040001C0040002000406F
:1054A00080B483B000AF786000BF0C37BD465DF8B4
:1054B000047B704780B483B000AF786000BF0C37C6
:1054C000BD465DF8047B704780B483B000AF786060
:1054D00000BF0C37BD465DF8047B704780B582B0D5
:1054E00000AF78607B68002B01D1012340E07B682E
:1054F000DB6F002B06D17B68002283F87820786868
:10550000FBF7DAFF7B682422DA677B681B681A687E
:105510007B681B6822F001021A60786800F0C4FB07
:105520000346012B01D1012322E07B685B6A002B3B
:1055300002D0786800F01CFE7B681B685A687B68A4
:105540001B6822F490425A607B681B689A687B68EB
:105550001B6822F02A029A607B681B681A687B68C5
:105560001B6842F001021A60786800F0A3FE03464F
:1055700018460837BD4680BD80B58AB000AFF860D8
:10558000B9601346FB80FB68DB6F202B65D1BB68DD
:10559000002B02D0FB88002B01D101235EE0FB68C9
:1055A000BA68DA64FB68FA88A3F85020FB68FA88C6
:1055B000A3F85220FB680022C3F88420FB68212254
:1055C000DA67FB681B6F002B27D0FB681B6F254A2F
:1055D000DA63FB681B6F244A1A64FB681B6F234A5B
:1055E000DA64FB681B6F00221A65FB68186FFB68A2
:1055F000DB6C1946FB681B6828331A46FB88FCF7EE
:105600009FFB0346002B08D0FB681022C3F88420C0
:10561000FB682022DA67012320E0FB681B68402238
:105620001A62FB681B6808337B617B6953E8003FA3
:105630003B613B6943F080037B62FB681B68083376
:105640007A6A3A62FB61F9693A6A41E80023BB6110
:10565000BB69002BE5D1002300E002231846283760
:10566000BD4680BDEF65040885660408A166040890
:1056700080B5BAB000AF78607B681B68DB69C7F89B
:10568000E4307B681B681B68C7F8E0307B681B68E8
:105690009B68C7F8DC30D7F8E42040F60F031340CE
:1056A000C7F8D830D7F8D830002B15D1D7F8E43068
:1056B00003F02003002B0FD0D7F8E03003F02003D5
:1056C000002B09D07B689B6E002B00F0AC827B68BE
:1056D0009B6E78689847A6E2D7F8D830002B00F088
:1056E0001781D7F8DC3003F00103002B06D1D7F87F
:1056F000E020854B1340002B00F00A81D7F8E430FE
:1057000003F00103002B11D0D7F8E03003F48073CD
:10571000002B0BD07B681B6801221A627B68D3F8D0
:10572000843043F001027B68C3F88420D7F8E4306A
:1057300003F00203002B11D0D7F8DC3003F0010393
:10574000002B0BD07B681B6802221A627B68D3F89F
:10575000843043F004027B68C3F88420D7F8E43037
:1057600003F00403002B11D0D7F8DC3003F0010361
:10577000002B0BD07B681B6804221A627B68D3F86D
:10578000843043F002027B68C3F88420D7F8E43009
:1057900003F00803002B17D0D7F8E03003F0200304
:1057A000002B05D1D7F8DC3003F00103002B0BD020
:1057B0007B681B6808221A627B68D3F8843043F048
:1057C00008027B68C3F88420D7F8E43003F4006350
:1057D000002B12D0D7F8E03003F08063002B0CD000
:1057E0007B681B684FF400621A627B68D3F88430D0
:1057F00043F020027B68C3F884207B68D3F88430B0
:10580000002B00F01282D7F8E43003F02003002BC5
:105810000DD0D7F8E03003F02003002B07D07B68D1
:105820009B6E002B03D07B689B6E786898477B68E3
:10583000D3F88430C7F8D4307B681B689B6803F0CA
:105840004003402B05D0D7F8D43003F02803002BB9
:105850004FD0786800F067FE7B681B689B6803F098
:105860004003402B41D17B681B680833C7F89C304C
:10587000D7F89C3053E8003FC7F89830D7F89830F5
:1058800023F04003C7F8D0307B681B680833D7F893
:10589000D020C7F8A820C7F8A430D7F8A410D7F8AC
:1058A000A82041E80023C7F8A030D7F8A030002B8B
:1058B000D9D17B685B6F002B13D07B685B6F134A79
:1058C0001A657B685B6F1846FCF70AFB0346002BE2
:1058D00017D07B685B6F1B6D7A68526F10469847D4
:1058E0000FE0786800F0C0F90BE0786800F0BCF9D0
:1058F00007E0786800F0B8F97B680022C3F88420DC
:1059000093E100BF91E100BF200100041F6704087C
:105910007B681B6E012B40F04C81D7F8E43003F01C
:105920001003002B00F04581D7F8E03003F010039E
:10593000002B00F03E817B681B6810221A627B6896
:105940001B689B6803F04003402B40F0B6807B68E7
:105950005B6F1B685B68A7F8BE30B7F8BE30002BE2
:1059600000F065817B68B3F85830B7F8BE209A42E2
:1059700080F05D817B68B7F8BE20A3F85A207B6871
:105980005B6FDB69B3F5807F00F086807B681B6806
:10599000C7F88830D7F8883053E8003FC7F884301C
:1059A000D7F8843023F48073C7F8B8307B681B685D
:1059B0001A46D7F8B830C7F89430C7F89020D7F80F
:1059C0009010D7F8942041E80023C7F88C30D7F81E
:1059D0008C30002BDAD17B681B6808337B677B6FC8
:1059E00053E8003F3B673B6F23F00103C7F8B43037
:1059F0007B681B680833D7F8B420C7F88020FB67A2
:105A0000F96FD7F8802041E80023BB67BB6F002BFC
:105A1000E1D17B681B6808333B663B6E53E8003F6F
:105A2000FB65FB6D23F04003C7F8B0307B681B6853
:105A30000833D7F8B020FA66BB66B96EFA6E41E853
:105A400000237B667B6E002BE3D17B682022C3F8AA
:105A500080207B6800221A667B681B68FB64FB6CF5
:105A600053E8003FBB64BB6C23F01003C7F8AC30B5
:105A70007B681B681A46D7F8AC30BB657A65796DD0
:105A8000BA6D41E800233B653B6D002BE4D17B6898
:105A90005B6F1846FCF7B4F97B6802225A667B6894
:105AA000B3F858207B68B3F85A309BB2D31A9BB234
:105AB0001946786800F0E2F8B9E07B68B3F858203E
:105AC0007B68B3F85A309BB2D31AA7F8CE307B6804
:105AD000B3F85A309BB2002B00F0AB80B7F8CE3051
