:020000040804EE
:1000000000000820151004085D0C0408630C0408A7
:10001000690C04086F0C0408750C0408000000004B
:1000200000000000000000000000000071570408FC
:100030007B0C04080000000081590408E9590408F9
:1000400065100408651004086510040865100408AC
:10005000651004086510040865100408651004089C
:1000600065100408890C040865100408651004086C
:10007000651004086510040865100408651004087C
:10008000651004086510040865100408651004086C
:10009000651004086510040865100408651004085C
:1000A00065100408990C040865100408651004081C
:1000B000651004086510040865100408651004083C
:1000C000651004086510040865100408651004082C
:1000D00065100408AD0C04086510040865100408D8
:1000E000651004086510040865100408651004080C
:1000F00065100408651004086510040865100408FC
:1001000065100408651004086510040865100408EB
:1001100065100408651004086510040865100408DB
:100120006510040865100408C10C04086510040873
:1001300065100408651004086510040865100408BB
:1001400065100408651004086510040865100408AB
:100150006510040865100408D50C0408651004082F
:10016000651004086510040865100408651004088B
:1001700065100408651004086510040800000000FC
:10018000651004086510040865100408651004086B
:10019000651004086510040865100408651004085B
:1001A000651004086510040865100408651004084B
:1001B000651004086510040865100408651004083B
:1001C00065100408651004080000000065100408AC
:1001D000651004086510040865100408651004081B
:1001E000651004086510040865100408651004080B
:0801F000651004086510040805
:1002000010B5054C237833B9044B13B10448AFF350
:1002100000800123237010BD6C000020000000004E
:100220005868040808B5034B1BB103490348AFF3F2
:10023000008008BD0000000070000020586804081D
:1002400053B94AB9002908BF00281CBF4FF0FF313D
:100250004FF0FF3000F070B9ADF1080C6DE904CE3D
:1002600000F006F8DDF804E0DDE9022304B0704791
:100270002DE9F047089E0D4604460F46002B4AD153
:100280008A42944665D9B2FA82F343B102FA03FC7A
:10029000C3F120029F4020FA02F217439C404FEA2C
:1002A0001C4E1FFA8CF5B7FBFEF1220C0EFB1177EA
:1002B00042EA074201FB05F090420AD91CEB020218
:1002C00001F1FF3780F01C81904240F21981023920
:1002D0006244121AA4B2B2FBFEF00EFB102244EAF2
:1002E000024400FB05F5A5420AD91CEB040400F109
:1002F000FF3280F00781A54240F204816444023855
:1003000040EA0140641B00211EB1DC400023C6E925
:100310000043BDE8F0878B4208D9002E00F0ED8045
:100320000021C6E900050846BDE8F087B3FA83F16D
:10033000002949D1AB4202D3824200F2F880841AEC
:1003400065EB030201201746002EE2D0C6E9004704
:10035000DFE702B9FFDEB2FA82F3002B40F09080B3
:100360008A1A4FEA1C471FFA8CFE0121B2FBF7F5EF
:1003700007FB1520220C42EA00420EFB05F09042DA
:1003800008D91CEB020205F1FF3802D2904200F2BC
:10039000CB804546121AA4B2B2FBF7F007FB10223D
:1003A00044EA02440EFB00FEA64508D91CEB0404F7
:1003B00000F1FF3202D2A64500F2BB801046A4EB4A
:1003C0000E0440EA05409FE7C1F120078B4022FA66
:1003D00007FC4CEA030C05FA01F420FA07F3FD4090
:1003E0004FEA1C492343B5FBF9F81FFA8CFE09FBC1
:1003F00018551C0C44EA054408FB0EF5A54202FA08
:1004000001F200FA01F00BD91CEB040408F1FF3AE9
:1004100080F08880A54240F28580A8F102086444FB
:10042000641B9DB2B4FBF9F309FB134445EA044491
:1004300003FB0EFEA64508D91CEB040403F1FF35AF
:100440006CD2A6456AD9023B644443EA0843A3FB45
:100450000295A4EB0E04AC42C846AE4656D353D028
:1004600056B1B0EB080264EB0E0404FA07F7CA4079
:10047000CC401743C6E9007418460021BDE8F08758
:10048000C3F1200102FA03FC20FA01F225FA01F17E
:100490009D402A434FEA1C471FFA8CFEB1FBF7F040
:1004A00007FB1015110C41EA054100FB0EF58D42CA
:1004B00004FA03F408D91CEB010100F1FF382FD234
:1004C0008D422DD902386144491B92B2B1FBF7F538
:1004D00007FB151142EA014205FB0EF1914208D9D2
:1004E0001CEB020205F1FF3816D2914214D9023DED
:1004F0006244521A45EA004138E73146304608E77F
:100500003946E6E61046FBE64845A9D2B9EB0208B3
:1005100065EB0C0E013BA3E74546EAE72B4694E763
:100520004046D1E7D0467BE7023D624432E70846C9
:100530000AE76444023842E7704700BF80B400AF66
:10054000084B094A1A60074B1B68084AA2FB0323A1
:100550009B099AB2064B1A8000BFBD465DF8047B2A
:10056000704700BF8C00002040420F00D34D621046
:100570008800002080B489B000AF786000237B61E0
:100580000023FB6100233B610023BB610023FB6070
:100590001B4B1B68DB6AFB601A4B1A687B6802FB0B
:1005A00003F37B61164B1B685B6AFB61144B1B6892
:1005B0005B6A3B613A69FB699A42F7D03A69FB6929
:1005C0009A4206D2FA693B69D31ABA691344BB61ED
:1005D00007E0FA683B69D21AFB691344BA6913440D
:1005E000BB613B69FB61BA697B699A4200D2DDE776
:1005F00000BF00BF2437BD465DF8047B704700BFD5
:10060000342100208C00002080B582B000AF104B58
:100610001B6B0F4A43F4800313630D4B1B6B03F4F6
:1006200080037B607B68002205213A2000F000FEF9
:100630003A2000F019FE00220521462000F0F8FDC6
:10064000462000F011FE00BF0837BD4680BD00BF48
:100650000038024080B485B000AFF860B9607A60BD
:10066000FB68074A1A60BB68064A1A607B684FF449
:1006700000621A6000BF1437BD465DF8047B704706
:100680009400002034010020B0B588B000AF0A4BC0
:100690003C1D1D460FCD0FC495E8070084E80700F8
:1006A0003B1D0021184604F083F90346034A1360FA
:1006B00000BF2037BD46B0BD7C6804089000002014
:1006C00080B582B000AF78600C4805F0D9FC0122FB
:1006D00002210B4801F08CFB4FF4FA7004F0B4F9DE
:1006E00000220221064801F083FB4FF4FA7004F067
:1006F000ABF9044805F0C4FCE9E700BF98680408BA
:1007000000040240BC68040880B58CB000AF07F15B
:100710001C0300221A605A609A60DA601A61524B18
:100720001B6B514A43F0100313634F4B1B6B03F0D9
:100730001003BB61BB694C4B1B6B4B4A43F004037A
:100740001363494B1B6B03F004037B617B69464BCE
:100750001B6B454A43F080031363434B1B6B03F051
:1007600080033B613B69404B1B6B3F4A43F00203F4
:1007700013633D4B1B6B03F00203FB60FB683A4BBA
:100780001B6B394A43F001031363374B1B6B03F0B8
:100790000103BB60BB68344B1B6B334A43F040031F
:1007A0001363314B1B6B03F040037B607B680122BA
:1007B00003212E4801F01CFB0823FB614FF40413B6
:1007C0003B6201237B6207F11C031946284801F0B4
:1007D00063F90323FB6101233B6200237B62002357
:1007E000BB6207F11C031946204801F055F90423A8
:1007F000FB6102233B6200237B620323BB6209236C
:10080000FB6207F11C031946184801F045F94FF443
:10081000C043FB6102233B6200237B620323BB6274
:100820000B23FB6207F11C031946124801F034F94F
:100830004023FB6102233B6200237B620323BB62F4
:100840000A23FB6207F11C031946084801F024F94A
:1008500000220521092000F0EBFC092000F004FD36
:1008600000BF3037BD4680BD003802400004024062
:10087000001C02400018024080B582B000AF034661
:10088000FB80C820FFF776FEFB88082B03D10448C5
:1008900005F0F6FB00E000BF00BF0837BD4680BD95
:1008A000CC68040880B400AFBFF34F8F00BFBFF324
:1008B0006F8F00BF0D4B0022C3F85022BFF34F8F44
:1008C00000BFBFF36F8F00BF084B5B69074A43F45B
:1008D00000335361BFF34F8F00BFBFF36F8F00BF73
:1008E00000BFBD465DF8047B704700BF00ED00E02F
:1008F00080B485B000AF1F4B0022C3F88420BFF343
:100900004F8F00BF1B4BD3F880307B607B685B0B45
:10091000C3F30E03FB607B68DB08C3F30903BB6012
:10092000FB685A0143F6E0731340BA689207114915
:100930001343C1F86032BB685A1EBA60002BEFD176
:10094000FB685A1EFA60002BE5D1BFF34F8F00BF42
:10095000084B5B69074A43F480335361BFF34F8F01
:1009600000BFBFF36F8F00BF00BF1437BD465DF8F7
:10097000047B704700ED00E080B500AF0F4B104ADC
:100980009A60FFF78FFFFFF7B3FF00F06CFB00F0FA
:1009900019F80A4BD3F89C32084A43F00403C2F812
:1009A0009C32FFF7CBFDFFF7AFFEFFF72DFE00F007
:1009B00035FAFFF769FE03F0F4FFFEE700ED00E013
:1009C0000000040880B594B000AF07F11C03342286
:1009D0000021184605F034FC07F1080300221A60D4
:1009E0005A609A60DA601A6101F034FA2B4B1B6C82
:1009F0002A4A43F080531364284B1B6C03F0805346
:100A00007B607B68264B1B68254A43F44043136098
:100A1000234B1B6803F440433B603B680223FB61AC
:100A20000123BB621023FB6202237B630023BB63B1
:100A30000823FB63D8233B6402237B640223BB644B
:100A40000223FB6407F11C03184601F063FA034616
:100A5000002B01D000F038F801F00CFA0346002B0F
:100A600001D000F031F80F23BB600223FB600023AC
:100A70003B614FF4A0537B614FF48053BB6107F19E
:100A800008030721184601F0F3FC0346002B01D0B0
:100A900000F01AF800BF5037BD4680BD0038024054
:100AA0000070004080B582B000AF78607B681B6842
:100AB000044A934201D100F0E3FA00BF0837BD4673
:100AC00080BD00BF0044014080B400AF72B600BFDB
:100AD000FEE780B485B000AF78607B68DB6FFB60B9
:100AE000FB6818461437BD465DF8047B704700006C
:100AF00080B584B000AFF860B9607A607B689BB263
:100B00001A46B968074802F021FE00BF0548FFF702
:100B1000E0FF0346202BF9D17B6818461037BD460D
:100B200080BD00BF8421002080B582B000AF114B92
:100B30001B6C104A43F0805313640E4B1B6C03F084
:100B400080537B607B680B4B5B6C0A4A43F48043A9
:100B50005364084B5B6C03F480433B603B680022AA
:100B60000F216FF0010000F063FB00BF0837BD46A6
:100B700080BD00BF0038024080B58CB000AF786007
:100B80000023BB6200237B622F4B5B6C2E4A43F435
:100B9000003353642C4B5B6C03F40033BB60BB68C5
:100BA00007F10C0207F110031146184601F046FE4A
:100BB00001F030FE03465B00BB62BB6A234AA2FB26
:100BC00003239B0C013B7B62214B224A1A60204B82
:100BD00040F2E732DA601E4A7B6A53601C4B002207
:100BE0001A611B4B00229A60194B00229A61184827
:100BF00002F07EFA034687F82F3097F82F30002B4B
:100C00001BD1134802F0D6FA034687F82F3097F825
:100C10002F30002B11D1192000F026FB7B680F2B01
:100C200008D800227968192000F002FB0A4A7B6884
:100C3000136002E0012387F82F3097F82F30184611
:100C40003037BD4680BD00BF0038024083DE1B4305
:100C500034210020004401400400002080B400AF93
:100C6000FEE780B400AFFEE780B400AFFEE780B4DB
:100C700000AFFEE780B400AFFEE780B400AF00BF76
:100C8000BD465DF8047B704780B500AF082001F0D9
:100C9000C9F800BF80BD000080B500AF024802F077
:100CA00001FB00BF80BD00BF3421002080B500AF34
:100CB000024802F0C7FD00BF80BD00BF84210020B4
:100CC00080B500AF024800F07DFC00BF80BD00BFD2
:100CD0006C22002080B500AF024800F073FC00BF1A
:100CE00080BD00BF0C22002080B586B000AFF86048
:100CF000B9607A6000237B610AE0AFF300800146AF
:100D0000BB685A1CBA60CAB21A707B6901337B6136
:100D10007A697B689A42F0DB7B6818461837BD46D3
:100D200080BD80B483B000AF78604FF0FF331846C9
:100D30000C37BD465DF8047B704780B483B000AFCC
:100D4000786039603B684FF400525A6000231846BF
:100D50000C37BD465DF8047B704780B483B000AFAC
:100D60007860012318460C37BD465DF8047B704758
:100D700080B485B000AFF860B9607A60002318468F
:100D80001437BD465DF8047B7047000080B586B01F
:100D900000AF7860144A154BD31A7B617B693B61C5
:100DA000134B1B68002B02D1114B124A1A60104BD7
:100DB0001A687B6813443A699A4207D205F0E4FA4C
:100DC00003460C221A604FF0FF3309E0084B1B6802
:100DD000FB60074B1A687B681344054A1360FB6885
:100DE00018461837BD4680BD0000082000200000CE
:100DF0008021002068B5012080B400AF064BD3F8F5
:100E00008830054A43F47003C2F8883000BFBD46FD
:100E10005DF8047B704700BF00ED00E080B500AFD7
:100E2000144B154A1A60134B4FF4E1325A60114BC0
:100E300000229A600F4B0022DA600E4B00221A61EA
:100E40000C4B0C225A610B4B00229A61094B002279
:100E5000DA61084B00221A62064B00225A620548EA
:100E600002F026FC0346002B01D0FFF72DFE00BF49
:100E700080BD00BF842100200010014080B5AEB0CD
:100E800000AF786007F1A40300221A605A609A60EC
:100E9000DA601A6107F1140390220021184605F068
:100EA000CFF97B681B68544A934240F0A0804023EE
:100EB0007B610123BB6507F11403184601F0F0FCC8
:100EC0000346002B01D0FFF7FFFD4C4B5B6C4B4AF8
:100ED00043F010035364494B5B6C03F010033B6118
:100EE0003B69464B1B6B454A43F001031363434B7D
:100EF0001B6B03F00103FB60FB684FF4C063C7F892
:100F0000A4300223C7F8A8300023C7F8AC3003236D
:100F1000C7F8B0300723C7F8B43007F1A403194667
:100F2000374800F0B9FD374B374A1A60354B4FF060
:100F300000625A60334B40229A60324B0022DA60E2
:100F4000304B4FF480621A612E4B00225A612D4BB8
:100F500000229A612B4B0022DA612A4B00221A628E
:100F6000284B00225A62274800F08CF90346002BD8
:100F700001D0FFF7A9FD7B68224A1A67214A7B68E6
:100F80009363224B224A1A60204B4FF000625A6052
:100F90001E4B00229A601D4B0022DA601B4B4FF45F
:100FA00080621A61194B00225A61184B00229A6123
:100FB000164B0022DA61154B00221A62134B0022F5
:100FC0005A62124800F05EF90346002B01D0FFF789
:100FD0007BFD7B680D4A5A670C4A7B68936300224D
:100FE0000521252000F024F9252000F03DF900BF5F
:100FF000B837BD4680BD00BF001001400038024038
:10100000000002400C220020B86402406C22002044
:1010100040640240DFF834D00D480E490E4A0023E8
:1010200002E0D458C4500433C4188C42F9D30B4A9C
:101030000B4C002301E013600432A242FBD3FFF704
:10104000DBFE05F0A7F9FFF797FC704700000820CA
:10105000000000206C000020106904086C000020D3
:1010600068B50120FEE780B500AF032000F0D5F899
:101070000F20FFF781FDFFF757FD0023184680BDC5
:1010800080B400AF064B1B781A46064B1B6813440E
:10109000044A136000BFBD465DF8047B704700BF83
:1010A00008000020CC22002080B400AF034B1B6856
:1010B0001846BD465DF8047B704700BFCC22002077
:1010C00080B485B000AF78607B6803F00703FB60F5
:1010D0000B4BDB68BB60BA684FF6FF031340BB6085
:1010E000FB681A02BB681A43064B1343BB60044AF1
:1010F000BB68D36000BF1437BD465DF8047B704702
:1011000000ED00E00000FA0580B400AF044BDB689E
:101110001B0A03F007031846BD465DF8047B7047C1
:1011200000ED00E080B483B000AF0346FB7197F997
:101130000730002B0BDBFB7903F01F02074997F9FF
:1011400007305B09012000FA02F241F8232000BFBA
:101150000C37BD465DF8047B704700BF00E100E03E
:1011600080B483B000AF03463960FB7197F9073054
:10117000002B0ADB3B68DAB20C4997F90730120101
:10118000D2B20B4483F800230AE03B68DAB2084984
:10119000FB7903F00F03043B1201D2B20B441A7621
:1011A00000BF0C37BD465DF8047B704700E100E0EE
:1011B00000ED00E080B489B000AFF860B9607A60FB
:1011C000FB6803F00703FB61FB69C3F10703042B12
:1011D00028BF0423BB61FB690433062B02D9FB69DA
:1011E000033B00E000237B614FF0FF32BB6902FA52
:1011F00003F3DA43BB681A407B699A404FF0FF3132
:101200007B6901FA03F3D9437B680B40134318460B
:101210002437BD465DF8047B704780B582B000AFCF
:1012200078607868FFF74CFF00BF0837BD4680BD87
:1012300080B586B000AF0346B9607A60FB730023C7
:101240007B61FFF761FF78617A68B9687869FFF7B9
:10125000B1FF024697F90F3011461846FFF780FF9D
:1012600000BF1837BD4680BD80B582B000AF0346D1
:10127000FB7197F907301846FFF754FF00BF083796
:10128000BD4680BD80B586B000AF786000237B612D
:10129000FFF70AFF38617B68002B01D1012399E039
:1012A0007B68022283F835207B68002283F8342093
:1012B0007B681B681A687B681B6822F001021A6051
:1012C0000FE0FFF7F1FE02463B69D31A052B08D960
:1012D0007B6820225A657B68032283F8352003232C
:1012E00078E07B681B681B6803F00103002BE8D1E2
:1012F0007B681B681B687B617A69384B13407B6194
:101300007B685A687B689B681A437B68DB681A4372
:101310007B681B691A437B685B691A437B689B691E
:101320001A437B68DB691A437B681B6A13437A693B
:1013300013437B617B685B6A042B07D17B68DA6AA5
:101340007B681B6B13437A6913437B617B681B6863
:101350007A691A607B681B685B697B617B6923F033
:1013600007037B617B685B6A7A6913437B617B68F7
:101370005B6A042B17D17B689B6A7A6913437B6194
:101380007B68DB6A002B0ED0786800F009FB03460F
:10139000002B08D07B6840225A657B68012283F8C5
:1013A0003520012316E07B681B687A695A617868EA
:1013B00000F0C0FA0346FB607B68DB6D3F229A4079
:1013C000FB689A607B6800225A657B68012283F87B
:1013D0003520002318461837BD4680BD3F8010E0F9
:1013E00080B586B000AFF860B9607A603B600023DA
:1013F000FB75FB689B6D3B61FB6893F83430012BF8
:1014000001D1022348E0FB68012283F83420FB6805
:1014100093F83530DBB2012B37D1FB68022283F819
:101420003520FB6800225A653B687A68B968F8681D
:1014300000F052FAFB68DB6D3F229A403B699A60EC
:10144000FB681B681A68FB681B6842F016021A608A
:10145000FB681B685A69FB681B6842F080025A618E
:10146000FB681B6C002B07D0FB681B681A68FB68C5
:101470001B6842F008021A60FB681B681A68FB6868
:101480001B6842F001021A6005E0FB68002283F845
:1014900034200223FB75FB7D18461837BD4680BDFE
:1014A00080B584B000AF78607B689B6DFB60FFF710
:1014B000FBFDB8607B6893F83530DBB2022B08D0B7
:1014C0007B6880225A657B68002283F834200123E0
:1014D00052E07B681B681A687B681B6822F0160262
:1014E0001A607B681B685A697B681B6822F080025F
:1014F0005A617B681B6C002B03D17B689B6C002BB3
:1015000007D07B681B681A687B681B6822F008029A
:101510001A607B681B681A687B681B6822F00102EE
:101520001A6013E0FFF7C0FD0246BB68D31A052B13
:101530000CD97B6820225A657B68032283F835200A
:101540007B68002283F83420032315E07B681B6846
:101550001B6803F00103002BE4D17B68DB6D3F22A5
:101560009A40FB689A607B68012283F835207B688B
:10157000002283F83420002318461037BD4680BD72
:1015800080B483B000AF78607B6893F83530DBB20D
:10159000022B04D07B6880225A6501230CE07B6813
:1015A000052283F835207B681B681A687B681B68F6
:1015B00022F001021A60002318460C37BD465DF880
:1015C000047B704780B586B000AF78600023BB60B5
:1015D0008E4B1B688E4AA2FB03239B0A7B617B68B0
:1015E0009B6D3B613B691B68FB607B68DB6D082280
:1015F0009A40FB681340002B1AD07B681B681B685D
:1016000003F00403002B13D07B681B681A687B6807
:101610001B6822F004021A607B68DB6D08229A4086
:101620003B699A607B685B6D43F001027B685A6599
:101630007B68DB6D01229A40FB681340002B12D0BF
:101640007B681B685B6903F08003002B0BD07B6811
:10165000DB6D01229A403B699A607B685B6D43F0C9
:1016600002027B685A657B68DB6D04229A40FB6846
:101670001340002B12D07B681B681B6803F0020329
:10168000002B0BD07B68DB6D04229A403B699A608B
:101690007B685B6D43F004027B685A657B68DB6D99
:1016A00010229A40FB681340002B43D07B681B68D4
:1016B0001B6803F00803002B3CD07B68DB6D102215
:1016C0009A403B699A607B681B681B6803F480231F
:1016D000002B18D07B681B681B6803F40023002BC9
:1016E00008D17B681B6C002B24D07B681B6C78684E
:1016F00098471FE07B689B6C002B1BD07B689B6C22
:101700007868984716E07B681B681B6803F4807351
:10171000002B07D17B681B681A687B681B6822F066
:1017200008021A607B681B6C002B03D07B681B6C63
:10173000786898477B68DB6D20229A40FB681340ED
:10174000002B00F08F807B681B681B6803F0100380
:10175000002B00F087807B68DB6D20229A403B697C
:101760009A607B6893F83530DBB2052B36D17B6805
:101770001B681A687B681B6822F016021A607B6877
:101780001B685A697B681B6822F080025A617B687B
:101790001B6C002B03D17B689B6C002B07D07B68F4
:1017A0001B681A687B681B6822F008021A607B6855
:1017B000DB6D3F229A403B699A607B68012283F887
:1017C00035207B68002283F834207B681B6D002B5A
:1017D0007ED07B681B6D7868984779E07B681B68D2
:1017E0001B6803F48023002B1DD07B681B681B68DB
:1017F00003F40023002B0DD17B685B6C002B31D0F0
:101800007B685B6C786898472CE000BF0000002084
:10181000B5814E1B7B68DB6B002B23D07B68DB6BB9
:10182000786898471EE07B681B681B6803F4807328
:10183000002B0FD17B681B681A687B681B6822F03D
:1018400010021A607B68012283F835207B68002231
:1018500083F834207B68DB6B002B03D07B68DB6B69
:10186000786898477B685B6D002B32D07B685B6D36
:1018700003F00103002B22D07B68052283F835207A
:101880007B681B681A687B681B6822F001021A607B
:10189000BB680133BB607A699A4207D37B681B68D7
:1018A0001B6803F00103002BF2D100E000BF7B684E
:1018B000012283F835207B68002283F834207B687E
:1018C000DB6C002B05D07B68DB6C7868984700E008
:1018D00000BF1837BD4680BD80B485B000AFF8604A
:1018E000B9607A603B60FB681B681A68FB681B681C
:1018F00022F480221A60FB681B683A685A60FB6811
:101900009B68402B08D1FB681B687A689A60FB686B
:101910001B68BA68DA6007E0FB681B68BA689A60FF
:10192000FB681B687A68DA6000BF1437BD465DF853
:10193000047B704780B485B000AF78607B681B681B
:10194000DBB2103B134AA2FB03231B09FB60124AC4
:10195000FB6813441B781A467B68DA65FB68032B27
:1019600008D97B681B681A460C4B13401A1D7B680C
:101970009A6506E07B681B681A46084B13407A6834
:1019800093657B689B6D18461437BD465DF8047BF4
:10199000704700BFABAAAAAAF868040800FCFFFFC2
:1019A00080B485B000AF78600023FB737B689B6ACE
:1019B000BB607B689B69002B1FD1BB68032B56D88B
:1019C00001A252F823F000BFD9190408EB1904084A
:1019D000D91904086F1A04087B68DB6A03F0807366
:1019E000002B46D00123FB7343E07B68DB6AB3F135
:1019F000C07F40D10123FB733DE07B689B69B3F559
:101A0000005F21D1BB68032B37D801A252F823F025
:101A1000211A0408271A0408211A0408391A04088C
:101A20000123FB7330E07B68DB6A03F08073002BDB
:101A300025D00123FB7322E07B68DB6AB3F1C07F12
:101A40001FD10123FB731CE0BB68022B03D9BB68C9
:101A5000032B03D018E00123FB7315E07B68DB6ADE
:101A600003F08073002B0ED00123FB730BE000BF4B
:101A70000AE000BF08E000BF06E000BF04E000BFCE
:101A800002E000BF00E000BFFB7B18461437BD46F4
:101A90005DF8047B704700BF80B489B000AF786008
:101AA00039600023FB6100237B6100233B6100233D
:101AB000BB610023FB6175E10122FB6902FA03F3BC
:101AC0007B613B681B687A6913403B613A697B69BB
:101AD0009A4240F064813B685B6803F00303012B8A
:101AE00005D03B685B6803F00303022B30D17B68B1
:101AF0009B68BB61FB695B00032202FA03F3DB43D3
:101B0000BA691340BB613B68DA68FB695B0002FAA3
:101B100003F3BA691343BB617B68BA699A607B6857
:101B20005B68BB610122FB6902FA03F3DB43BA691C
:101B30001340BB613B685B681B0903F00102FB6952
:101B400002FA03F3BA691343BB617B68BA695A604E
:101B50003B685B6803F00303032B17D07B68DB68EB
:101B6000BB61FB695B00032202FA03F3DB43BA6942
:101B70001340BB613B689A68FB695B0002FA03F3A0
:101B8000BA691343BB617B68BA69DA603B685B681A
:101B900003F00303022B23D1FB69DA087B680832C8
:101BA00053F82230BB61FB6903F007039B000F224F
:101BB00002FA03F3DB43BA691340BB613B681A695D
:101BC000FB6903F007039B0002FA03F3BA691343AE
:101BD000BB61FB69DA087B680832B96943F82210F7
:101BE0007B681B68BB61FB695B00032202FA03F39D
:101BF000DB43BA691340BB613B685B6803F00302D7
:101C0000FB695B0002FA03F3BA691343BB617B68AB
:101C1000BA691A603B685B6803F44033002B00F03C
:101C2000BE80664B5B6C654A43F480435364634BF0
:101C30005B6C03F48043FB60FB68614AFB699B08B3
:101C4000023352F82330BB61FB6903F003039B00AE
:101C50000F2202FA03F3DB43BA691340BB617B68CE
:101C6000584A934237D07B68574A934231D07B68B9
:101C7000564A93422BD07B68554A934225D07B68C5
:101C8000544A93421FD07B68534A934219D07B68D1
:101C9000524A934213D07B68514A93420DD07B68DD
:101CA000504A934207D07B684F4A934201D109239F
:101CB00012E00A2310E008230EE007230CE00623BD
:101CC0000AE0052308E0042306E0032304E00223DE
:101CD00002E0012300E00023FA6902F0030292000F
:101CE0009340BA691343BB613549FB699B080233D2
:101CF000BA6941F823203D4B9B68BB613B69DB43DC
:101D0000BA691340BB613B685B6803F48013002B26
:101D100003D0BA693B691343BB61344ABB69936022
:101D2000324BDB68BB613B69DB43BA691340BB6183
:101D30003B685B6803F40013002B03D0BA693B696E
:101D40001343BB61294ABB69D360284B5B68BB6105
:101D50003B69DB43BA691340BB613B685B6803F4D2
:101D60000033002B03D0BA693B691343BB611F4AA0
:101D7000BB6953601D4B1B68BB613B69DB43BA69A0
:101D80001340BB613B685B6803F48033002B03D0D6
:101D9000BA693B691343BB61144ABB691360FB69B1
:101DA0000133FB61FB690F2B7FF686AE00BF00BFDE
:101DB0002437BD465DF8047B704700BF0038024001
:101DC00000380140000002400004024000080240C8
:101DD000000C0240001002400014024000180240B3
:101DE000001C02400020024000240240003C014050
:101DF00080B483B000AF78600B467B8013467B7065
:101E00007B78002B03D07A887B689A6103E07B881B
:101E10001A047B689A6100BF0C37BD465DF8047BED
:101E20007047000080B582B000AF0346FB80084BCE
:101E30005A69FB881340002B06D0054AFB88536182
:101E4000FB881846FEF718FD00BF0837BD4680BD69
:101E5000003C014080B400AF054B1B68044A43F4CA
:101E60008073136000BFBD465DF8047B704700BF00
:101E70000070004080B582B000AF00237B60234B30
:101E80001B6C224A43F080531364204B1B6C03F0FD
:101E900080533B603B681E4B1B681D4A43F48033F4
:101EA0001360FFF701F9786009E0FFF7FDF80246DB
:101EB0007B68D31AB3F57A7F01D9032322E0144B50
:101EC0005B6803F48033B3F5803FEED1104B1B68A1
:101ED0000F4A43F400331360FFF7E6F8786009E037
:101EE000FFF7E2F802467B68D31AB3F57A7F01D98F
:101EF000032307E0064B5B6803F40033B3F5003FB0
:101F0000EED1002318460837BD4680BD0038024098
:101F10000070004080B586B000AF78600023FB758C
:101F20007B68002B01D101239BE27B681B6803F0D7
:101F30000103002B00F08780964B9B6803F00C0395
:101F4000042B0CD0934B9B6803F00C03082B12D18D
:101F5000904B5B6803F48003B3F5800F0BD18D4B7E
:101F60001B6803F40033002B6CD07B685B68002B8C
:101F700068D1012375E27B685B68B3F5803F06D1C9
:101F8000844B1B68834A43F4803313602EE07B68E4
:101F90005B68002B0CD17F4B1B687E4A23F4803397
:101FA00013607C4B1B687B4A23F4802313601DE085
:101FB0007B685B68B3F5A02F0CD1764B1B68754A24
:101FC00043F480231360734B1B68724A43F48033DD
:101FD00013600BE06F4B1B686E4A23F48033136071
:101FE0006C4B1B686B4A23F4802313607B685B682F
:101FF000002B13D0FFF758F8386108E0FFF754F8CA
:1020000002463B69D31A642B01D9032329E2614BB1
:102010001B6803F40033002BF0D014E0FFF744F802
:10202000386108E0FFF740F802463B69D31A642B99
:1020300001D9032315E2574B1B6803F40033002B2F
:10204000F0D100E000BF7B681B6803F00203002BA7
:1020500069D0504B9B6803F00C03002B0BD04D4B09
:102060009B6803F00C03082B1CD14A4B5B6803F4FC
:102070008003002B16D1474B1B6803F00203002B93
:1020800005D07B68DB68012B01D00123E9E1414BDE
:102090001B6823F0F8027B681B69DB003D49134392
:1020A0000B6040E07B68DB68002B23D0394B1B685A
:1020B000384A43F001031360FEF7F6FF386108E089
:1020C000FEF7F2FF02463B69D31A022B01D9032324
:1020D000C7E1304B1B6803F00203002BF0D02D4BFF
:1020E0001B6823F0F8027B681B69DB002949134356
:1020F0000B6018E0274B1B68264A23F0010313608E
:10210000FEF7D2FF386108E0FEF7CEFF02463B69DA
:10211000D31A022B01D90323A3E11E4B1B6803F042
:102120000203002BF0D17B681B6803F00803002B2F
:1021300038D07B685B69002B19D0164B5B6F154A52
:1021400043F001035367FEF7AFFF386108E0FEF785
:10215000ABFF02463B69D31A022B01D9032380E16E
:102160000C4B5B6F03F00203002BF0D01AE0094B1D
:102170005B6F084A23F001035367FEF795FF386150
:102180000AE0FEF791FF02463B69D31A022B03D9FE
:10219000032366E100380240924B5B6F03F00203B9
:1021A000002BEED17B681B6803F00403002B00F0CA
:1021B000A4808C4B1B6C03F08053002B0DD1894BFA
:1021C0001B6C884A43F080531364864B1B6C03F0EE
:1021D0008053BB60BB680123FB75834B1B6803F412
:1021E0008073002B18D1804B1B687F4A43F48073A7
:1021F0001360FEF759FF386108E0FEF755FF02460D
:102200003B69D31A642B01D903232AE1764B1B685F
:1022100003F48073002BF0D07B689B68012B06D100
:10222000704B1B6F6F4A43F0010313672DE07B680F
:102230009B68002B0CD16B4B1B6F6A4A23F0010388
:102240001367684B1B6F674A23F0040313671CE096
:102250007B689B68052B0CD1624B1B6F614A43F076
:10226000040313675F4B1B6F5E4A43F00103136760
:102270000BE05C4B1B6F5B4A23F001031367594B68
:102280001B6F584A23F0040313677B689B68002B7D
:1022900015D0FEF709FF38610AE0FEF705FF024698
:1022A0003B69D31A41F28832934201D90323D8E023
:1022B0004C4B1B6F03F00203002BEED014E0FEF733
:1022C000F3FE38610AE0FEF7EFFE02463B69D31ADF
:1022D00041F28832934201D90323C2E0414B1B6F84
:1022E00003F00203002BEED1FB7D012B05D13D4B0A
:1022F0001B6C3C4A23F0805313647B689B69002B62
:1023000000F0AE80374B9B6803F00C03082B6DD0B8
:102310007B689B69022B4BD1324B1B68314A23F0FF
:1023200080731360FEF7C0FE386108E0FEF7BCFE64
:1023300002463B69D31A022B01D9032391E0294BB2
:102340001B6803F00073002BF0D17B68DA697B68AF
:102350001B6A1A437B685B6A9B011A437B689B6A12
:102360005B08013B1B041A437B68DB6A1B061A43AC
:102370007B681B6B1B071B4913434B60194B1B6886
:10238000184A43F080731360FEF78EFE386108E050
:10239000FEF78AFE02463B69D31A022B01D90323BA
:1023A0005FE0104B1B6803F00073002BF0D057E088
:1023B0000C4B1B680B4A23F080731360FEF774FE0E
:1023C000386108E0FEF770FE02463B69D31A022B23
:1023D00001D9032345E0034B1B6803F00073002B76
:1023E000F0D13DE000380240007000401F4B5B68B8
:1023F000FB607B689B69012B30D0FB6803F4800293
:102400007B68DB699A4229D1FB6803F03F027B6855
:102410001B6A9A4222D1FA6847F6C07313407A6861
:10242000526A9201934219D1FB6803F440327B68EF
:102430009B6A5B08013B1B049A420FD1FB6803F0C7
:1024400070627B68DB6A1B069A4207D1FB6803F067
:10245000E0427B681B6B1B079A4201D0012300E01E
:10246000002318461837BD4680BD00BF0038024023
:1024700080B584B000AF786039600023FB607B6872
:10248000002B01D10123D0E06A4B1B6803F00F033E
:102490003A689A4210D9674B1B6823F00F026549CE
:1024A0003B6813430B60634B1B6803F00F033A68F0
:1024B0009A4201D00123B8E07B681B6803F0020355
:1024C000002B20D07B681B6803F00403002B05D091
:1024D000594B9B68584A43F4E05393607B681B68F0
:1024E00003F00803002B05D0534B9B68524A43F47A
:1024F00060439360504B9B6823F0F0027B689B68BD
:102500004D4913438B607B681B6803F00103002B6C
:1025100040D07B685B68012B07D1474B1B6803F4F5
:102520000033002B15D101237FE07B685B68022B11
:1025300007D1414B1B6803F00073002B09D1012325
:1025400073E03D4B1B6803F00203002B01D1012314
:102550006BE0394B9B6823F003027B685B6836496C
:1025600013438B60FEF7A0FDF8600AE0FEF79CFDC8
:102570000246FB68D31A41F28832934201D9032301
:1025800053E02D4B9B6803F00C027B685B689B005B
:102590009A42EBD1274B1B6803F00F033A689A422B
:1025A00010D2244B1B6823F00F0222493B681343CF
:1025B0000B60204B1B6803F00F033A689A4201D06E
:1025C000012332E07B681B6803F00403002B08D072
:1025D000194B9B6823F4E0527B68DB681649134370
:1025E0008B607B681B6803F00803002B09D0124B3B
:1025F0009B6823F460427B681B69DB000E49134330
:102600008B6000F021F802460B4B9B681B0903F01E
:102610000F030A49CB5C22FA03F3094A1360094B02
:102620001B681846FEF7A8FA002318461037BD4667
:1026300080BD00BF003C024000380240E068040852
:1026400000000020040000202DE9B04F90B000AF42
:1026500000237B630023FB6300233B630023BB63F6
:10266000594B9B6803F00C03082B0DD0082B00F28C
:10267000A180002B02D0042B03D09BE0534BBB6303
:102680009BE0534BBB6398E04F4B5B6803F03F0309
:102690007B634D4B5B6803F48003002B28D04A4BCF
:1026A0005B689B0900223B627A623B6AC3F30800C5
:1026B0000021474B03FB01F2002300FB03F313440B
:1026C000434AA0FB0212FA620A46BA62FA6A13444B
:1026D000FB627B6B0022BB61FA61D7E90623D7E975
:1026E0000A01FDF7ADFD02460B461346FB6353E0BE
:1026F000354B5B689B0900223B617A613B69C3F300
:10270000080A4FF0000B52465B464FF000004FF0B6
:102710000001590141EAD261500102460B46B2EB79
:102720000A0863EB0B094FF000024FF000034FEA79
:10273000891343EA98634FEA8812B2EB080463EB0B
:1027400009054FF000024FF00003EB0043EA547319
:10275000E20014461D4614EB0A033B6045EB0B03F5
:102760007B604FF000024FF00003D7E90045294697
:102770008B02214643EA915321468A0210461946AC
:102780007B6B0022BB60FA60D7E90223FDF758FD9E
:1027900002460B461346FB630B4B5B681B0C03F0B6
:1027A000030301335B003B63FA6B3B6BB2FBF3F358
:1027B000BB6302E0054BBB6300BFBB6B18464037F1
:1027C000BD46BDE8B08F00BF003802400024F400D1
:1027D00040787D0180B400AF034B1B681846BD46AE
:1027E0005DF8047B704700BF0000002080B500AF9B
:1027F000FFF7F0FF0246054B9B689B0A03F00703B7
:102800000349CB5C22FA03F3184680BD003802402E
:10281000F068040880B500AFFFF7DCFF0246054B07
:102820009B685B0B03F007030349CB5C22FA03F3BD
:10283000184680BD00380240F068040880B483B0B8
:1028400000AF786039607B680F221A60124B9B687A
:1028500003F003027B685A600F4B9B6803F0F002A1
:102860007B689A600C4B9B6803F4E0527B68DA60EB
:10287000094B9B68DB0803F4E0527B681A61074B45
:102880001B6803F00F023B681A6000BF0C37BD469F
:102890005DF8047B704700BF00380240003C0240F6
:1028A00080B588B000AF786000237B6100233B6176
:1028B0000023FB600023FB610023BB617B681B6876
:1028C00003F00103002B12D0694B9B68684A23F484
:1028D00000039360664B9A687B685B6B64491343A3
:1028E0008B607B685B6B002B01D10123FB617B68F4
:1028F0001B6803F40023002B17D05D4BD3F88C30FA
:1029000023F440127B68DB6B59491343C1F88C30C8
:102910007B68DB6BB3F5801F01D10123FB617B6812
:10292000DB6B002B01D10123BB617B681B6803F4C7
:102930008013002B17D04E4BD3F88C3023F4400279
:102940007B681B6C4A491343C1F88C307B681B6C55
:10295000B3F5800F01D10123FB617B681B6C002B59
:1029600001D10123BB617B681B6803F08073002BDE
:1029700001D00123FB617B681B6803F02003002B5F
:1029800000F08B803A4B1B6C394A43F08053136440
:10299000374B1B6C03F08053BB60BB68354B1B6827
:1029A000344A43F480731360FEF77EFB786108E0DD
:1029B000FEF77AFB02467B69D31A642B01D9032305
:1029C0008FE32C4B1B6803F48073002BF0D0284B53
:1029D0001B6F03F440733B613B69002B35D07B6870
:1029E0001B6B03F440733A699A422ED0204B1B6F45
:1029F00023F440733B611E4B1B6F1D4A43F480332D
:102A000013671B4B1B6F1A4A23F480331367184A52
:102A10003B691367164B1B6F03F00103012B14D1A5
:102A2000FEF742FB78610AE0FEF73EFB02467B6957
:102A3000D31A41F28832934201D9032351E30C4B5C
:102A40001B6F03F00203002BEED07B681B6B03F4BB
:102A50004073B3F5407F11D1054B9B6823F4F81206
:102A60007B68196B044B0B40014913438B600BE0EF
:102A70000038024000700040FFFCFF0FAC4B9B6829
:102A8000AB4A23F4F8139360A94B1A6F7B681B6B56
:102A9000C3F30B03A64913430B677B681B6803F062
:102AA0001003002B10D0A24BD3F88C30A04A23F097
:102AB0008073C2F88C309E4BD3F88C207B689B6B64
:102AC0009B491343C1F88C307B681B6803F4804337
:102AD000002B0AD0964BD3F8903023F440327B6819
:102AE0005B6E93491343C1F890307B681B6803F415
:102AF0000043002B0AD08E4BD3F8903023F44022B1
:102B00007B689B6E8A491343C1F890307B681B68D1
:102B100003F48033002B0AD0854BD3F8903023F494
:102B200040127B68DB6E82491343C1F890307B68AA
:102B30001B6803F40033002B0AD07D4BD3F8903090
:102B400023F440027B681B6F79491343C1F890302E
:102B50007B681B6803F04003002B0AD0744BD3F84A
:102B6000903023F003027B685B6C71491343C1F81A
:102B700090307B681B6803F08003002B0AD06C4BFD
:102B8000D3F8903023F00C027B689B6C68491343A8
:102B9000C1F890307B681B6803F48073002B0AD067
:102BA000634BD3F8903023F030027B68DB6C6049D4
:102BB0001343C1F890307B681B6803F40073002B4B
:102BC0000AD05B4BD3F8903023F0C0027B681B6DBA
:102BD00057491343C1F890307B681B6803F4806346
:102BE000002B0AD0524BD3F8903023F440727B680C
:102BF0005B6D4F491343C1F890307B681B6803F449
:102C00000063002B0AD04A4BD3F8903023F4406283
:102C10007B689B6D46491343C1F890307B681B6805
:102C200003F48053002B0AD0414BD3F8903023F4A7
:102C300040527B68DB6D3E491343C1F890307B689E
:102C40001B6803F40053002B0AD0394BD3F89030A3
:102C500023F440427B681B6E35491343C1F8903022
:102C60007B681B6803F48003002B0AD0304BD3F839
:102C7000903023F080627B689B6F2D491343C1F82D
:102C800090307B681B6803F40013002B11D0284B95
:102C9000D3F8903023F000627B68DB6F2449134344
:102CA000C1F890307B68DB6FB3F1006F01D1012375
:102CB000BB617B681B6803F00803002B01D0012374
:102CC000BB617B681B6803F48023002B0AD0184B80
:102CD000D3F8903023F040727B685B6F1449134344
:102CE000C1F890307B681B6803F40003002B0BD005
:102CF0000F4BD3F8903023F080527B68D3F88030AC
:102D00000B491343C1F890307B681B6803F0806364
:102D1000002B0FD0064BD3F8903023F000527B6885
:102D2000D3F8843002491343C1F8903002E000BF69
:102D3000003802407B681B6803F00063002B0BD057
:102D40008A4BD3F88C3023F000727B68D3F888303C
:102D500086491343C1F88C307B681B6803F08053AD
:102D6000002B0BD0814BD3F88C3023F080627B6832
:102D7000D3F88C307D491343C1F88C30FB69012BAB
:102D800006D07B681B6803F00073002B00F0D68030
:102D9000764B1B68754A23F080631360FEF784F955
:102DA000786108E0FEF780F902467B69D31A642B4C
:102DB00001D9032395E16D4B1B6803F00063002BE1
:102DC000F0D17B681B6803F00103002B21D07B68E6
:102DD0005B6B002B1DD1654BD3F884301B0C03F0CB
:102DE00003033B61614BD3F884301B0E03F00F03E8
:102DF000FB607B685B689A013B691B041A43FB68B4
:102E00001B061A437B689B681B0758491343C1F88C
:102E100084307B681B6803F40023002B04D07B689C
:102E2000DB6BB3F5801F0AD07B681B6803F480134B
:102E3000002B2ED07B681B6CB3F5800F29D14B4B38
:102E4000D3F884301B0C03F003033B61474BD3F8EA
:102E500084301B0F03F00703FB607B685B689A01FB
:102E60003B691B041A437B68DB681B061A43FB683B
:102E70001B073E491343C1F884303C4BD3F88C30D8
:102E800023F01F027B685B6A013B38491343C1F89A
:102E90008C307B681B6803F08073002B1DD0334B94
:102EA000D3F884301B0E03F00F033B612F4BD3F894
:102EB00084301B0F03F00703FB607B685B689A019B
:102EC0007B681B691B041A433B691B061A43FB689A
:102ED0001B0726491343C1F884307B681B6803F045
:102EE0000073002B11D07B685B689A017B681B69BB
:102EF0001B041A437B68DB681B061A437B689B68CC
:102F00001B071A491343C1F88430184B1B68174A32
:102F100043F080631360FEF7C7F8786108E0FEF7BE
:102F2000C3F802467B69D31A642B01D90323D8E086
:102F30000E4B1B6803F00063002BF0D0BB69012B24
:102F400040F0CE80094B1B68084A23F08053136081
:102F5000FEF7AAF878610BE0FEF7A6F802467B6957
:102F6000D31A642B04D90323BBE000BF003802400E
:102F70005E4B1B6803F00053B3F1005FECD07B683D
:102F80001B6803F40023002B03D07B68DB6B002B52
:102F900009D07B681B6803F48013002B2ED07B685C
:102FA0001B6C002B2AD1514BD3F888301B0C03F03B
:102FB00003033B614D4BD3F888301B0F03F007032D
:102FC000FB607B685B699A013B691B041A437B6861
:102FD0009B691B061A43FB681B0744491343C1F84E
:102FE0008830424BD3F88C3023F4F8527B689B6ACC
:102FF000013B1B023D491343C1F88C307B681B68C1
:1030000003F40013002B22D07B68DB6FB3F1006F59
:103010001DD1364BD3F888301B0E03F00F033B61F4
:10302000324BD3F888301B0F03F00703FB607B683B
:103030005B699A017B681B6A1B041A433B691B0688
:103040001A43FB681B0729491343C1F888307B6882
:103050001B6803F00803002B28D0244BD3F88830DA
:103060001B0E03F00F033B61204BD3F888301B0C81
:1030700003F00303FB607B685B699A01FB681B0438
:103080001A433B691B061A437B68DB691B07174918
:103090001343C1F88830154BD3F88C3023F44032F9
:1030A0007B68DB6A11491343C1F88C300F4B1B68F6
:1030B0000E4A43F080531360FDF7F6FF786108E095
:1030C000FDF7F2FF02467B69D31A642B01D9032373
:1030D00007E0064B1B6803F00053B3F1005FEFD12C
:1030E000002318462037BD4680BD00BF003802408F
:1030F00080B582B000AF78607B68002B01D10123DE
:1031000049E07B6893F83D30DBB2002B06D17B6849
:10311000002283F83C20786800F041F87B680222A6
:1031200083F83D207B681A687B6804331946104693
:1031300000F000FA7B68012283F848207B680122B6
:1031400083F83E207B68012283F83F207B680122C0
:1031500083F840207B68012283F841207B680122AC
:1031600083F842207B68012283F843207B68012298
:1031700083F844207B68012283F845207B68012284
:1031800083F846207B68012283F847207B68012270
:1031900083F83D20002318460837BD4680BD80B423
:1031A00083B000AF786000BF0C37BD465DF8047B8C
:1031B0007047000080B485B000AF78607B6893F8FA
:1031C0003D30DBB2012B01D0012354E07B680222A9
:1031D00083F83D207B681B68DA687B681B6842F0D7
:1031E0000102DA607B681B68264A934222D07B6822
:1031F0001B68B3F1804F1DD07B681B68224A934245
:1032000018D07B681B68214A934213D07B681B68E7
:103210001F4A93420ED07B681B681E4A934209D016
:103220007B681B681C4A934204D07B681B681B4A5E
:10323000934215D17B681B689A68194B1340FB6059
:10324000FB68062B15D0FB68B3F5803F11D07B6877
:103250001B681A687B681B6842F001021A6008E06C
:103260007B681B681A687B681B6842F001021A6061
:1032700000E000BF002318461437BD465DF8047B0C
:10328000704700BF000001400004004000080040FB
:10329000000C0040000401400040014000180040C4
:1032A0000700010080B582B000AF78607B681B68C2
:1032B0001B6903F00203022B22D17B681B68DB68C9
:1032C00003F00203022B1BD17B681B686FF0020224
:1032D0001A617B6801221A777B681B689B6903F07F
:1032E0000303002B03D0786800F005F905E0786847
:1032F00000F0F7F8786800F008F97B6800221A7788
:103300007B681B681B6903F00403042B22D17B68D4
:103310001B68DB6803F00403042B1BD17B681B686C
:103320006FF004021A617B6802221A777B681B68BF
:103330009B6903F44073002B03D0786800F0DBF83E
:1033400005E0786800F0CDF8786800F0DEF87B687A
:1033500000221A777B681B681B6903F00803082B9F
:1033600022D17B681B68DB6803F00803082B1BD1A4
:103370007B681B686FF008021A617B6804221A7769
:103380007B681B68DB6903F00303002B03D07868BC
:1033900000F0B1F805E0786800F0A3F8786800F074
:1033A000B4F87B6800221A777B681B681B6903F0FE
:1033B0001003102B22D17B681B68DB6803F010031D
:1033C000102B1BD17B681B686FF010021A617B68A1
:1033D00008221A777B681B68DB6903F44073002BB3
:1033E00003D0786800F087F805E0786800F079F895
:1033F000786800F08AF87B6800221A777B681B687F
:103400001B6903F00103012B0ED17B681B68DB688D
:1034100003F00103012B07D17B681B686FF00102E9
:103420001A617868FDF73EFB7B681B681B6903F037
:103430008003802B0ED17B681B68DB6803F0800360
:10344000802B07D17B681B686FF080021A61786857
:1034500000F01AF97B681B681B6903F48073B3F5ED
:10346000807F0ED17B681B68DB6803F08003802BB4
:1034700007D17B681B686FF480721A61786800F06E
:103480000DF97B681B681B6903F04003402B0ED1CC
:103490007B681B68DB6803F04003402B07D17B6827
:1034A0001B686FF040021A61786800F038F87B689A
:1034B0001B681B6903F02003202B0ED17B681B685F
:1034C000DB6803F02003202B07D17B681B686FF0BB
:1034D00020021A61786800F0CDF800BF0837BD46B9
:1034E00080BD80B483B000AF786000BF0C37BD46AC
:1034F0005DF8047B704780B483B000AF786000BF94
:103500000C37BD465DF8047B704780B483B000AFD4
:10351000786000BF0C37BD465DF8047B704780B40F
:1035200083B000AF786000BF0C37BD465DF8047B08
:103530007047000080B485B000AF786039607B6868
:103540001B68FB607B68404A934213D07B68B3F1F1
:10355000804F0FD07B683D4A93420BD07B683C4A3A
:10356000934207D07B683B4A934203D07B683A4A38
:10357000934208D1FB6823F07003FB603B685B68F3
:10358000FA681343FB607B682F4A93422BD07B6819
:10359000B3F1804F27D07B682C4A934223D07B68BD
:1035A0002B4A93421FD07B682A4A93421BD07B68E8
:1035B000294A934217D07B68284A934213D07B68EC
:1035C000274A93420FD07B68264A93420BD07B68F0
:1035D000254A934207D07B68244A934203D07B68F4
:1035E000234A934208D1FB6823F44073FB603B6895
:1035F000DB68FA681343FB60FB6823F080023B68DA
:103600005B691343FB607B68FA681A603B689A68E1
:103610007B68DA623B681A687B689A627B680A4A50
:10362000934203D07B680C4A934203D13B681A69EA
:103630007B681A637B6801225A6100BF1437BD465C
:103640005DF8047B704700BF0000014000040040AB
:1036500000080040000C0040000401400040014010
:10366000004401400048014000180040001C004098
:103670000020004080B483B000AF786000BF0C37FA
:10368000BD465DF8047B704780B483B000AF7860BE
:1036900000BF0C37BD465DF8047B704780B483B033
:1036A00000AF786000BF0C37BD465DF8047B704703
:1036B00080B582B000AF78607B68002B01D1012318
:1036C00040E07B68DB6F002B06D17B68002283F82B
:1036D00078207868FDF7D2FB7B682422DA677B6864
:1036E0001B681A687B681B6822F001021A60786800
:1036F00000F0C4FB0346012B01D1012322E07B68CB
:103700005B6A002B02D0786800F01CFE7B681B68A7
:103710005A687B681B6822F490425A607B681B6879
:103720009A687B681B6822F02A029A607B681B6893
:103730001A687B681B6842F001021A60786800F022
:10374000A3FE034618460837BD4680BD80B58AB043
:1037500000AFF860B9601346FB80FB68DB6F202B7D
:1037600065D1BB68002B02D0FB88002B01D101235F
:103770005EE0FB68BA68DA64FB68FA88A3F8502058
:10378000FB68FA88A3F85220FB680022C3F8842063
:10379000FB682122DA67FB681B6F002B27D0FB68D0
:1037A0001B6F254ADA63FB681B6F244A1A64FB68A7
:1037B0001B6F234ADA64FB681B6F00221A65FB68E3
:1037C000186FFB68DB6C1946FB681B6828331A46C8
:1037D000FB88FDF705FE0346002B08D0FB6810228E
:1037E000C3F88420FB682022DA67012320E0FB680D
:1037F0001B6840221A62FB681B6808337B617B6987
:1038000053E8003F3B613B6943F080037B62FB6808
:103810001B6808337A6A3A62FB61F9693A6A41E8DF
:103820000023BB61BB69002BE5D1002300E002232C
:1038300018462837BD4680BDC347040859480408C8
:103840007548040880B5BAB000AF78607B681B6823
:10385000DB69C7F8E4307B681B681B68C7F8E03099
:103860007B681B689B68C7F8DC30D7F8E42040F61B
:103870000F031340C7F8D830D7F8D830002B15D134
:10388000D7F8E43003F02003002B0FD0D7F8E03056
:1038900003F02003002B09D07B689B6E002B00F007
:1038A000AC827B689B6E78689847A6E2D7F8D830E0
:1038B000002B00F01781D7F8DC3003F00103002B58
:1038C00006D1D7F8E020854B1340002B00F00A8189
:1038D000D7F8E43003F00103002B11D0D7F8E03023
:1038E00003F48073002B0BD07B681B6801221A62E3
:1038F0007B68D3F8843043F001027B68C3F88420EE
:10390000D7F8E43003F00203002B11D0D7F8DC30F5
:1039100003F00103002B0BD07B681B6802221A62A4
:103920007B68D3F8843043F004027B68C3F88420BA
:10393000D7F8E43003F00403002B11D0D7F8DC30C3
:1039400003F00103002B0BD07B681B6804221A6272
:103950007B68D3F8843043F002027B68C3F884208C
:10396000D7F8E43003F00803002B17D0D7F8E03085
:1039700003F02003002B05D1D7F8DC3003F001035E
:10398000002B0BD07B681B6808221A627B68D3F877
:10399000843043F008027B68C3F88420D7F8E43011
:1039A00003F40063002B12D0D7F8E03003F08063FB
:1039B000002B0CD07B681B684FF400621A627B6896
:1039C000D3F8843043F020027B68C3F884207B68FE
:1039D000D3F88430002B00F01282D7F8E43003F0E3
:1039E0002003002B0DD0D7F8E03003F02003002B8C
:1039F00007D07B689B6E002B03D07B689B6E78683A
:103A000098477B68D3F88430C7F8D4307B681B684C
:103A10009B6803F04003402B05D0D7F8D43003F067
:103A20002803002B4FD0786800F067FE7B681B6886
:103A30009B6803F04003402B41D17B681B6808332F
:103A4000C7F89C30D7F89C3053E8003FC7F898304F
:103A5000D7F8983023F04003C7F8D0307B681B6854
:103A60000833D7F8D020C7F8A820C7F8A430D7F873
:103A7000A410D7F8A82041E80023C7F8A030D7F851
:103A8000A030002BD9D17B685B6F002B13D07B68F3
:103A90005B6F134A1A657B685B6F1846FDF770FD14
:103AA0000346002B17D07B685B6F1B6D7A68526FE3
:103AB000104698470FE0786800F0C0F90BE078688E
:103AC00000F0BCF907E0786800F0B8F97B680022E4
:103AD000C3F8842093E100BF91E100BF20010004FE
:103AE000F34804087B681B6E012B40F04C81D7F82B
:103AF000E43003F01003002B00F04581D7F8E030EC
:103B000003F01003002B00F03E817B681B6810223D
:103B10001A627B681B689B6803F04003402B40F0EF
:103B2000B6807B685B6F1B685B68A7F8BE30B7F830
:103B3000BE30002B00F065817B68B3F85830B7F8D1
:103B4000BE209A4280F05D817B68B7F8BE20A3F862
:103B50005A207B685B6FDB69B3F5807F00F086805D
:103B60007B681B68C7F88830D7F8883053E8003F77
:103B7000C7F88430D7F8843023F48073C7F8B8309E
:103B80007B681B681A46D7F8B830C7F89430C7F876
:103B90009020D7F89010D7F8942041E80023C7F878
:103BA0008C30D7F88C30002BDAD17B681B68083357
:103BB0007B677B6F53E8003F3B673B6F23F001035C
:103BC000C7F8B4307B681B680833D7F8B420C7F84F
:103BD0008020FB67F96FD7F8802041E80023BB679E
:103BE000BB6F002BE1D17B681B6808333B663B6EE3
:103BF00053E8003FFB65FB6D23F04003C7F8B0308E
:103C00007B681B680833D7F8B020FA66BB66B96ECC
:103C1000FA6E41E800237B667B6E002BE3D17B6864
:103C20002022C3F880207B6800221A667B681B680C
:103C3000FB64FB6C53E8003FBB64BB6C23F01003D8
:103C4000C7F8AC307B681B681A46D7F8AC30BB6548
:103C50007A65796DBA6D41E800233B653B6D002BB9
:103C6000E4D17B685B6F1846FDF71AFC7B68022283
:103C70005A667B68B3F858207B68B3F85A309BB219
:103C8000D31A9BB21946786800F0E2F8B9E07B6875
:103C9000B3F858207B68B3F85A309BB2D31AA7F810
:103CA000CE307B68B3F85A309BB2002B00F0AB806B
:103CB000B7F8CE30002B00F0A6807B681B68BB6392
:103CC000BB6B53E8003F7B637B6B23F49073C7F8B7
:103CD000C8307B681B681A46D7F8C8307B643A64E2
:103CE000396C7A6C41E80023FB63FB6B002BE4D159
:103CF0007B681B6808337B627B6A53E8003F3B624A
:103D00003B6A23F00103C7F8C4307B681B680833A3
:103D1000D7F8C4203A63FB62F96A3A6B41E80023A2
:103D2000BB62BB6A002BE3D17B682022C3F88020F2
:103D30007B6800221A667B6800229A667B681B6893
:103D40003B613B6953E8003FFB60FB6823F01003D5
:103D5000C7F8C0307B681B681A46D7F8C030FB61D3
:103D6000BA61B969FA6941E800237B617B69002B7C
:103D7000E4D17B6802225A66B7F8CE3019467868DB
:103D800000F066F83FE0D7F8E43003F48013002B2E
:103D90000ED0D7F8DC3003F48003002B08D07B680A
:103DA0001B684FF480121A62786800F05DF82DE00D
:103DB000D7F8E43003F08003002B0ED0D7F8E030C2
:103DC00003F08003002B08D07B68DB6E002B1CD037
:103DD0007B68DB6E7868984717E0D7F8E43003F02B
:103DE0004003002B12D0D7F8E03003F04003002B43
:103DF0000CD0786800F093FD08E000BF06E000BF3B
:103E000004E000BF02E000BF00E000BFE837BD46AD
:103E100080BD00BF80B483B000AF786000BF0C37B6
:103E2000BD465DF8047B704780B483B000AF786016
:103E300000BF0C37BD465DF8047B704780B483B08B
:103E400000AF786000BF0C37BD465DF8047B70475B
:103E500080B483B000AF78600B467B8000BF0C3726
:103E6000BD465DF8047B704780B483B000AF7860D6
:103E700000BF0C37BD465DF8047B704780B588B045
:103E800000AF78600023BB777B689A687B681B690A
:103E90001A437B685B691A437B68DB6913437B6168
:103EA0007B681B681A68A64B13407A6812687969A8
:103EB0000B4313607B681B685B6823F440517B688D
:103EC000DA687B681B680A435A607B689B697B6180
:103ED0007B681B6A7A6913437B617B681B689B68FC
:103EE00023F430617B681B687A690A439A607B68B7
:103EF0001B68944A934220D1934BD3F8903003F03F
:103F00000303032B16D801A252F823F01D3F040827
:103F1000293F0408233F04082F3F04080123FB77AF
:103F200050E10223FB774DE10423FB774AE10823AC
:103F3000FB7747E11023FB7744E17B681B68834AEA
:103F4000934232D1804BD3F8903003F00C030C2B0A
:103F500028D801A252F823F08D3F0408A53F040899
:103F6000A53F0408A53F0408993F0408A53F04089D
:103F7000A53F0408A53F0408933F0408A53F040893
:103F8000A53F0408A53F04089F3F04080023FB77D2
:103F900018E10223FB7715E10423FB7712E10823E4
:103FA000FB770FE11023FB770CE17B681B68684A05
:103FB000934220D1644BD3F8903003F03003302B80
:103FC00013D0302B14D8202B09D0202B10D8002B45
:103FD00002D0102B06D00BE00023FB77F2E0022387
:103FE000FB77EFE00423FB77ECE00823FB77E9E0C5
:103FF0001023FB77E6E07B681B68564A934220D18A
:10400000514BD3F8903003F0C003C02B13D0C02B1A
:1040100014D8802B09D0802B10D8002B02D0402B35
:1040200006D00BE00023FB77CCE00223FB77C9E04E
:104030000423FB77C6E00823FB77C3E01023FB775C
:10404000C0E07B681B68444A934225D13E4BD3F8BD
:10405000903003F44073B3F5407F17D0B3F5407F41
:1040600017D8B3F5007F0BD0B3F5007F11D8002B24
:1040700003D0B3F5807F06D00BE00023FB77A1E0EF
:104080000223FB779EE00423FB779BE00823FB776A
:1040900098E01023FB7795E07B681B682F4A9342DA
:1040A00025D1294BD3F8903003F44063B3F5406F2A
:1040B00017D0B3F5406F17D8B3F5006F0BD0B3F539
:1040C000006F11D8002B03D0B3F5806F06D00BE042
:1040D0000123FB7776E00223FB7773E00423FB7771
:1040E00070E00823FB776DE01023FB776AE07B68C4
:1040F0001B681B4A934238D1134BD3F8903003F41A
:104100004053B3F5405F17D0B3F5405F2AD8B3F5FD
:10411000005F0BD0B3F5005F24D8002B03D0B3F5BC
:10412000805F06D01EE00023FB774BE00223FB7785
:1041300048E00423FB7745E00823FB7742E000BF1B
:10414000F369FFEF001001400038024000440040D6
:1041500000480040004C0040005000400014014066
:10416000007800401023FB772CE07B681B68724AC4
:10417000934225D1714BD3F8903003F44043B3F50B
:10418000404F17D0B3F5404F17D8B3F5004F0BD0C1
:10419000B3F5004F11D8002B03D0B3F5804F06D0F4
:1041A0000BE00023FB770DE00223FB770AE00423FA
:1041B000FB7707E00823FB7704E01023FB7701E09F
:1041C0001023FB777B68DB69B3F5004F5BD1FB7F86
:1041D000082B28D801A252F823F000BF014204089E
:1041E000094204081142040827420408174204083F
:1041F0002742040827420408274204081F420408F3
:10420000FEF7F4FAB86113E0FEF704FBB8610FE0C3
:104210004B4BBB610CE0FEF717FAB86108E04FF4B6
:104220000043BB6104E00023BB610123BB7700BFF7
:10423000BB69002B74D0BB695A007B685B685B0864
:104240001A447B685B68B2FBF3F33B613B690F2B5D
:1042500016D93B69B3F5803F12D23B699BB223F07C
:104260000F03FB813B695B089BB203F007039AB223
:10427000FB891343FB817B681B68FA89DA604FE096
:104280000123BB774CE0FB7F082B28D801A252F812
:1042900023F000BFB9420408C1420408C94204081F
:1042A000DF420408CF420408DF420408DF4204086A
:1042B000DF420408D7420408FEF798FAB86113E019
:1042C000FEF7A8FAB8610FE01D4BBB610CE0FEF7EA
:1042D000BBF9B86108E04FF40043BB6104E0002380
:1042E000BB610123BB7700BFBB69002B18D07B6883
:1042F0005B685A08BB691A447B685B68B2FBF3F3DE
:104300003B613B690F2B09D93B69B3F5803F05D26F
:104310003B699AB27B681B68DA6001E00123BB77D6
:104320007B6800229A667B680022DA66BB7F1846AB
:104330002037BD4680BD00BF007C004000380240F1
:104340000024F40080B483B000AF78607B685B6ABF
:1043500003F00103002B0AD07B681B685B6823F421
:1043600000317B689A6A7B681B680A435A607B68E5
:104370005B6A03F00203002B0AD07B681B685B6852
:1043800023F480317B68DA6A7B681B680A435A60D1
:104390007B685B6A03F00403002B0AD07B681B6810
:1043A0005B6823F480217B681A6B7B681B680A4377
:1043B0005A607B685B6A03F00803002B0AD07B68B5
:1043C0001B685B6823F400417B685A6B7B681B6841
:1043D0000A435A607B685B6A03F01003002B0AD023
:1043E0007B681B689B6823F480517B689A6B7B68B1
:1043F0001B680A439A607B685B6A03F02003002B0A
:104400000AD07B681B689B6823F400517B68DA6BD9
:104410007B681B680A439A607B685B6A03F0400311
:10442000002B1AD07B681B685B6823F480117B68C3
:104430001A6C7B681B680A435A607B681B6CB3F577
:10444000801F0AD17B681B685B6823F4C0017B680E
:104450005A6C7B681B680A435A607B685B6A03F08E
:104460008003002B0AD07B681B685B6823F4002163
:104470007B689A6C7B681B680A435A6000BF0C37E4
:10448000BD465DF8047B704780B586B002AF7860AA
:104490007B680022C3F88420FCF706FEF8607B6886
:1044A0001B681B6803F00803082B0ED16FF07E43D6
:1044B0000093FB6800224FF40011786800F031F897
:1044C0000346002B01D0032327E07B681B681B6891
:1044D00003F00403042B0ED16FF07E430093FB68BE
:1044E00000224FF48001786800F01BF80346002B8F
:1044F00001D0032311E07B682022DA677B68202249
:10450000C3F880207B6800221A667B6800225A6606
:104510007B68002283F87820002318461037BD46B8
:1045200080BD80B59CB000AFF860B9603B601346B9
:10453000FB71A7E0BB6FB3F1FF3F00F0A380FCF776
:10454000B3FD02463B68D31ABA6F9A4202D3BB6FDF
:10455000002B3FD1FB681B683B653B6D53E8003F78
:10456000FB64FB6C23F4D0737B66FB681B681A4604
:104570007B6EFB65BA65B96DFA6D41E800237B651A
:104580007B6D002BE6D1FB681B680833FB63FB6B7C
:1045900053E8003FBB63BB6B23F001033B66FB6842
:1045A0001B6808333A6EBA647B64796CBA6C41E874
:1045B00000233B643B6C002BE5D1FB682022DA67CB
:1045C000FB682022C3F88020FB68002283F8782053
:1045D000032368E0FB681B681B6803F00403002BDF
:1045E00050D0FB681B68DB6903F40063B3F5006F10
:1045F00048D1FB681B684FF400621A62FB681B68B5
:10460000BB62BB6A53E8003F7B627B6A23F4D073D2
:10461000FB66FB681B681A46FB6E7B633A63396B6B
:104620007A6B41E80023FB62FB6A002BE6D1FB6852
:104630001B6808337B617B6953E8003F3B613B6942
:1046400023F00103BB66FB681B680833BA6E3A624D
:10465000FB61F9693A6A41E80023BB61BB69002B41
:10466000E5D1FB682022DA67FB682022C3F88020AE
:10467000FB682022C3F88420FB68002283F878209E
:10468000032310E0FB681B68DA69BB681340BA6853
:104690009A420CBF01230023DBB21A46FB799A42EF
:1046A0003FF448AF002318467037BD4680BD80B444
:1046B00089B000AF78607B681B68FB60FB6853E8DB
:1046C000003FBB60BB6823F0C003FB617B681B68D5
:1046D0001A46FB69BB617A617969BA6941E80023CE
:1046E0003B613B69002BE6D17B682022DA6700BF83
:1046F0002437BD465DF8047B704780B495B000AFA9
:1047000078607B681B687B637B6B53E8003F3B638F
:104710003B6B23F49073FB647B681B681A46FB6C4D
:104720003B64FA63F96B3A6C41E80023BB63BB6BF3
:10473000002BE6D17B681B6808333B623B6A53E879
:10474000003FFB61FB6923F00103BB647B681B68CE
:104750000833BA6CFA62BB62B96AFA6A41E80023AC
:104760007B627B6A002BE5D17B681B6E012B18D125
:104770007B681B68FB60FB6853E8003FBB60BB685D
:1047800023F010037B647B681B681A467B6CBB615B
:104790007A617969BA6941E800233B613B69002B82
:1047A000E6D17B682022C3F880207B6800221A664D
:1047B0007B6800229A6600BF5437BD465DF8047BD3
:1047C000704780B590B000AF78607B689B6BFB63EF
:1047D0007B68DB69B3F5807F37D0FB6B0022A3F8E1
:1047E0005220FB6B1B6808337B627B6A53E8003FF7
:1047F0003B623B6A23F08003BB63FB6B1B6808339F
:10480000BA6B3A63FB62F96A3A6B41E80023BB6218
:10481000BB6A002BE5D1FB6B1B683B613B6953E82E
:10482000003FFB60FB6843F040037B63FB6B1B684E
:104830001A467B6BFB61BA61B969FA6941E80023EA
:104840007B617B69002BE6D102E0F86BFFF7E2FAAF
:1048500000BF4037BD4680BD80B584B000AF7860F2
:104860007B689B6BFB60F868FFF7DEFA00BF1037D0
:10487000BD4680BD80B586B000AF78607B689B6B1D
:104880007B617B69DB6F3B617B69D3F88030FB60C8
:104890007B691B689B6803F08003802B09D13B690F
:1048A000212B06D17B690022A3F852207869FFF7FB
:1048B000FEFE7B691B689B6803F04003402B09D117
:1048C000FB68222B06D17B690022A3F85A20786965
:1048D000FFF713FF7B69D3F8843043F010027B6944
:1048E000C3F884207869FFF7A9FA00BF1837BD46DE
:1048F00080BD80B584B000AF78607B689B6BFB6047
:10490000FB680022A3F85A20FB680022A3F852207B
:10491000F868FFF793FA00BF1037BD4680BD80B539
:1049200088B000AF78607B681B68FB60FB6853E869
:10493000003FBB60BB6823F04003FB617B681B68E2
:104940001A46FB69BB617A617969BA6941E800235B
:104950003B613B69002BE6D17B682022DA677B68EC
:104960000022DA667868FFF755FA00BF2037BD46A7
:1049700080BD80B485B000AF0346FB800023FB60A0
:10498000B7F90630842B05D0B7F90620FB6813442D
:104990000333FB60FB6818461437BD465DF8047BA3
:1049A000704780B500AF00F0FFFA0023184680BDC5
:1049B000F0B589B004AF786039607B685B69002B23
:1049C00020D07B689B69002B1CD07B685C687B686F
:1049D0001D687B681E697B68B3F908301846FFF7CD
:1049E000C8FF01467B685B697A689269029201930D
:1049F00000913B6832462946204600F0EDF8034618
:104A0000FB601CE07B685C687B681D687B681B69D9
:104A10009EB27B68B3F908301846FFF7AAFF02463A
:104A200007F10C03019300923B6832462946204669
:104A300000F035F90346012B01D0002300E0FB68AC
:104A400018461437BD46F0BD80B584B000AF78601D
:104A50007B68FB60FB68002B01D0FB6800E0012352
:104A6000184600F06BFA002318461037BD4680BD8B
:104A700080B483B000AF78607B6803F108027B6884
:104A80005A607B684FF0FF329A607B6803F108023E
:104A90007B68DA607B6803F108027B681A617B68D7
:104AA00000221A6000BF0C37BD465DF8047B7047DA
:104AB00080B483B000AF78607B6800221A6100BFC9
:104AC0000C37BD465DF8047B704780B485B000AFFD
:104AD000786039607B685B68FB603B68FA685A60A5
:104AE000FB689A683B689A60FB689B683A685A6002
:104AF000FB683A689A603B687A681A617B681B6851
:104B00005A1C7B681A6000BF1437BD465DF8047BF1
:104B1000704780B485B000AF786039603B681B682F
:104B2000BB60BB68B3F1FF3F03D17B681B69FB60CF
:104B30000CE07B680833FB6002E0FB685B68FB60AD
:104B4000FB685B681B68BA689A42F6D2FB685A68D1
:104B50003B685A603B685B683A689A603B68FA68F1
:104B60009A60FB683A685A603B687A681A617B68A9
:104B70001B685A1C7B681A6000BF1437BD465DF87D
:104B8000047B704780B485B000AF78607B681B6998
:104B9000FB607B685B687A6892689A607B689B6858
:104BA0007A6852685A60FB685B687A689A4203D1F7
:104BB0007B689A68FB685A607B6800221A61FB6810
:104BC0001B685A1EFB681A60FB681B68184614377E
:104BD000BD465DF8047B704780B58EB004AFF860C9
:104BE000B9607A603B607B6B002B0CD14FF05003B7
:104BF00072B683F31188BFF36F8FBFF34F8F62B626
:104C00003B6200BFFEE7BB6B002B0CD14FF05003A3
:104C100072B683F31188BFF36F8FBFF34F8F62B605
:104C2000FB6100BFFEE7A0233B613B69A02B0CD0DA
:104C30004FF0500372B683F31188BFF36F8FBFF349
:104C40004F8F62B6BB6100BFFEE73B69BB6B002BB9
:104C50001ED07B6B002B1BD0BB6B7B627B6A7A6B9D
:104C60001A637B6A022283F89D20002303937B6AE8
:104C7000029307F1140301933B6B00933B687A683E
:104C8000B968F86800F050F8786A00F0EDF801E0D3
:104C900000237B617B6918462837BD4680BD80B5FF
:104CA0008CB004AFF860B9603B601346FB80FB88B2
:104CB0009B00184600F0EAFE78617B69002B0ED05D
:104CC000A02000F0E3FEF861FB69002B03D0FB6934
:104CD0007A691A6305E0786900F0A2FF01E0002319
:104CE000FB61FB69002B17D0FB69002283F89D2034
:104CF000FA8800230393FB690293FB6A0193BB6A62
:104D000000933B68B968F86800F00EF8F86900F0A5
:104D1000ABF80123BB6102E04FF0FF33BB61BB691D
:104D200018462037BD4680BD80B588B000AFF8601A
:104D3000B9607A603B603B6B1A6B79686FF04043F7
:104D40000B449B001344BB61BB6923F00703BB61A9
:104D5000BB6903F00703002B0CD04FF0500372B671
:104D600083F31188BFF36F8FBFF34F8F62B67B6100
:104D700000BFFEE7BB68002B1FD00023FB6112E0E1
:104D8000BA68FB69134419783A6BFB6913443433EE
:104D90000A461A70BA68FB6913441B78002B06D0C8
:104DA000FB690133FB61FB690F2BE9D900E000BF10
:104DB0003B6B002283F8432003E03B6B002283F827
:104DC0003420BB6A062B01D90623BB623B6BBA6A4F
:104DD000DA623B6BBA6A5A643B6B00229A643B6BA3
:104DE00004331846FFF764FE3B6B18331846FFF791
:104DF0005FFE3B6B3A6B1A61BB6AC3F107023B6B08
:104E00009A613B6B3A6B5A623B6B0022C3F8982065
:104E10003B6B002283F89C203B6B4C334C220021DF
:104E2000184601F00DFA3B6B0C4A1A653B6B0C4AB5
:104E30005A653B6B0B4A9A653A68F968B86900F0A5
:104E40002DFC02463B6B1A60FB6A002B02D0FB6A0A
:104E50003A6B1A6000BF2037BD4680BD1CB40120EC
:104E600084B40120ECB4012080B582B000AF78603A
:104E700000F024FD2A4B1B680133294A1360294B9B
:104E80001B68002B09D1274A7B681360244B1B68E1
:104E9000012B10D100F0D8FA0DE0234B1B68002B3A
:104EA00009D1204B1B68DA6A7B68DB6A9A4202D818
:104EB0001C4A7B6813601D4B1B6801331B4A13603F
:104EC0007B68DB6A01229A40194B1B681343184A1E
:104ED00013607B68DA6A13469B0013449B00154AF3
:104EE0001A447B68043319461046FFF7EEFD00F0C4
:104EF00019FD0D4B1B68002B0ED00A4B1B68DA6A9C
:104F00007B68DB6A9A4207D20B4B4FF080521A60E3
:104F1000BFF34F8FBFF36F8F00BF0837BD4680BD13
:104F2000D0230020D0220020DC230020EC2300200E
:104F3000D8230020D422002004ED00E080B584B006
:104F400000AF78600023FB607B68002B19D0144B06
:104F50001B68002B0CD04FF0500372B683F31188FE
:104F6000BFF36F8FBFF34F8F62B6BB6000BFFEE72A
:104F700000F088F80021786800F02AFB00F090F833
:104F8000F860FB68002B07D1064B4FF080521A6087
:104F9000BFF34F8FBFF36F8F00BF1037BD4680BD8B
:104FA000F823002004ED00E080B58AB004AF0023B0
:104FB000BB6000237B603A46391D07F108031846A1
:104FC000FBF748FB39687B68BA68029201930023BB
:104FD000009300230A4623492348FFF7FDFD0346BB
:104FE000224A1360214B1B68002B02D001237B61F6
:104FF00001E000237B617B69012B1DD14FF0500341
:1050000072B683F31188BFF36F8FBFF34F8F62B611
:105010003B6100BF164B1B684C33164A1360164B9E
:105020004FF0FF321A60154B01221A60144B002218
:105030001A6000F0C5FB10E07B69B3F1FF3F0CD1B3
:105040004FF0500372B683F31188BFF36F8FBFF335
:105050004F8F62B6FB6000BFFEE700BF1837BD464A
:1050600080BD00BFD868040819540408F423002048
:10507000D022002068000020F0230020DC23002044
:10508000D423002080B400AF044B1B680133034AD3
:10509000136000BFBD465DF8047B7047F823002015
:1050A00080B584B000AF0023FB600023BB60424B9F
:1050B0001B68002B0CD14FF0500372B683F311889C
:1050C000BFF36F8FBFF34F8F62B63B6000BFFEE749
:1050D00000F0F4FB384B1B68013B374A1360364B3A
:1050E0001B68002B61D1354B1B68002B5DD02EE077
:1050F000334BDB68DB68FB60FB6818331846FFF74F
:1051000041FDFB6804331846FFF73CFDFB68DB6A92
:1051100001229A402B4B1B6813432A4A1360FB68F9
:10512000DA6A13469B0013449B00274A1A44FB6823
:10513000043319461046FFF7C8FCFB68DA6A234BB4
:105140001B68DB6A9A4202D3214B01221A601C4B76
:105150001B68002BCCD1FB68002B01D000F018FAA3
:105160001C4B1B687B607B68002B10D000F036F86E
:105170000346002B02D0164B01221A607B68013BCC
:105180007B607B68002BF1D1124B00221A60104B20
:105190001B68002B09D00123BB600F4B4FF08052DE
:1051A0001A60BFF34F8FBFF36F8F00F0BBFBBB687C
:1051B00018461037BD4680BDF8230020D0230020BC
:1051C00090230020D8230020D4220020D0220020C9
:1051D000E4230020E023002004ED00E080B586B049
:1051E00000AF00237B614F4B1B68002B40F08A808F
:1051F0004D4B1B6801333B614B4A3B6913603B6974
:10520000002B22D1494B1B681B68002B0CD04FF0A0
:10521000500372B683F31188BFF36F8FBFF34F8FC4
:1052200062B63B6000BFFEE7404B1B68FB60404B33
:105230001B683E4A13603E4AFB6813603D4B1B6887
:1052400001333C4A136000F0A3F93B4B1B683A69F9
:105250009A4248D3354B1B681B68002B04D1364B50
:105260004FF0FF321A603EE0304B1B68DB68DB68B2
:10527000BB60BB685B687B603A697B689A4203D21B
:105280002D4A7B6813602EE0BB6804331846FFF795
:1052900079FCBB689B6A002B04D0BB6818331846A6
:1052A000FFF770FCBB68DB6A01229A40234B1B6846
:1052B0001343224A1360BB68DA6A13469B00134407
:1052C0009B001F4A1A44BB68043319461046FFF777
:1052D000FCFBBB68DA6A1B4B1B68DB6A9A42B9D3DA
:1052E00001237B61B6E7174B1B68DA6A1449134642
:1052F0009B0013449B000B441B68012B07D901231F
:105300007B6104E0104B1B6801330F4A13600F4BA5
:105310001B68002B01D001237B617B69184618377D
:10532000BD4680BDF8230020D42300208823002020
:105330008C230020E8230020F0230020D823002025
:10534000D4220020D0220020E0230020E4230020EB
:1053500080B487B000AF2A4B1B68002B03D0294BC9
:1053600001221A6046E0274B00221A60264B1B6878
:10537000FB60FB68B3FA83F3FB72FB7AC3F11F0394
:105380007B6122497A6913469B0013449B000B44BE
:105390001B68002B0CD14FF0500372B683F31188B9
:1053A000BFF36F8FBFF34F8F62B67B6000BFFEE726
:1053B0007A6913469B0013449B00144A13443B61D3
:1053C0003B695B685A683B695A603B695A683B694C
:1053D00008339A4204D13B695B685A683B695A605A
:1053E0003B695B68DB680A4A1360094B1B684C33F6
:1053F000084A136000BF1C37BD465DF8047B704748
:10540000F8230020E4230020D8230020D422002009
:10541000D02200206800002080B582B000AF786004
:1054200000F052F8064B1B68012BF9D9054B4FF0E1
:1054300080521A60BFF34F8FBFF36F8FF0E700BF4A
:10544000D422002004ED00E080B582B000AF00233C
:105450007B600CE07A6813469B0013449B00124A61
:1054600013441846FFF704FB7B6801337B607B68BD
:10547000062BEFD90D48FFF7FBFA0D48FFF7F8FAB6
:105480000C48FFF7F5FA0C48FFF7F2FA0B48FFF764
:10549000EFFA0B4B054A1A600A4B054A1A6000BF27
:1054A0000837BD4680BD00BFD42200206023002005
:1054B0007423002090230020A4230020BC2300207C
:1054C000882300208C23002080B582B000AF19E033
:1054D00000F0F4F9104BDB68DB687B607B68043319
:1054E0001846FFF74FFB0D4B1B68013B0B4A13603F
:1054F0000B4B1B68013B0A4A136000F013FA7868F3
:1055000000F010F8064B1B68002BE1D100BF00BF74
:105510000837BD4680BD00BFA4230020D023002053
:10552000B823002080B584B000AF78607B684C332E
:10553000184600F09DFE7B6893F89D30002B08D143
:105540007B681B6B184600F06BFB786800F068FB0B
:105550001AE07B6893F89D30012B03D1786800F046
:105560005FFB11E07B6893F89D30022B0CD04FF06D
:10557000500372B683F31188BFF36F8FBFF34F8F61
:1055800062B6FB6000BFFEE700BF1037BD4680BDBE
:1055900080B483B000AF0C4B1B681B68002B04D198
:1055A0000A4B4FF0FF321A6008E0074B1B68DB68BC
:1055B000DB687B607B685B68044A136000BF0C3764
:1055C000BD465DF8047B704788230020F02300204F
:1055D00080B584B000AF78603960294B1B68FB60F0
:1055E000284B1B6804331846FFF7CCFA0346002B00
:1055F0000BD1244B1B68DB6A012202FA03F3DA4366
:10560000214B1B681340204A13607B68B3F1FF3FB6
:105610000AD13B68002B07D01A4B1B68043319468C
:105620001A48FFF752FA26E0FA687B681344BB6019
:10563000144B1B68BA685A60BA68FB689A4209D270
:10564000134B1A680F4B1B68043319461046FFF7BB
:1056500060FA10E00F4B1A680A4B1B6804331946B6
:105660001046FFF756FA0C4B1B68BA689A4202D2F2
:10567000094ABB68136000BF1037BD4680BD00BF3C
:10568000D4230020D0220020D8230020BC230020D7
:105690008C23002088230020F023002080B485B0D4
:1056A00000AFF860B9607A60FB68043BFB60FB68A0
:1056B0004FF080721A60FB68043BFB60BB6823F00C
:1056C0000102FB681A60FB68043BFB600C4AFB6844
:1056D0001A60FB68143BFB607A68FB681A60FB6821
:1056E000043BFB60FB686FF002021A60FB68203B22
:1056F000FB60FB6818461437BD465DF8047B7047B5
:105700000557040880B485B000AF00237B60144BBC
:105710001B68B3F1FF3F0CD04FF0500372B683F318
:105720001188BFF36F8FBFF34F8F62B6FB6000BF6E
:10573000FEE74FF0500372B683F31188BFF36F8F0B
:10574000BFF34F8F62B6BB6000BF00BF7B68002B0A
:10575000FCD000BF00BF1437BD465DF8047B704726
:105760000C0000200000000000000000000000000D
:10577000074B19680868B0E8F04F80F30988BFF359
:105780006F8F4FF0000080F311887047AFF30080F7
:10579000D022002000BF00BF08480068006880F3E6
:1057A00008884FF0000080F3148862B661B6BFF33A
:1057B0004F8FBFF36F8F00DF00BF00BF08ED00E029
:1057C00080B584B000AF374BFB60FB681B78DBB261
:1057D0007B60FB68FF221A70FB681B78DBB2FB70F2
:1057E000FB78DBB203F05003DAB22F4B1A702F4B69
:1057F00007221A6009E02D4B1B68013B2B4A1360FE
:10580000FB78DBB25B00DBB2FB70FB78DBB203F052
:105810008003802BEFD0254B1B68C3F10703042BBB
:105820000CD04FF0500372B683F31188BFF36F8F23
:10583000BFF34F8F62B6BB6000BFFEE71B4B1B6818
:105840001B021A4A1360194B1B6803F4E063174AE2
:1058500013607B68DAB2FB681A70154B1B68144A38
:1058600043F470031360124B1B68114A43F07043FA
:10587000136000F0DDF80F4B00221A6000F0FCF816
:105880000D4B1B680C4A43F040431360FFF784FF45
:10589000FFF75EFDFFF736FF002318461037BD46C1
:1058A00080BD00BF00E400E0FC23002000240020B5
:1058B00020ED00E00C00002034EF00E080B483B065
:1058C00000AF4FF0500372B683F31188BFF36F8FB0
:1058D000BFF34F8F62B67B6000BF104B1B68013374
:1058E0000E4A13600D4B1B68012B11D10C4B1B682A
:1058F000DBB2002B0CD04FF0500372B683F311884B
:10590000BFF36F8FBFF34F8F62B63B6000BFFEE700
:1059100000BF0C37BD465DF8047B70470C000020CB
:1059200004ED00E080B483B000AF134B1B68002B84
:105930000CD14FF0500372B683F31188BFF36F8F11
:10594000BFF34F8F62B67B6000BFFEE70A4B1B6858
:10595000013B094A1360084B1B68002B05D100234B
:105960003B603B6883F3118800BF00BF0C37BD4626
:105970005DF8047B704700BF0C00002000000000B1
:10598000EFF30980BFF36F8F154B1A681EF0100FED
:1059900008BF20ED108A20E9F04F10602DE90900C2
:1059A0004FF0500072B680F31188BFF34F8FBFF3F2
:1059B0006F8F62B6FFF7CCFC4FF0000080F31188C8
:1059C00009BC19680868B0E8F04F1EF0100F08BF56
:1059D000B0EC108A80F30988BFF36F8F704700BF67
:1059E000D022002000BF00BF80B582B000AF4FF0D2
:1059F000500372B683F31188BFF36F8FBFF34F8FDD
:105A000062B67B6000BFFFF7E9FB0346002B03D0C3
:105A1000064B4FF080521A6000233B603B6883F3D3
:105A2000118800BF00BF0837BD4680BD04ED00E00F
:105A300080B400AF0B4B00221A600B4B00221A609F
:105A40000A4B1B680A4AA2FB03239B09094A013B34
:105A50001360044B07221A6000BFBD465DF8047B4B
:105A6000704700BF10E000E018E000E000000020F8
:105A7000D34D621014E000E0DFF80C00016841F43F
:105A800070010160704700BF88ED00E080B58AB00A
:105A900000AF78600023FB61FFF7F4FA5B4B1B68F3
:105AA000002B01D100F01AF9594B1A687B6813409A
:105AB000002B40F092807B68002B1FD008227B686F
:105AC00013447B607B6803F00703002B16D07B68D0
:105AD00023F0070308337B607B6803F00703002B88
